:100000000C942A000C94F2070C9447000C944700BF
:100010000C94AC020C9477020C9447000C944202AE
:100020000C9447000C940D020C94D8010C94A3017D
:100030000C9447000C9447000C9447000C94470024
:100040000C9447000C9447000C9447000C94470014
:100050000C94470011241FBECFE5D8E0DEBFCDBF12
:1000600010E0A0E6B0E0EAE0F3E502C005900D92F2
:10007000AE38B107D9F720E0AEE8B0E001C01D927C
:10008000AB3DB207E1F70E9407250C9483290C943D
:100090000000CF93DF93CDB7DEB780E290E028E495
:1000A000FC01208381E290E0FC01208181E290E06C
:1000B0002D7FFC01208381E290E0FC01208181E220
:1000C00090E02E7FFC01208382E290E026E0FC019C
:1000D000208382E290E0FC01208182E290E02E7F8A
:1000E000FC01208386E590E0FC01208186E590E01C
:1000F0002460FC0120830000DF91CF910895CF930D
:10010000DF9300D0CDB7DEB78A8386E590E024EA9E
:10011000FC012083000086E590E0FC0180818823BB
:10012000D4F70E94930189838981883011F080E09F
:100130001FC083E290E02A81FC01208386E590E0E5
:1001400024E8FC012083000086E590E0FC0180812A
:100150008823D4F70E94930189838981883111F41F
:1001600081E006C08981803211F482E001C083E021
:100170000F900F90DF91CF910895CF93DF9300D030
:10018000CDB7DEB78A8386E590E024EAFC012083C0
:10019000000086E590E0FC0180818823D4F70E946E
:1001A000930189838981803111F080E01FC083E24F
:1001B00090E02A81FC01208386E590E024E8FC01A0
:1001C0002083000086E590E0FC0180818823D4F73D
:1001D0000E94930189838981803411F481E006C0F3
:1001E0008981803211F482E001C083E00F900F908A
:1001F000DF91CF910895CF93DF9300D0CDB7DEB7D5
:100200008A8386E590E024EAFC012083000086E5ED
:1002100090E0FC0180818823D4F781E290E0FC012A
:100220008081887F898389818830E9F483E290E046
:100230002A81FC01208386E590E024E8FC012083EC
:10024000000086E590E0FC0180818823D4F781E2FC
:1002500090E0FC018081887F89838981883129F041
:100260000E943C0101C00000CCCF000000000F90B4
:100270000F90DF91CF910895CF93DF93CDB7DEB785
:1002800086E590E024E9FC0120830000DF91CF9116
:100290000895CF93DF931F92CDB7DEB7898383E2B2
:1002A00090E02981FC01208386E590E024E8FC01B0
:1002B0002083000086E590E0FC0180818823D4F74C
:1002C00000000F90DF91CF910895CF93DF93CDB7CA
:1002D000DEB786E590E024ECFC012083000086E593
:1002E00090E0FC0180818823D4F783E290E0FC0158
:1002F0008081DF91CF910895CF93DF93CDB7DEB7A3
:1003000086E590E024E8FC012083000086E590E08B
:10031000FC0180818823D4F783E290E0FC01808196
:10032000DF91CF910895CF93DF931F92CDB7DEB7C2
:1003300081E290E0FC018081887F898389810F9030
:10034000DF91CF9108951F920F920FB60F92112453
:100350002F933F934F935F936F937F938F939F93CD
:10036000AF93BF93EF93FF93CF93DF93CDB7DEB7F8
:1003700080918E0090918F00892B31F080918E00BA
:1003800090918F00FC0109950000DF91CF91FF91C2
:10039000EF91BF91AF919F918F917F916F915F91FD
:1003A0004F913F912F910F900FBE0F901F90189576
:1003B0001F920F920FB60F9211242F933F934F93DA
:1003C0005F936F937F938F939F93AF93BF93EF93BD
:1003D000FF93CF93DF93CDB7DEB780918E009091DE
:1003E0008F00892B31F080918E0090918F00FC015D
:1003F00009950000DF91CF91FF91EF91BF91AF91EF
:100400009F918F917F916F915F914F913F912F912C
:100410000F900FBE0F901F9018951F920F920FB65E
:100420000F9211242F933F934F935F936F937F937A
:100430008F939F93AF93BF93EF93FF93CF93DF93EC
:10044000CDB7DEB78091900090919100892B31F06B
:100450008091900090919100FC0109950000DF913E
:10046000CF91FF91EF91BF91AF919F918F917F912C
:100470006F915F914F913F912F910F900FBE0F9011
:100480001F9018951F920F920FB60F9211242F9361
:100490003F934F935F936F937F938F939F93AF930C
:1004A000BF93EF93FF93CF93DF93CDB7DEB78091E8
:1004B000900090919100892B31F080919000909163
:1004C0009100FC0109950000DF91CF91FF91EF9120
:1004D000BF91AF919F918F917F916F915F914F915C
:1004E0003F912F910F900FBE0F901F9018951F9264
:1004F0000F920FB60F9211242F933F934F935F9358
:100500006F937F938F939F93AF93BF93EF93FF93DB
:10051000CF93DF93CDB7DEB7809192009091930097
:10052000892B31F08091920090919300FC01099504
:100530000000DF91CF91FF91EF91BF91AF919F911B
:100540008F917F916F915F914F913F912F910F907C
:100550000FBE0F901F9018951F920F920FB60F921B
:1005600011242F933F934F935F936F937F938F93B8
:100570009F93AF93BF93EF93FF93CF93DF93CDB749
:10058000DEB78091920090919300892B31F0809199
:10059000920090919300FC0109950000DF91CF91AA
:1005A000FF91EF91BF91AF919F918F917F916F914B
:1005B0005F914F913F912F910F900FBE0F901F9021
:1005C0001895CF93DF9300D0CDB7DEB79A83898398
:1005D00089819A81FC018081882309F079C0898111
:1005E0009A81FC012281338182E590E0FC01208325
:1005F00083E590E0FC01108283E590E0FC0130810E
:1006000089819A81FC01268183E590E0232BFC01FE
:10061000208389819A81FC0181818823E1F483E52B
:1006200090E0FC01208183E590E02068FC012083BC
:1006300089E590E0FC01208189E590E02160FC01E2
:10064000208388E590E0FC01208188E590E021602E
:10065000FC01208333C089819A81FC018181813032
:1006600069F583E590E0FC01208183E590E0206856
:10067000FC01208383E590E0FC01208183E590E08C
:100680002860FC01208389819A81FC0124813581C5
:100690008CE590E0FC01208389E590E0FC0120815D
:1006A00089E590E02260FC01208388E590E0FC0170
:1006B000208188E590E02260FC01208389819A8175
:1006C000FC018781908590938F0080938E00F3C00A
:1006D00089819A81FC018081813009F076C08FE4A4
:1006E00090E0FC0110828FE490E0FC0120818FE417
:1006F00090E02860FC0120838FE490E0FC012081E1
:100700008FE490E02460FC0120838EE490E0298156
:100710003A81F9012681FC0120838CE490E0298153
:100720003A81F90122813381FC013183208389815F
:100730009A81FC018181882399F489E590E0FC018C
:10074000208189E590E02460FC01208388E590E029
:10075000FC01208188E590E02460FC0120832BC00F
:1007600089819A81FC018181813029F58EE490E0B4
:10077000FC0120818EE490E02860FC0120838AE463
:1007800090E029813A81F90124813581FC0131838E
:10079000208389E590E0FC01208189E590E02061DB
:1007A000FC01208388E590E0FC01208188E590E051
:1007B0002061FC01208389819A81FC0187819085D9
:1007C000909391008093900076C089819A81FC017A
:1007D0008081823009F06FC085E490E0FC012081C7
:1007E00085E490E02068FC01208389819A81FC01E6
:1007F0002281338184E490E0FC01208385E490E051
:10080000FC01108285E490E0FC01308189819A81AD
:10081000FC01268185E490E0232BFC012083898163
:100820009A81FC018181882399F489E590E0FC019B
:10083000208189E590E02064FC01208388E590E038
:10084000FC01208188E590E02064FC0120832AC01F
:1008500089819A81FC018181813021F583E590E0D5
:10086000FC01208183E590E02860FC0120838981E0
:100870009A81FC012481358183E490E0FC0120838E
:1008800089E590E0FC01208189E590E02068FC0189
:10089000208388E590E0FC01208188E590E02068D5
:1008A000FC01208389819A81FC0187819085909346
:1008B00093008093920000000F900F90DF91CF91F2
:1008C0000895CF93DF931F92CDB7DEB789838981D7
:1008D000882319F583E590E0FC01108282E590E021
:1008E000FC0110828CE590E0FC01108289E590E02B
:1008F000FC01208189E590E02D7FFC01208389E5C2
:1009000090E0FC01208189E590E02E7FFC012083AE
:1009100010928F0010928E0051C08981813049F56C
:100920008FE490E0FC0110828EE490E0FC011082E4
:100930008CE490E0FC011182108289E590E0FC01DA
:10094000208189E590E02B7FFC0120838AE490E000
:10095000FC011182108289E590E0FC01208189E58B
:1009600090E02F7EFC012083109291001092900065
:1009700025C08981823011F585E490E0FC01108268
:1009800084E490E0FC01108283E490E0FC0110829A
:1009900089E590E0FC01208189E590E02F77FC015A
:1009A000208389E590E0FC01208189E590E02F7BA0
:1009B000FC012083109293001092920000000F908F
:1009C000DF91CF910895CF93DF9300D01F92CDB7E1
:1009D000DEB789836A834B838A81883008F0D9C067
:1009E0008981843008F0D5C08981882F90E08130DA
:1009F000910509F43EC0823091051CF4892B49F021
:100A0000C8C08230910509F464C0039709F491C00D
:100A1000C0C08B818130B1F48AE390E0FC01808119
:100A2000482F8A81282F30E081E090E002C0880FB3
:100A3000991F2A95E2F7242F282B8AE390E0FC01E6
:100A40002083A7C08AE390E0FC018081482F8A813F
:100A5000282F30E081E090E002C0880F991F2A958E
:100A6000E2F78095242F28238AE390E0FC0120837D
:100A700090C08B818130B1F487E390E0FC018081EC
:100A8000482F8A81282F30E081E090E002C0880F53
:100A9000991F2A95E2F7242F282B87E390E0FC0189
:100AA000208377C087E390E0FC018081482F8A8112
:100AB000282F30E081E090E002C0880F991F2A952E
:100AC000E2F78095242F282387E390E0FC01208320
:100AD00060C08B818130B1F484E390E0FC018081BF
:100AE000482F8A81282F30E081E090E002C0880FF3
:100AF000991F2A95E2F7242F282B84E390E0FC012C
:100B0000208347C084E390E0FC018081482F8A81E4
:100B1000282F30E081E090E002C0880F991F2A95CD
:100B2000E2F78095242F282384E390E0FC012083C2
:100B300030C08B818130B1F481E390E0FC01808191
:100B4000482F8A81282F30E081E090E002C0880F92
:100B5000991F2A95E2F7242F282B81E390E0FC01CE
:100B6000208316C081E390E0FC018081482F8A81B8
:100B7000282F30E081E090E002C0880F991F2A956D
:100B8000E2F78095242F282381E390E0FC01208365
:100B9000000000000F900F900F90DF91CF9108950B
:100BA000CF93DF9300D01F92CDB7DEB789836A83DE
:100BB0004B838A81883008F0D9C08981843008F05D
:100BC000D5C08981882F90E08130910509F43EC01D
:100BD000823091051CF4892B49F0C8C08230910500
:100BE00009F464C0039709F491C0C0C08B818130BF
:100BF000B1F48BE390E0FC018081482F8A81282F9B
:100C000030E081E090E002C0880F991F2A95E2F75A
:100C1000242F282B8BE390E0FC012083A7C08BE3DB
:100C200090E0FC018081482F8A81282F30E081E00C
:100C300090E002C0880F991F2A95E2F78095242F33
:100C400028238BE390E0FC01208390C08B818130CE
:100C5000B1F488E390E0FC018081482F8A81282F3D
:100C600030E081E090E002C0880F991F2A95E2F7FA
:100C7000242F282B88E390E0FC01208377C088E3B1
:100C800090E0FC018081482F8A81282F30E081E0AC
:100C900090E002C0880F991F2A95E2F78095242FD3
:100CA000282388E390E0FC01208360C08B818130A1
:100CB000B1F485E390E0FC018081482F8A81282FE0
:100CC00030E081E090E002C0880F991F2A95E2F79A
:100CD000242F282B85E390E0FC01208347C085E387
:100CE00090E0FC018081482F8A81282F30E081E04C
:100CF00090E002C0880F991F2A95E2F78095242F73
:100D0000282385E390E0FC01208330C08B81813073
:100D1000B1F482E390E0FC018081482F8A81282F82
:100D200030E081E090E002C0880F991F2A95E2F739
:100D3000242F282B82E390E0FC01208316C082E35D
:100D400090E0FC018081482F8A81282F30E081E0EB
:100D500090E002C0880F991F2A95E2F78095242F12
:100D6000282382E390E0FC012083000000000F9024
:100D70000F900F90DF91CF910895CF93DF9300D024
:100D80001F92CDB7DEB78A836B8319828B8188303F
:100D900008F073C08A81843008F06FC08A81882F80
:100DA00090E08130910521F1823091051CF4892B6E
:100DB00041F063C08230910591F1039709F446C078
:100DC0005CC089E390E0FC018081882F90E02B815A
:100DD000222F30E002C0959587952A95E2F7817021
:100DE0009927892B19F081E0898347C0198245C072
:100DF00086E390E0FC018081882F90E02B81222FF8
:100E000030E002C0959587952A95E2F78170992781
:100E1000892B19F081E0898330C019822EC083E3C9
:100E200090E0FC018081882F90E02B81222F30E020
:100E300002C0959587952A95E2F781709927892BAD
:100E400019F081E0898319C0198217C080E390E00E
:100E5000FC018081882F90E02B81222F30E002C09E
:100E6000959587952A95E2F781709927892B19F036
:100E700081E0898301C01982000089810F900F9061
:100E80000F90DF91CF910895CF93DF9300D0CDB72E
:100E9000DEB789836A838981843050F58981882F00
:100EA00090E08130910591F0823091051CF4892BFE
:100EB00039F01EC08230910579F0039799F018C07F
:100EC0008AE390E02A81FC01208312C087E390E04E
:100ED0002A81FC0120830CC084E390E02A81FC017C
:100EE000208306C081E390E02A81FC01208300007A
:100EF00000000F900F90DF91CF910895CF93DF9373
:100F000000D0CDB7DEB789836A838981843050F5FC
:100F10008981882F90E08130910591F08230910590
:100F20001CF4892B39F01EC08230910579F00397AB
:100F300099F018C08BE390E02A81FC01208312C055
:100F400088E390E02A81FC0120830CC085E390E0D7
:100F50002A81FC01208306C082E390E02A81FC0103
:100F60002083000000000F900F90DF91CF91089533
:100F7000CF93DF9300D0CDB7DEB78A8319828A8101
:100F8000843050F58A81882F90E08130910591F06E
:100F9000823091051CF4892B39F01EC082309105F6
:100FA00079F0039799F018C089E390E0FC01808103
:100FB000898312C086E390E0FC01808189830CC0A4
:100FC00083E390E0FC018081898306C080E390E0A8
:100FD000FC0180818983000089810F900F90DF914F
:100FE000CF9108951F920F920FB60F9211248F93F5
:100FF0009F93CF93DF93CDB7DEB78091960081307A
:1010000079F480919400909195009093980080934A
:1010100097001092960010929500109294000DC0C7
:1010200080919600882349F48091940090919500D6
:10103000019690939500809394000000DF91CF91EA
:101040009F918F910F900FBE0F901F901895CF9387
:10105000DF93CDB7DEB740E062E083E00E94E304B7
:1010600085E590E0FC01208185E590E02360FC01AE
:1010700020838BE590E0FC0120818BE590E02068E7
:10108000FC0120830000DF91CF910895CF93DF937F
:10109000CDB7DEB781E0809396000000DF91CF915D
:1010A0000895CF93DF93CDB7DEB729970FB6F894A5
:1010B000DEBF0FBECDBF29E0E0E6F0E0CE01019635
:1010C000DC0101900D922A95E1F70E9427080000AB
:1010D00029960FB6F894DEBF0FBECDBFDF91CF913A
:1010E0000895CF93DF9300D0CDB7DEB71A8219826F
:1010F00020919700309198004CE3429FC001439F9C
:10110000900D11249A83898389819A810F900F9081
:10111000DF91CF910895CF93DF93CDB7DEB72E97B0
:101120000FB6F894DEBF0FBECDBF41E063E080E0B4
:101130000E94E30441E062E080E00E94E30480E07A
:1011400090E0A0EAB1E489839A83AB83BC8320E07A
:1011500030E04AE755E469817A818B819C810E9465
:10116000D628DC01CB018D839E83AF83B88720E036
:1011700030E040E85FE36D817E818F8198850E9439
:10118000722788232CF481E090E09A8789873FC0FA
:1011900020E03FEF4FE757E46D817E818F81988596
:1011A0000E94D12818164CF520E030E040E251E4CE
:1011B00069817A818B819C810E94D628DC01CB01D8
:1011C000BC01CD010E94F027DC01CB019A87898701
:1011D0000FC080E991E09C878B878B859C85019768
:1011E000F1F79C878B8789859A8501979A878987EC
:1011F00089859A85892B69F714C06D817E818F81DD
:1012000098850E94F027DC01CB019A878987898520
:101210009A859E878D878D859E850197F1F79E879C
:101220008D8741E060E081E00E94E30441E061E0FD
:1012300081E00E94E30441E062E081E00E94E30477
:1012400041E064E081E00E94E30483E30E943E0900
:1012500082E30E943E0988E20E943E098CE00E94DF
:101260003E0981E00E943E0900002E960FB6F894D8
:10127000DEBF0FBECDBFDF91CF9108950F931F93B7
:10128000CF93DF93CDB7DEB7C356D1090FB6F8942D
:10129000DEBF0FBECDBF9E012D593F4FF9018083A8
:1012A00040E063E080E00E94D0059E012B5A3F4F52
:1012B00080E090E0A0E8BFE3F90180839183A283FE
:1012C000B3838E01075A1F4FCE018B5A9F4F20E0E8
:1012D00030E04AE755E4FC016081718182819381AD
:1012E0000E94D628DC01CB01F80180839183A28380
:1012F000B383CE01875A9F4F20E030E040E85FE3A0
:10130000FC0160817181828193810E947227882310
:101310004CF4CE01835A9F4F21E030E0FC01318331
:1013200020836DC0CE01875A9F4F20E03FEF4FE7EB
:1013300057E4FC0160817181828193810E94D128F0
:1013400018160CF04AC0CE018B5A9F4F20E030E0B7
:1013500040E251E4FC0160817181828193810E94AD
:10136000D628DC01CB018E01035A1F4FBC01CD01F1
:101370000E94F027DC01CB01F8019183808324C017
:10138000CE01815A9F4F20E931E0FC013183208357
:10139000CE01815A9F4FFC01808191810197F1F725
:1013A0009E01215A3F4FF90191838083CE01835AD8
:1013B0009F4F9E01235A3F4FF901208131812150D7
:1013C0003109FC0131832083CE01835A9F4FFC01F8
:1013D00080819181892BA1F62CC08E01035A1F4F69
:1013E000CE01875A9F4FFC01608171818281938178
:1013F0000E94F027DC01CB01F80191838083CE01AC
:101400008F599F4F9E01235A3F4FF901208131810F
:10141000FC0131832083CE018F599F4FFC018081D5
:1014200091810197F1F79E012F593F4FF901918367
:10143000808341E062E080E00E94D0059E01295B4C
:101440003F4F80E090E0A0E8BFE3F9018083918303
:10145000A283B3838E01055B1F4FCE01895B9F4F33
:1014600020E030E04AE755E4FC016081718182812F
:1014700093810E94D628DC01CB01F80180839183FF
:10148000A283B383CE01855B9F4F20E030E040E82C
:101490005FE3FC0160817181828193810E947227E8
:1014A00088234CF4CE01815B9F4F21E030E0FC01AA
:1014B000318320836DC0CE01855B9F4F20E03FEFDD
:1014C0004FE757E4FC0160817181828193810E9422
:1014D000D12818160CF04AC0CE01895B9F4F20E03E
:1014E00030E040E251E4FC016081718182819381AE
:1014F0000E94D628DC01CB018E01015B1F4FBC018D
:10150000CD010E94F027DC01CB01F801918380839B
:1015100024C0CE018F5A9F4F20E931E0FC01318376
:101520002083CE018F5A9F4FFC01808191810197CA
:10153000F1F79E012F5A3F4FF90191838083CE012D
:10154000815B9F4F9E01215B3F4FF90120813181DB
:1015500021503109FC0131832083CE01815B9F4FF3
:10156000FC0180819181892BA1F62CC08E01015B49
:101570001F4FCE01855B9F4FFC016081718182818D
:1015800093810E94F027DC01CB01F80191838083D5
:10159000CE018D5A9F4F9E01215B3F4FF901208163
:1015A0003181FC0131832083CE018D5A9F4FFC0194
:1015B000808191810197F1F79E012D5A3F4FF901EA
:1015C00091838083CE018D599F4FFC018081882FAC
:1015D00090E095958795959587959595879595959F
:1015E00087958170482F60E081E00E94D005CE0190
:1015F0008D599F4FFC018081882F90E095958795AC
:1016000095958795959587959595879595958795C2
:101610008170482F61E081E00E94D005CE018D5994
:101620009F4FFC018081882F90E0082E892F000CAD
:10163000881F990B000C881F991F8170482F62E04A
:1016400081E00E94D005CE018D599F4FFC01808121
:10165000881F8827881F482F64E081E00E94D005FA
:1016600080E090E0A0E8BFE389AF9AAFABAFBCAF3A
:1016700020E030E04AE755E469AD7AAD8BAD9CAD32
:101680000E94D628DC01CB019E01235C3F4FF9016B
:1016900080839183A283B38320E030E040E85FE35E
:1016A000CE01CD96FC0160817181828193810E947F
:1016B000722788234CF4CE018F5B9F4F21E030E0EE
:1016C000FC013183208367C020E03FEF4FE757E400
:1016D000CE01CD96FC0160817181828193810E944F
:1016E000D12818160CF046C020E030E040E251E46A
:1016F00069AD7AAD8BAD9CAD0E94D628DC01CB01E3
:101700008E010F5B1F4FBC01CD010E94F027DC0151
:10171000CB01F8019183808324C0CE018D5B9F4F64
:1017200020E931E0FC0131832083CE018D5B9F4FA6
:10173000FC01808191810197F1F79E012D5B3F4F64
:10174000F90191838083CE018F5B9F4F9E012F5BB8
:101750003F4FF9012081318121503109FC01318352
:101760002083CE018F5B9F4FFC0180819181892B6B
:10177000A1F62BC08E010F5B1F4FCE01CD96FC0151
:1017800060817181828193810E94F027DC01CB010D
:10179000F80191838083CE018B5B9F4F9E012F5B6D
:1017A0003F4FF90120813181FC0131832083CE013B
:1017B0008B5B9F4FFC01808191810197F1F79E0126
:1017C0002B5B3F4FF9019183808340E062E080E032
:1017D0000E94D00580E090E0A0E8BFE38BA79CA723
:1017E000ADA7BEA720E030E04AE755E46BA57CA595
:1017F0008DA59EA50E94D628DC01CB018FA798ABB2
:10180000A9ABBAAB20E030E040E85FE36FA578A970
:1018100089A99AA90E94722788232CF481E090E07C
:101820009CAB8BAB3FC020E03FEF4FE757E46FA589
:1018300078A989A99AA90E94D12818164CF520E008
:1018400030E040E251E46BA57CA58DA59EA50E94E9
:10185000D628DC01CB01BC01CD010E94F027DC01C0
:10186000CB019CAB8BAB0FC080E991E09EAB8DAB05
:101870008DA99EA90197F1F79EAB8DAB8BA99CA971
:1018800001979CAB8BAB8BA99CA9892B69F714C0E2
:101890006FA578A989A99AA90E94F027DC01CB013C
:1018A0009CAB8BAB8BA99CA998AF8FAB8FA998AD44
:1018B0000197F1F798AF8FAB41E062E080E00E94C2
:1018C000D00580E090E0A0E8BFE38D8F9E8FAF8FC2
:1018D000B8A320E030E04AE755E46D8D7E8D8F8D12
:1018E00098A10E94D628DC01CB0189A39AA3ABA3BF
:1018F000BCA320E030E040E85FE369A17AA18BA1BE
:101900009CA10E94722788232CF481E090E09EA382
:101910008DA33FC020E03FEF4FE757E469A17AA1D4
:101920008BA19CA10E94D12818164CF520E030E034
:1019300040E251E46D8D7E8D8F8D98A10E94D62856
:10194000DC01CB01BC01CD010E94F027DC01CB0101
:101950009EA38DA30FC080E991E098A78FA38FA1CC
:1019600098A50197F1F798A78FA38DA19EA1019744
:101970009EA38DA38DA19EA1892B69F714C069A197
:101980007AA18BA19CA10E94F027DC01CB019EA330
:101990008DA38DA19EA19AA789A789A59AA5019734
:1019A000F1F79AA789A7CE018D599F4FFC0180813D
:1019B0008170482F60E081E00E94D005CE018D59F2
:1019C0009F4FFC018081882F90E0959587958170CD
:1019D000482F61E081E00E94D005CE018D599F4FD4
:1019E000FC018081882F90E0959587959595879546
:1019F0008170482F62E081E00E94D005CE018D59B0
:101A00009F4FFC018081882F90E095958795959553
:101A10008795959587958170482F64E081E00E94B5
:101A2000D00580E090E0A0E8BFE38F87988BA98B7A
:101A3000BA8B20E030E04AE755E46F8578898989E0
:101A40009A890E94D628DC01CB018B8B9C8BAD8BB5
:101A5000BE8B20E030E040E85FE36B897C898D89B4
:101A60009E890E94722788232CF481E090E0988F51
:101A70008F8B3FC020E03FEF4FE757E46B897C89B5
:101A80008D899E890E94D12818164CF520E030E0FF
:101A900040E251E46F85788989899A890E94D62825
:101AA000DC01CB01BC01CD010E94F027DC01CB01A0
:101AB000988F8F8B0FC080E991E09A8F898F898DE5
:101AC0009A8D0197F1F79A8F898F8F89988D019759
:101AD000988F8F8B8F89988D892B69F714C06B89AC
:101AE0007C898D899E890E94F027DC01CB01988F2B
:101AF0008F8B8F89988D9C8F8B8F8B8D9C8D019771
:101B0000F1F79C8F8B8F40E062E080E00E94D0056F
:101B100080E090E0A0E8BFE389839A83AB83BC8335
:101B200020E030E04AE755E469817A818B819C812D
:101B30000E94D628DC01CB018D839E83AF83B887BA
:101B400020E030E040E85FE36D817E818F81988501
:101B50000E94722788232CF481E090E09A8789877D
:101B60003FC020E03FEF4FE757E46D817E818F81DA
:101B700098850E94D12818164CF520E030E040E20C
:101B800051E469817A818B819C810E94D628DC0195
:101B9000CB01BC01CD010E94F027DC01CB019A876B
:101BA00089870FC080E991E09C878B878B859C8516
:101BB0000197F1F79C878B8789859A8501979A878A
:101BC000898789859A85892B69F714C06D817E8103
:101BD0008F8198850E94F027DC01CB019A87898745
:101BE00089859A859E878D878D859E850197F1F7DA
:101BF0009E878D870000CD59DF4F0FB6F894DEBF6A
:101C00000FBECDBFDF91CF911F910F9108950F931C
:101C10001F93CF93DF93CDB7DEB7C356D1090FB66D
:101C2000F894DEBF0FBECDBF9E012D593F4FF90185
:101C3000808341E063E080E00E94D0059E012B5A42
:101C40003F4F80E090E0A0E8BFE3F90180839183FB
:101C5000A283B3838E01075A1F4FCE018B5A9F4F29
:101C600020E030E04AE755E4FC0160817181828127
:101C700093810E94D628DC01CB01F80180839183F7
:101C8000A283B383CE01875A9F4F20E030E040E823
:101C90005FE3FC0160817181828193810E947227E0
:101CA00088234CF4CE01835A9F4F21E030E0FC01A1
:101CB000318320836DC0CE01875A9F4F20E03FEFD4
:101CC0004FE757E4FC0160817181828193810E941A
:101CD000D12818160CF04AC0CE018B5A9F4F20E035
:101CE00030E040E251E4FC016081718182819381A6
:101CF0000E94D628DC01CB018E01035A1F4FBC0184
:101D0000CD010E94F027DC01CB01F8019183808393
:101D100024C0CE01815A9F4F20E931E0FC0131837C
:101D20002083CE01815A9F4FFC01808191810197D0
:101D3000F1F79E01215A3F4FF90191838083CE0133
:101D4000835A9F4F9E01235A3F4FF90120813181D1
:101D500021503109FC0131832083CE01835A9F4FEA
:101D6000FC0180819181892BA1F62CC08E01035A40
:101D70001F4FCE01875A9F4FFC0160817181828184
:101D800093810E94F027DC01CB01F80191838083CD
:101D9000CE018F599F4F9E01235A3F4FF901208159
:101DA0003181FC0131832083CE018F599F4FFC018B
:101DB000808191810197F1F79E012F593F4FF901E1
:101DC0009183808341E062E080E00E94D0059E0123
:101DD000295B3F4F80E090E0A0E8BFE3F9018083FA
:101DE0009183A283B3838E01055B1F4FCE01895B74
:101DF0009F4F20E030E04AE755E4FC0160817181AB
:101E0000828193810E94D628DC01CB01F801808376
:101E10009183A283B383CE01855B9F4F20E030E0A6
:101E200040E85FE3FC0160817181828193810E94BF
:101E3000722788234CF4CE01815B9F4F21E030E074
:101E4000FC01318320836DC0CE01855B9F4F20E074
:101E50003FEF4FE757E4FC016081718182819381FC
:101E60000E94D12818160CF04AC0CE01895B9F4F02
:101E700020E030E040E251E4FC0160817181828128
:101E800093810E94D628DC01CB018E01015B1F4F9C
:101E9000BC01CD010E94F027DC01CB01F801918348
:101EA000808324C0CE018F5A9F4F20E931E0FC018E
:101EB00031832083CE018F5A9F4FFC018081918115
:101EC0000197F1F79E012F5A3F4FF90191838083CB
:101ED000CE01815B9F4F9E01215B3F4FF901208125
:101EE000318121503109FC0131832083CE01815B96
:101EF0009F4FFC0180819181892BA1F62CC08E011E
:101F0000015B1F4FCE01855B9F4FFC01608171819A
:101F1000828193810E94F027DC01CB01F80191833B
:101F20008083CE018D5A9F4F9E01215B3F4FF90167
:101F300020813181FC0131832083CE018D5A9F4F56
:101F4000FC01808191810197F1F79E012D5A3F4F4D
:101F5000F90191838083CE018D599F4FFC018081CF
:101F6000882F90E095958795959587959595879578
:101F7000959587958170482F60E081E00E94D0059B
:101F8000CE018D599F4FFC018081882F90E095955F
:101F90008795959587959595879595958795959529
:101FA00087958170482F61E081E00E94D005CE01C5
:101FB0008D599F4FFC018081882F90E0082E892F3A
:101FC000000C881F990B000C881F991F8170482FE7
:101FD00062E081E00E94D005CE018D599F4FFC0147
:101FE0008081881F8827881F482F64E081E00E9435
:101FF000D00580E090E0A0E8BFE389AF9AAFABAF37
:10200000BCAF20E030E04AE755E469AD7AAD8BAD76
:102010009CAD0E94D628DC01CB019E01235C3F4F82
:10202000F90180839183A283B38320E030E040E80C
:102030005FE3CE01CD96FC01608171818281938145
:102040000E94722788234CF4CE018F5B9F4F21E0C2
:1020500030E0FC013183208367C020E03FEF4FE791
:1020600057E4CE01CD96FC0160817181828193811C
:102070000E94D12818160CF046C020E030E040E263
:1020800051E469AD7AAD8BAD9CAD0E94D628DC01E0
:10209000CB018E010F5B1F4FBC01CD010E94F027C9
:1020A000DC01CB01F8019183808324C0CE018D5BDC
:1020B0009F4F20E931E0FC0131832083CE018D5B0D
:1020C0009F4FFC01808191810197F1F79E012D5B6B
:1020D0003F4FF90191838083CE018F5B9F4F9E011B
:1020E0002F5B3F4FF9012081318121503109FC01E3
:1020F00031832083CE018F5B9F4FFC0180819181D2
:10210000892BA1F62BC08E010F5B1F4FCE01CD9600
:10211000FC0160817181828193810E94F027DC0142
:10212000CB01F80191838083CE018B5B9F4F9E0191
:102130002F5B3F4FF90120813181FC0131832083E6
:10214000CE018B5B9F4FFC01808191810197F1F75C
:102150009E012B5B3F4FF9019183808340E062E059
:1021600080E00E94D00580E090E0A0E8BFE38BA76C
:102170009CA7ADA7BEA720E030E04AE755E46BA5D9
:102180007CA58DA59EA50E94D628DC01CB018FA73A
:1021900098ABA9ABBAAB20E030E040E85FE36FA5B5
:1021A00078A989A99AA90E94722788232CF481E032
:1021B00090E09CAB8BAB3FC020E03FEF4FE757E494
:1021C0006FA578A989A99AA90E94D12818164CF55B
:1021D00020E030E040E251E46BA57CA58DA59EA5F2
:1021E0000E94D628DC01CB01BC01CD010E94F02762
:1021F000DC01CB019CAB8BAB0FC080E991E09EABC7
:102200008DAB8DA99EA90197F1F79EAB8DAB8BA9E4
:102210009CA901979CAB8BAB8BA99CA9892B69F7D7
:1022200014C06FA578A989A99AA90E94F027DC019A
:10223000CB019CAB8BAB8BA99CA998AF8FAB8FA923
:1022400098AD0197F1F798AF8FAB41E062E080E085
:102250000E94D00580E090E0A0E8BFE38D8F9E8FC4
:10226000AF8FB8A320E030E04AE755E46D8D7E8D56
:102270008F8D98A10E94D628DC01CB0189A39AA357
:10228000ABA3BCA320E030E040E85FE369A17AA102
:102290008BA19CA10E94722788232CF481E090E0FE
:1022A0009EA38DA33FC020E03FEF4FE757E469A115
:1022B0007AA18BA19CA10E94D12818164CF520E090
:1022C00030E040E251E46D8D7E8D8F8D98A10E94AB
:1022D000D628DC01CB01BC01CD010E94F027DC0136
:1022E000CB019EA38DA30FC080E991E098A78FA397
:1022F0008FA198A50197F1F798A78FA38DA19EA113
:1023000001979EA38DA38DA19EA1892B69F714C06F
:1023100069A17AA18BA19CA10E94F027DC01CB01CD
:102320009EA38DA38DA19EA19AA789A789A59AA5F1
:102330000197F1F79AA789A7CE018D599F4FFC010C
:1023400080818170482F60E081E00E94D005CE013D
:102350008D599F4FFC018081882F90E0959587953E
:102360008170482F61E081E00E94D005CE018D5937
:102370009F4FFC018081882F90E0959587959595DA
:1023800087958170482F62E081E00E94D005CE01E0
:102390008D599F4FFC018081882F90E095958795FE
:1023A00095958795959587958170482F64E081E094
:1023B0000E94D00580E090E0A0E8BFE38F87988B73
:1023C000A98BBA8B20E030E04AE755E46F85788925
:1023D00089899A890E94D628DC01CB018B8B9C8B42
:1023E000AD8BBE8B20E030E040E85FE36B897C89F9
:1023F0008D899E890E94722788232CF481E090E0C9
:10240000988F8F8B3FC020E03FEF4FE757E46B89F9
:102410007C898D899E890E94D12818164CF520E070
:1024200030E040E251E46F85788989899A890E9479
:10243000D628DC01CB01BC01CD010E94F027DC01D4
:10244000CB01988F8F8B0FC080E991E09A8F898F95
:10245000898D9A8D0197F1F79A8F898F8F89988D41
:102460000197988F8F8B8F89988D892B69F714C06E
:102470006B897C898D899E890E94F027DC01CB01C4
:10248000988F8F8B8F89988D9C8F8B8F8B8D9C8D48
:102490000197F1F79C8F8B8F40E062E080E00E9413
:1024A000D00580E090E0A0E8BFE389839A83AB8306
:1024B000BC8320E030E04AE755E469817A818B8172
:1024C0009C810E94D628DC01CB018D839E83AF8343
:1024D000B88720E030E040E85FE36D817E818F8146
:1024E00098850E94722788232CF481E090E09A87D7
:1024F00089873FC020E03FEF4FE757E46D817E8141
:102500008F8198850E94D12818164CF520E030E084
:1025100040E251E469817A818B819C810E94D628B6
:10252000DC01CB01BC01CD010E94F027DC01CB0115
:102530009A8789870FC080E991E09C878B878B857C
:102540009C850197F1F79C878B8789859A850197F0
:102550009A87898789859A85892B69F714C06D8147
:102560007E818F8198850E94F027DC01CB019A87BC
:10257000898789859A859E878D878D859E85019718
:10258000F1F79E878D870000CD59DF4F0FB6F89485
:10259000DEBF0FBECDBFDF91CF911F910F91089588
:1025A000CF93DF9300D01F92CDB7DEB79B838A8392
:1025B00019820EC08981882F90E02A813B81820F89
:1025C000931FFC0180810E94070E89818F5F8983A0
:1025D0008981882F90E02A813B81820F931FFC0123
:1025E0008081882339F700000F900F900F90DF91C2
:1025F000CF910895CF93DF9300D01F92CDB7DEB770
:102600008A836B838A81882F90E08130910579F0ED
:10261000823091051CF4892B39F015C08230910568
:1026200051F0039761F00FC08B8189830CC08B81BF
:102630008054898308C08B818C56898304C08B8128
:102640008C5289830000898180680E943E090000C5
:102650000F900F900F90DF91CF910895CF93DF935C
:1026600000D000D0CDB7DEB789836A835C834B830B
:102670006A8189810E94FA128B819C810E94D0120A
:1026800000000F900F900F900F90DF91CF91089561
:10269000CF93DF93CDB7DEB762970FB6F894DEBF66
:1026A0000FBECDBF9A8B898B89899A894AE050E009
:1026B0009E012F5F3F4FB9010E944329CE01019631
:1026C0000E94D012000062960FB6F894DEBF0FBED3
:1026D000CDBFDF91CF910895CF93DF93CDB7DEB714
:1026E00081E00E943E090000DF91CF9108950F9391
:1026F0001F93CF93DF93CDB7DEB7CA5BD1090FB677
:10270000F894DEBF0FBECDBFCE018B559F4F26E1A3
:10271000FC01322F11923A95E9F78AEA90E09C8306
:102720008B831A821982EBC68EEE0E94FB009E01FB
:102730002B573F4F80E090E0A0E2B1E4F9018083A5
:102740009183A283B3838E0107571F4FCE018B570E
:102750009F4F2BEA3AEA4AEA50E4FC01608171811A
:10276000828193810E94D628DC01CB01F80180830D
:102770009183A283B3838E0103571F4FCE018B57E2
:102780009F4F20E030E040E850E4FC01608171811F
:10279000828193810E94D628DC01CB01F8018083DD
:1027A0009183A283B383CE0187579F4F20E030E00F
:1027B00040E85FE3FC0160817181828193810E9426
:1027C000722788233CF4CE018F569F4F21E0FC01F5
:1027D000208330C1CE0183579F4F20E03FEF4FE76A
:1027E00057E4FC0160817181828193810E94D1282C
:1027F00018160CF0D1C0CE018B579F4F20E030E06F
:102800004AE754E4FC0160817181828193810E94D6
:102810007727DC01CB019E012E563F4FF9018083C3
:102820009183A283B3838E010A561F4FCE018E5629
:102830009F4F20E030E04AE755E4FC016081718160
:10284000828193810E94D628DC01CB01F80180832C
:102850009183A283B383CE018A569F4F20E030E05C
:1028600040E85FE3FC0160817181828193810E9475
:10287000722788234CF4CE0186569F4F21E030E02A
:10288000FC01318320836DC0CE018A569F4F20E02A
:102890003FEF4FE757E4FC016081718182819381B2
:1028A0000E94D12818160CF04AC0CE018E569F4FB8
:1028B00020E030E040E251E4FC01608171818281DE
:1028C00093810E94D628DC01CB018E0106561F4F52
:1028D000BC01CD010E94F027DC01CB01F8019183FE
:1028E000808324C0CE0184569F4F20E931E0FC0153
:1028F00031832083CE0184569F4FFC0180819181DA
:102900000197F1F79E0124563F4FF901918380838F
:10291000CE0186569F4F9E0126563F4FF9012081DA
:10292000318121503109FC0131832083CE0186564B
:102930009F4FFC0180819181892BA1F67BC08E0184
:1029400006561F4FCE018A569F4FFC016081718150
:10295000828193810E94F027DC01CB01F8019183F1
:102960008083CE0182569F4F9E0126563F4FF9012C
:1029700020813181FC0131832083CE0182569F4F1B
:10298000FC01808191810197F1F79E0122563F4F12
:10299000F901918380834EC0CE0187579F4F20E07D
:1029A00030E04FE753E4FC016081718182819381C3
:1029B0000E94D12818166CF58E0100561F4FCE01CB
:1029C00083579F4FFC0160817181828193810E94B6
:1029D000F027DC01CB01F80191838083CE018E5575
:1029E0009F4F9E0120563F4FF90120813181FC010C
:1029F00031832083CE018E559F4FFC0180819181D0
:102A00000197F1F79E012E553F4FF9019183808385
:102A100028C08E010F561F4FCE0187579F4FFC01D4
:102A200060817181828193810E94F027DC01CB015A
:102A3000F8018083CE018C559F4F9E012F563F4F4A
:102A4000F9012081FC012083CE018C559F4FFC01B0
:102A50008081282F2A95F1F7CE018C559F4FFC01DC
:102A600020839B818981890F0E9449019E012B59F6
:102A70003F4F80E090E0A0E2B1E4F90180839183D0
:102A8000A283B3838E0107591F4FCE018B599F4FED
:102A90002BEA3AEA4AEA50E4FC01608171818281C2
:102AA00093810E94D628DC01CB01F80180839183B9
:102AB000A283B3838E0103591F4FCE018B599F4FC1
:102AC00020E030E040E850E4FC01608171818281C7
:102AD00093810E94D628DC01CB01F8018083918389
:102AE000A283B383CE0187599F4F20E030E040E8B6
:102AF0005FE3FC0160817181828193810E94722772
:102B000088233CF4CE018F589F4F21E0FC012083A5
:102B100030C1CE0183599F4F20E03FEF4FE757E48C
:102B2000FC0160817181828193810E94D1281816F5
:102B30000CF0D1C0CE018B599F4F20E030E04AE726
:102B400054E4FC0160817181828193810E94772726
:102B5000DC01CB019E012E583F4FF9018083918308
:102B6000A283B3838E010A581F4FCE018E589F4F08
:102B700020E030E04AE755E4FC0160817181828108
:102B800093810E94D628DC01CB01F80180839183D8
:102B9000A283B383CE018A589F4F20E030E040E803
:102BA0005FE3FC0160817181828193810E947227C1
:102BB00088234CF4CE0186589F4F21E030E0FC0181
:102BC000318320836DC0CE018A589F4F20E03FEFB4
:102BD0004FE757E4FC0160817181828193810E94FB
:102BE000D12818160CF04AC0CE018E589F4F20E015
:102BF00030E040E251E4FC01608171818281938187
:102C00000E94D628DC01CB018E0106581F4FBC0163
:102C1000CD010E94F027DC01CB01F8019183808374
:102C200024C0CE0184589F4F20E931E0FC0131835C
:102C30002083CE0184589F4FFC01808191810197B0
:102C4000F1F79E0124583F4FF90191838083CE0113
:102C500086589F4F9E0126583F4FF90120813181B0
:102C600021503109FC0131832083CE0186589F4FCA
:102C7000FC0180819181892BA1F67BC08E010658D1
:102C80001F4FCE018A589F4FFC0160817181828164
:102C900093810E94F027DC01CB01F80191838083AE
:102CA000CE0182589F4F9E0126583F4FF901208147
:102CB0003181FC0131832083CE0182589F4FFC017A
:102CC000808191810197F1F79E0122583F4FF901D0
:102CD000918380834EC0CE0187599F4F20E030E022
:102CE0004FE753E4FC0160817181828193810E94EE
:102CF000D12818166CF58E0100581F4FCE0183594C
:102D00009F4FFC0160817181828193810E94F02735
:102D1000DC01CB01F80191838083CE018E579F4F58
:102D20009E0120583F4FF90120813181FC01318300
:102D30002083CE018E579F4FFC01808191810197A6
:102D4000F1F79E012E573F4FF9019183808328C0F0
:102D50008E010F581F4FCE0187599F4FFC01608194
:102D60007181828193810E94F027DC01CB01F801FF
:102D70008083CE018C579F4F9E012F583F4FF90102
:102D80002081FC012083CE018C579F4FFC01808164
:102D9000282F2A95F1F7CE018C579F4FFC012083F5
:102DA0008FEE0E94BD009E012B5B3F4F80E090E0C4
:102DB000A0E2B1E4F90180839183A283B3838E0101
:102DC000075B1F4FCE018B5B9F4F2BEA3AEA4AEA23
:102DD00050E4FC0160817181828193810E94D62838
:102DE000DC01CB01F80180839183A283B3838E0140
:102DF000035B1F4FCE018B5B9F4F20E030E040E82C
:102E000050E4FC0160817181828193810E94D62807
:102E1000DC01CB01F80180839183A283B383CE01CF
:102E2000875B9F4F20E030E040E85FE3FC0160817A
:102E30007181828193810E94722788233CF4CE01A4
:102E40008F5A9F4F21E0FC01208330C1CE01835B6C
:102E50009F4F20E03FEF4FE757E4FC016081718115
:102E6000828193810E94D12818160CF0D1C0CE0126
:102E70008B5B9F4F20E030E04AE754E4FC01608127
:102E80007181828193810E947727DC01CB019E01B1
:102E90002E5A3F4FF90180839183A283B3838E0121
:102EA0000A5A1F4FCE018E5A9F4F20E030E04AE76A
:102EB00055E4FC0160817181828193810E94D62852
:102EC000DC01CB01F80180839183A283B383CE011F
:102ED0008A5A9F4F20E030E040E85FE3FC016081C8
:102EE0007181828193810E94722788234CF4CE01E4
:102EF000865A9F4F21E030E0FC01318320836DC072
:102F0000CE018A5A9F4F20E03FEF4FE757E4FC0184
:102F100060817181828193810E94D12818160CF002
:102F20004AC0CE018E5A9F4F20E030E040E251E48B
:102F3000FC0160817181828193810E94D628DC012D
:102F4000CB018E01065A1F4FBC01CD010E94F02714
:102F5000DC01CB01F8019183808324C0CE01845A27
:102F60009F4F20E931E0FC0131832083CE01845A58
:102F70009F4FFC01808191810197F1F79E01245AB6
:102F80003F4FF90191838083CE01865A9F4F9E0166
:102F9000265A3F4FF9012081318121503109FC012E
:102FA00031832083CE01865A9F4FFC01808191811D
:102FB000892BA1F67BC08E01065A1F4FCE018A5A7B
:102FC0009F4FFC0160817181828193810E94F02773
:102FD000DC01CB01F80191838083CE01825A9F4F9F
:102FE0009E01265A3F4FF90120813181FC01318336
:102FF0002083CE01825A9F4FFC01808191810197ED
:10300000F1F79E01225A3F4FF901918380834EC010
:10301000CE01875B9F4F20E030E04FE753E4FC0197
:1030200060817181828193810E94D12818166CF58C
:103030008E01005A1F4FCE01835B9F4FFC016081C0
:103040007181828193810E94F027DC01CB01F8011C
:1030500091838083CE018E599F4F9E01205A3F4F0E
:10306000F90120813181FC0131832083CE018E5909
:103070009F4FFC01808191810197F1F79E012E59AC
:103080003F4FF9019183808328C08E010F5A1F4F53
:10309000CE01875B9F4FFC016081718182819381AA
:1030A0000E94F027DC01CB01F8018083CE018C590E
:1030B0009F4F9E012F5A3F4FF9012081FC01208331
:1030C000CE018C599F4FFC018081282F2A95F1F762
:1030D000CE018C599F4FFC0120830E947C01482F18
:1030E0009E012B553F4F89819A81820F931FFC01CE
:1030F000408380E090E0A0E2B1E48DA39EA3AFA363
:10310000B8A72BEA3AEA4AEA50E46DA17EA18FA162
:1031100098A50E94D628DC01CB0189A79AA7ABA766
:10312000BCA720E030E040E850E46DA17EA18FA173
:1031300098A50E94D628DC01CB018DA79EA7AFA73A
:10314000B8AB20E030E040E85FE369A57AA58BA545
:103150009CA50E94722788231CF481E089ABC6C01D
:1031600020E03FEF4FE757E46DA57EA58FA598A916
:103170000E94D12818160CF07BC020E030E04AE70E
:1031800054E46DA17EA18FA198A50E947727DC0150
:10319000CB018AAB9BABACABBDAB20E030E04AE7E8
:1031A00055E46AA97BA98CA99DA90E94D628DC01B7
:1031B000CB018EAB9FABA8AFB9AF20E030E040E8C9
:1031C0005FE36EA97FA988AD99AD0E94722788231D
:1031D0002CF481E090E09BAF8AAF3FC020E03FEF4E
:1031E0004FE757E46EA97FA988AD99AD0E94D12819
:1031F00018164CF520E030E040E251E46AA97BA9C2
:103200008CA99DA90E94D628DC01CB01BC01CD016F
:103210000E94F027DC01CB019BAF8AAF0FC080E991
:1032200091E09DAF8CAF8CAD9DAD0197F1F79DAF57
:103230008CAF8AAD9BAD01979BAF8AAF8AAD9BAD3A
:10324000892B69F753C06EA97FA988AD99AD0E94FB
:10325000F027DC01CB019BAF8AAF8AAD9BAD9FAF5E
:103260008EAF8EAD9FAD0197F1F79FAF8EAF3EC091
:1032700020E030E04FE753E469A57AA58BA59CA533
:103280000E94D12818164CF58E01005C1F4F6DA5C9
:103290007EA58FA598A90E94F027DC01CB01F8013B
:1032A00091838083CE018E5B9F4F9E01205C3F4FB8
:1032B000F90120813181FC0131832083CE018E5BB5
:1032C0009F4FFC01808191810197F1F79E012E5B58
:1032D0003F4FF901918380831CC069A57AA58BA516
:1032E0009CA50E94F027DC01CB0189ABCE018C5B51
:1032F0009F4F29A9FC012083CE018C5B9F4FFC01CD
:103300008081282F2A95F1F7CE018C5B9F4FFC011D
:1033100020830E943C0180E090E0A0E2B1E48D8334
:103320009E83AF83B8872BEA3AEA4AEA50E46D817C
:103330007E818F8198850E94D628DC01CB01898708
:103340009A87AB87BC8720E030E040E850E46D818D
:103350007E818F8198850E94D628DC01CB018D87E4
:103360009E87AF87B88B20E030E040E85FE3698557
:103370007A858B859C850E94722788231CF481E0C6
:10338000898BB2C020E03FEF4FE757E46D857E8523
:103390008F8598890E94D12818160CF07BC020E0F8
:1033A00030E04AE754E46D817E818F8198850E94E8
:1033B0007727DC01CB018A8B9B8BAC8BBD8B20E00C
:1033C00030E04AE755E46A897B898C899D890E94AF
:1033D000D628DC01CB018E8B9F8BA88FB98F20E084
:1033E00030E040E85FE36E897F89888D998D0E9487
:1033F000722788232CF481E090E09B8F8A8F3FC056
:1034000020E03FEF4FE757E46E897F89888D998DE3
:103410000E94D12818164CF520E030E040E251E43B
:103420006A897B898C899D890E94D628DC01CB0121
:10343000BC01CD010E94F027DC01CB019B8F8A8F5C
:103440000FC080E991E09D8F8C8F8C8D9D8D0197B1
:10345000F1F79D8F8C8F8A8D9B8D01979B8F8A8F23
:103460008A8D9B8D892B69F73FC06E897F89888DF6
:10347000998D0E94F027DC01CB019B8F8A8F8A8D6A
:103480009B8D9F8F8E8F8E8D9F8D0197F1F79F8FD4
:103490008E8F2AC020E030E04FE753E469857A85BB
:1034A0008B859C850E94D1281816ACF46D857E858D
:1034B0008F8598890E94F027DC01CB0199A388A30E
:1034C00088A199A19BA38AA38AA19BA10197F1F747
:1034D0009BA38AA30FC069857A858B859C850E94F2
:1034E000F027DC01CB01898B89898CA38CA18A957B
:1034F000F1F78CA389819A8101969A8389838981C6
:103500009A8146970CF410C9CE018B559F4FFC0150
:103510008081882F90E0382F2227CE018B559F4F36
:10352000FC018181882F90E0822B932B90939A004D
:1035300080939900CE018B559F4FFC018281882F8B
:1035400090E0382F2227CE018B559F4FFC018381BD
:10355000882F90E0822B932B90939C0080939B006C
:10356000CE018B559F4FFC018481882F90E0382F2E
:103570002227CE018B559F4FFC018581882F90E03B
:10358000822B932B90939E0080939D00CE018B55B0
:103590009F4FFC018681882F90E0382F2227CE0193
:1035A0008B559F4FFC018781882F90E0822B932BB6
:1035B0009093AA008093A900CE018B559F4FFC01E8
:1035C0008085882F90E0382F2227CE018B559F4F82
:1035D000FC018185882F90E0822B932B9093AC0087
:1035E0008093AB00CE018B559F4FFC018285882FC5
:1035F00090E0382F2227CE018B559F4FFC01838509
:10360000882F90E0822B932B9093AE008093AD0097
:10361000CE018B559F4FFC018485882F90E0382F79
:103620002227CE018B559F4FFC018585882F90E086
:10363000822B932B9093A00080939F00CE018B55FB
:103640009F4FFC018685882F90E0382F2227CE01DE
:103650008B559F4FFC018785882F90E0822B932B01
:103660009093A2008093A100CE018B559F4FFC0147
:103670008089882F90E0382F2227CE018B559F4FCD
:10368000FC018189882F90E0822B932B9093A400DA
:103690008093A300CE018B559F4FFC018289882F18
:1036A00090E0382F2227CE018B559F4FFC01838954
:1036B000882F90E0822B932B9093A6008093A500F7
:1036C000CE018B559F4FFC018489882F90E0382FC5
:1036D0002227CE018B559F4FFC018589882F90E0D2
:1036E000822B932B9093A8008093A7000000C654D0
:1036F000DF4F0FB6F894DEBF0FBECDBFDF91CF9185
:103700001F910F910895CF93DF93CDB7DEB76697E2
:103710000FB6F894DEBF0FBECDBF84E389831C8A49
:103720001D8A1E8A1A821B821C821D828EEE0E94B6
:103730007F000E94962284EF0E9449010E949622F7
:1037400089810E9449010E9496220E943C0180E0EA
:1037500090E0A0EAB0E48E839F83A887B98720E039
:1037600030E04AE755E46E817F81888599850E9423
:10377000D628DC01CB018A879B87AC87BD8720E0F8
:1037800030E040E85FE36A857B858C859D850E94FB
:10379000722788232CF481E090E09F878E873FC0BA
:1037A00020E03FEF4FE757E46A857B858C859D8558
:1037B0000E94D12818164CF520E030E040E251E498
:1037C0006E817F81888599850E94D628DC01CB0196
:1037D000BC01CD010E94F027DC01CB019F878E87C1
:1037E0000FC080E991E0998B888B8889998901972E
:1037F000F1F7998B888B8E859F8501979F878E87A0
:103800008E859F85892B69F714C06A857B858C8599
:103810009D850E94F027DC01CB019F878E878E85D6
:103820009F859B8B8A8B8A899B890197F1F79B8B5C
:103830008A8B8EEE0E94FB000E94962286EF0E94E9
:1038400049010E9496228FEE0E94BD000E9496229E
:103850000E947C018C8B0E9496220E943C010E9457
:1038600096228EEE0E94FB000E94962287EF0E9415
:1038700049010E9496228FEE0E94BD000E9496226E
:103880000E947C018D8B0E9496220E943C010E9426
:1038900096228EEE0E94FB000E94962288EF0E94E4
:1038A00049010E9496228FEE0E94BD000E9496223E
:1038B0000E947C018E8B0E9496220E943C018C8982
:1038C000882F90E0382F22278D89882F90E0820F53
:1038D000931F092E000CAA0BBB0BBC01CD016696F1
:1038E0000FB6F894DEBF0FBECDBFDF91CF91089524
:1038F000CF93DF93CDB7DEB761970FB6F894DEBFF5
:103900000FBECDBF8EE28983198A188A8EEE0E947F
:103910007F000E94962284EF0E9449010E94962215
:1039200089810E9449010E9496220E943C0180E008
:1039300090E0A0EAB0E48A839B83AC83BD8320E05F
:1039400030E04AE755E46A817B818C819D810E9449
:10395000D628DC01CB018E839F83A887B98720E01E
:1039600030E040E85FE36E817F81888599850E9421
:10397000722788232CF481E090E09B878A873FC0E0
:1039800020E03FEF4FE757E46E817F81888599857E
:103990000E94D12818164CF520E030E040E251E4B6
:1039A0006A817B818C819D810E94D628DC01CB01BC
:1039B000BC01CD010E94F027DC01CB019B878A87E7
:1039C0000FC080E991E09D878C878C859D8501974C
:1039D000F1F79D878C878A859B8501979B878A87CE
:1039E0008A859B85892B69F714C06E817F818885C4
:1039F00099850E94F027DC01CB019B878A878A8505
:103A00009B859F878E878E859F850197F1F79F877E
:103A10008E878EEE0E94FB000E94962286EF0E9407
:103A200049010E9496228FEE0E94BD000E949622BC
:103A30000E947C01888B0E9496220E943C010E9479
:103A400096228EEE0E94FB000E94962287EF0E9433
:103A500049010E9496228FEE0E94BD000E9496228C
:103A60000E947C01898B0E9496220E943C018889D9
:103A7000882F90E0382F22278989882F90E0820FA5
:103A8000931F092E000CAA0BBB0BBC01CD01619644
:103A90000FB6F894DEBF0FBECDBFDF91CF91089572
:103AA000CF92DF92EF92FF920F931F93CF93DF930A
:103AB00000D000D0CDB7DEB719821A821B821C82DB
:103AC0000E94781CDC01CB018093BB009093BC006A
:103AD000A093BD00B093BE002091BB003091BC000C
:103AE0004091BD005091BE008091AD009091AE001C
:103AF000CC01A0E0B0E079018A01E81AF90A0A0BCA
:103B00001B0BD801C701BC01CD010E9421286B010C
:103B10007C018091AB009091AC00CC01A0E0B0E0C2
:103B2000BC01CD010E941F28DC01CB0120E030E068
:103B300040E057E4BC01CD010E947727DC01CB01B6
:103B40009C01AD01C701B6010E94D628DC01CB0162
:103B5000BC01CD010E94E927DC01CB018093AF00BD
:103B60009093B000A093B100B093B2008091A500F3
:103B70009091A600092E000CAA0BBB0BBC01CD0135
:103B80000E942128DC01CB0120E030E040E055E438
:103B9000BC01CD010E94D628DC01CB016C017D0166
:103BA0008091A7009091A8009C01990F440B550BA0
:103BB0008091AF009091B000A091B100B091B2009F
:103BC000820F931FA41FB51FBC01CD010E942128A5
:103BD000DC01CB019C01AD01C701B6010E94772732
:103BE000DC01CB01BC01CD010E94E927DC01CB0146
:103BF0008093B3009093B400A093B500B093B60047
:103C00002091AF003091B0004091B1005091B200CE
:103C10008091B3009091B400A091B500B091B6002E
:103C2000820F931FA41FB51F8093B7009093B80015
:103C3000A093B900B093BA008091B7009091B800FA
:103C4000A091B900B091BA000896A11DB11DBC01A8
:103C5000CD010E942128DC01CB0120E030E040E8CA
:103C600051E4BC01CD010E947727DC01CB0189839F
:103C70009A83AB83BC8320E030E040E251E4698169
:103C80007A818B819C810E947727DC01CB01BC016A
:103C9000CD010E94E927DC01CB01BC01CD010F90D1
:103CA0000F900F900F90DF91CF911F910F91FF9088
:103CB000EF90DF90CF900895CF92DF92EF92FF9236
:103CC0000F931F93CF93DF93CDB7DEB70E94831B73
:103CD000DC01CB018093CF009093D000A093D10062
:103CE000B093D2002091BB003091BC004091BD0048
:103CF0005091BE008091AD009091AE00CC01A0E04B
:103D0000B0E079018A01E81AF90A0A0B1B0BD80105
:103D1000C701BC01CD010E9421286B017C0180916B
:103D2000AB009091AC00CC01A0E0B0E0BC01CD01B3
:103D30000E941F28DC01CB0120E030E040E057E486
:103D4000BC01CD010E947727DC01CB019C01AD01B4
:103D5000C701B6010E94D628DC01CB01BC01CD0110
:103D60000E94E927DC01CB018093AF009093B00063
:103D7000A093B100B093B2008091A5009091A600ED
:103D8000092E000CAA0BBB0BBC01CD010E942128FF
:103D9000DC01CB0120E030E040E055E4BC01CD0186
:103DA0000E94D628DC01CB016C017D018091A70027
:103DB0009091A8009C01990F440B550B8091AF0086
:103DC0009091B000A091B100B091B200820F931F0A
:103DD000A41FB51FBC01CD010E942128DC01CB012D
:103DE0009C01AD01C701B6010E947727DC01CB0120
:103DF000BC01CD010E94E927DC01CB018093B30017
:103E00009093B400A093B500B093B6002091AF009A
:103E10003091B0004091B1005091B2008091B30058
:103E20009091B400A091B500B091B600820F931F9D
:103E3000A41FB51F8093B7009093B800A093B9005A
:103E4000B093BA008091B7009091B800A091B900EA
:103E5000B091BA00805A9F40A109B1098093C70070
:103E60009093C800A093C900B093CA008091A100AC
:103E70009091A200092E000CAA0BBB0BBC01CD0136
:103E80000E9421286B017C012091C7003091C8005D
:103E90004091C9005091CA008091C7009091C8001C
:103EA000A091C900B091CA00BC01CD010E94922628
:103EB000DC01CB01BC01CD010E942128DC01CB013A
:103EC00020E030E040E855E4BC01CD010E947727B6
:103ED000DC01CB019C01AD01C701B6010E94D628CF
:103EE000DC01CB0120E030E040E055E4BC01CD0135
:103EF0000E947727DC01CB01BC01CD010E94E9279C
:103F0000DC01CB018093AF009093B000A093B1008F
:103F1000B093B20080919B0090919C009C01990FFE
:103F2000440B550B8091C7009091C800A091C90027
:103F3000B091CA00BC01CD010E949226DC01CB01E8
:103F4000BC01CD010E942128DC01CB0120E030E042
:103F500040E055E4BC01CD010E947727DC01CB0194
:103F6000BC01CD010E94E927DC01CB018093B300A5
:103F70009093B400A093B500B093B6002091AF0029
:103F80003091B0004091B1005091B2008091B300E7
:103F90009091B400A091B500B091B600820F931F2C
:103FA000A41FB51F8093BF009093C000A093C100D1
:103FB000B093C2008091990090919A00880F991F48
:103FC000880F991F9C01990F440B550B8091BF00DE
:103FD0009091C000A091C100B091C200820F931FC8
:103FE000A41FB51F0296A11DB11DBB231CF403968F
:103FF000A11DB11DB595A79597958795B595A795E1
:10400000979587958093C3009093C400A093C500B3
:10401000B093C60080919D0090919E009C01990FE5
:10402000440B550B8091C7009091C800A091C90026
:10403000B091CA00BC01CD010E949226DC01CB01E7
:10404000BC01CD010E942128DC01CB0120E030E041
:1040500040E056E4BC01CD010E947727DC01CB0192
:10406000BC01CD010E94E927DC01CB018093AF00A8
:104070009093B000A093B100B093B20080919F00E4
:104080009091A000092E000CAA0BBB0BBC01CD0126
:104090000E9421286B017C012091C7003091C8004B
:1040A0004091C9005091CA008091C7009091C8000A
:1040B000A091C900B091CA00BC01CD010E94922616
:1040C000DC01CB01BC01CD010E942128DC01CB0128
:1040D00020E030E040E855E4BC01CD010E947727A4
:1040E000DC01CB019C01AD01C701B6010E94D628BD
:1040F000DC01CB0120E030E040E857E4BC01CD0119
:104100000E947727DC01CB01BC01CD010E94E92789
:10411000DC01CB018093B3009093B400A093B50071
:10412000B093B6002091AF003091B0004091B10043
:104130005091B2008091B3009091B400A091B5006D
:10414000B091B600820F931FA41FB51F0296A11D48
:10415000B11DBC01CD010E942128DC01CB0120E072
:1041600030E040E850E4BC01CD010E947727DC013B
:10417000CB01BC01CD010E94E927DC01CB0180937A
:10418000BF009093C000A093C100B093C200809183
:10419000A9009091AA009C0140E050E08091BF00EE
:1041A0009091C000A091C100B091C2009058AF4F53
:1041B000BF4FBC01CD010E949226DC01CB01BC01A6
:1041C000CD010E941F28DC01CB0120E030E040E05F
:1041D00057E4BC01CD010E947727DC01CB01BC0173
:1041E000CD010E94F027DC01CB018093D300909396
:1041F000D400A093D500B093D6008091CF009091C9
:10420000D000A091D100B091D2009C01AD0180916D
:10421000C3009091C400A091C500B091C600281BB6
:10422000390B4A0B5B0B80E593ECDC010E94E32623
:10423000DC01CB018093D7009093D800A093D900E4
:10424000B093DA008091D7009091D800A091D90066
:10425000B091DA00BB231CF18091D7009091D80077
:10426000A091D900B091DA00880F991FAA1FBB1F37
:104270002091D3003091D4004091D5005091D600C8
:10428000BC01CD010E94A226DA01C9018093CB00B6
:104290009093CC00A093CD00B093CE0022C080912B
:1042A000D7009091D800A091D900B091DA00209168
:1042B000D3003091D4004091D5005091D600BC017C
:1042C000CD010E94A226DA01C901880F991FAA1FF9
:1042D000BB1F8093CB009093CC00A093CD00B093F4
:1042E000CE008091CB009091CC00A091CD00B091F8
:1042F000CE00BC01CD010E942128DC01CB0120E0D1
:1043000030E040E853E4BC01CD010E947727DC0196
:10431000CB016C017D018091CB009091CC00A091EC
:10432000CD00B091CE00BC01CD010E942128DC015E
:10433000CB0120E030E040E853E4BC01CD010E9415
:104340007727DC01CB019C01AD01C701B6010E94BA
:10435000D628DC01CB01BC01CD010E94E927DC019C
:10436000CB018093AF009093B000A093B100B093C5
:10437000B2002091AF003091B0004091B100509157
:10438000B2008EED9BE0DC010E94E326DC01CB0154
:10439000BC01CD010E942128DC01CB0120E030E0EE
:1043A00040E857E4BC01CD010E947727DC01CB0136
:1043B000BC01CD010E94E927DC01CB018093AF0055
:1043C0009093B000A093B100B093B2002091CB00C5
:1043D0003091CC004091CD005091CE0083E493EE1B
:1043E000DC010E94F126DC01CB01BC01CD010E9461
:1043F0002128DC01CB0120E030E040E857E4BC019B
:10440000CD010E947727DC01CB01BC01CD010E94C8
:10441000E927DC01CB018093B3009093B400A09313
:10442000B500B093B6008091CB009091CC00A091E4
:10443000CD00B091CE00BC01CD010E9421286B01BE
:104440007C012091AF003091B0004091B1005091BB
:10445000B2008091B3009091B400A091B500B091EA
:10446000B600820F931FA41FB51F8153914FAF4F0A
:10447000BF4FBC01CD010E942128DC01CB0120E00F
:1044800030E040E851E4BC01CD010E947727DC0117
:10449000CB019C01AD01C701B6010E940627DC01DA
:1044A000CB01BC01CD010E94E927DC01CB01809347
:1044B000CB009093CC00A093CD00B093CE00809120
:1044C000CB009091CC00A091CD00B091CE0024E61D
:1044D00030E040E050E0BC01CD010E94C426DA018A
:1044E000C9018093CB009093CC00A093CD00B093F2
:1044F000CE008091CB009091CC00A091CD00B091E6
:10450000CE00BC01CD01DF91CF911F910F91FF90A3
:10451000EF90DF90CF900895CF93DF93CDB7DEB7C4
:104520000E9477130000DF91CF910895CF93DF931E
:10453000CDB7DEB7A0970FB6F894DEBF0FBECDBFE4
:1045400080E090E0A0E2B1E489839A83AB83BC83EE
:104550002BEA3AEA4AEA50E469817A818B819C81AC
:104560000E94D628DC01CB018D839E83AF83B88760
:1045700020E030E040E850E469817A818B819C81C1
:104580000E94D628DC01CB0189879A87AB87BC873C
:1045900020E030E040E85FE36D817E818F81988587
:1045A0000E94722788231CF481E08D87B2C020E02E
:1045B0003FEF4FE757E469857A858B859C850E949C
:1045C000D12818160CF07BC020E030E04AE754E414
:1045D00069817A818B819C810E947727DC01CB01E4
:1045E0008E879F87A88BB98B20E030E04AE755E49F
:1045F0006E857F85888999890E94D628DC01CB0148
:104600008A8B9B8BAC8BBD8B20E030E040E85FE376
:104610006A897B898C899D890E94722788232CF462
:1046200081E090E09F8B8E8B3FC020E03FEF4FE713
:1046300057E46A897B898C899D890E94D128181644
:104640004CF520E030E040E251E46E857F858889BA
:1046500099890E94D628DC01CB01BC01CD010E94C2
:10466000F027DC01CB019F8B8E8B0FC080E991E09E
:10467000998F888F888D998D0197F1F7998F888F01
:104680008E899F8901979F8B8E8B8E899F89892B1D
:1046900069F73FC06A897B898C899D890E94F027D0
:1046A000DC01CB019F8B8E8B8E899F899B8F8A8F9C
:1046B0008A8D9B8D0197F1F79B8F8A8F2AC020E00E
:1046C00030E04FE753E46D817E818F8198850E94B1
:1046D000D1281816ACF469857A858B859C850E9453
:1046E000F027DC01CB019D8F8C8F8C8D9D8D9F8F52
:1046F0008E8F8E8D9F8D0197F1F79F8F8E8F0FC0BC
:104700006D817E818F8198850E94F027DC01CB012D
:104710008D878D8588A388A18A95F1F788A30000ED
:10472000A0960FB6F894DEBF0FBECDBFDF91CF913C
:104730000895CF93DF9300D000D0CDB7DEB7698363
:104740007A838B839C8367E081E00E94FA128981DF
:104750009A81AB81BC81883E9340A105B10528F0C8
:1047600089E690E00E94D01238C089819A81AB819D
:10477000BC8184369105A105B10528F089819A8113
:104780000E9448132AC089819A81AB81BC810A9713
:10479000A105B10590F089819A81AB81BC818436F5
:1047A0009105A105B10548F489819A810E944813B9
:1047B0008DE690E00E94D01210C089819A81AB8171
:1047C000BC810A97A105B10540F489819A810E94B4
:1047D00048138FE690E00E94D01200000F900F90D7
:1047E0000F900F90DF91CF910895CF93DF9300D07A
:1047F00000D0CDB7DEB769837A838B839C8368E072
:1048000080E00E94FA1289819A81AB81BC8180315B
:104810009742A105B10548F089E690E00E94D012C8
:104820008DE690E00E94D0125DC089819A81AB81B3
:10483000BC81883E9340A105B10570F089819A81C1
:10484000AB81BC8180319742A105B10528F48981F3
:104850009A810E94481346C089819A81AB81BC81AC
:1048600084369105A105B10590F089819A81AB81CB
:10487000BC81883E9340A105B10548F489819A81A5
:104880000E9448138DE690E00E94D0122BC08981CF
:104890009A81AB81BC810A97A105B10590F089810D
:1048A0009A81AB81BC8184369105A105B10548F49C
:1048B00089819A810E9448138FE690E00E94D0126D
:1048C00011C089819A81AB81BC810A97A105B1058C
:1048D00048F489819A810E94481382E790E00E94FF
:1048E000D01200C000000F900F900F900F90DF913A
:1048F000CF910895CF93DF93CDB7DEB741E063E06A
:1049000083E00E94E30441E064E083E00E94E3046A
:1049100041E061E080E00E94E30440E063E083E086
:104920000E94D00540E064E083E00E94D00540E0B2
:1049300061E080E00E94D0050000DF91CF910895F2
:10494000CF93DF93CDB7DEB740E063E083E00E9412
:10495000D00540E064E083E00E94D0050000DF91D4
:10496000CF910895CF93DF93CDB7DEB741E063E0F9
:1049700083E00E94D00541E064E083E00E94D0051E
:104980000000DF91CF910895CF93DF93CDB7DEB7CD
:1049900028970FB6F894DEBF0FBECDBF69837A8328
:1049A0008B839C832D833E834F83588789819A8193
:1049B000AB81BC814497A105B105D0F089819A8172
:1049C000AB81BC818997A105B10590F48D819E8151
:1049D000AF81B88588359240A105B10548F08D8139
:1049E0009E81AF81B88581329340A105B10518F051
:1049F0000E94B22402C00E94A024000028960FB694
:104A0000F894DEBF0FBECDBFDF91CF910895CF9355
:104A1000DF93CDB7DEB766970FB6F894DEBF0FBE53
:104A2000CDBF19821A821B821C821D821E821F82A8
:104A300018860E947A240E948B080E9449000E94D6
:104A40008C2246E750E060E080E00E942E134FE7A2
:104A500050E06DE080E00E942E1343E850E060E0FB
:104A600081E00E942E134BE850E06BE081E00E9451
:104A70002E130E94501DDC01CB0189839A83AB83E6
:104A8000BC830E945C1EDC01CB018D839E83AF83BF
:104A9000B88789819A81AB81BC81BC01CD010E941C
:104AA00099238D819E81AF81B885BC01CD010E9483
:104AB000F5232D813E814F81588589819A81AB8173
:104AC000BC81BC01CD010E94C42480E090E0AAE733
:104AD000B4E489879A87AB87BC8720E030E04AE757
:104AE00055E469857A858B859C850E94D628DC01F2
:104AF000CB018D879E87AF87B88B20E030E040E800
:104B00005FE36D857E858F8598890E947227882353
:104B10002CF481E090E09A8B898B3FC020E03FEF3E
:104B20004FE757E46D857E858F8598890E94D1284F
:104B300018164CF520E030E040E251E469857A85B2
:104B40008B859C850E94D628DC01CB01BC01CD0160
:104B50000E94F027DC01CB019A8B898B0FC080E982
:104B600091E09C8B8B8B8B899C890197F1F79C8BB7
:104B70008B8B89899A8901979A8B898B89899A89E4
:104B8000892B69F714C06D857E858F8598890E9471
:104B9000F027DC01CB019A8B898B89899A899E8BBE
:104BA0008D8B8D899E890197F1F79E8B8D8B61CFBF
:104BB000CF93DF9300D000D0CDB7DEB769837A837F
:104BC0008B839C8367E080E00E94FA1289819A813E
:104BD000AB81BC81803A9648A140B10528F089811B
:104BE0009A810E94481377C089819A81AB81BC81E8
:104BF00080319742A105B10588F089819A81AB8106
:104C0000BC81803A9648A140B10540F489819A81DF
:104C10000E94481380E20E94070E5DC089819A813C
:104C2000AB81BC81883E9340A105B10588F08981A4
:104C30009A81AB81BC8180319742A105B10540F4D6
:104C400089819A810E94481380E20E94070E43C026
:104C500089819A81AB81BC8184369105A105B1051A
:104C600088F089819A81AB81BC81883E9340A105FF
:104C7000B10540F489819A810E94481380E20E9424
:104C8000070E29C089819A81AB81BC810A97A10551
:104C9000B10588F089819A81AB81BC818436910508
:104CA000A105B10540F489819A810E94481380E2F0
:104CB0000E94070E10C089819A81AB81BC810A973E
:104CC000A105B10540F489819A810E94481380E2D0
:104CD0000E94070E00C000000F900F900F900F90E1
:104CE000DF91CF910895CF93DF93CDB7DEB741E049
:104CF00066E082E00E94E30440E066E082E00E9419
:104D0000D0050000DF91CF910895CF93DF93CDB709
:104D1000DEB741E066E082E00E94D0050000DF914E
:104D2000CF910895DB018F939F930E94E326BF915B
:104D3000AF91A29F800D911DA39F900DB29F900DEA
:104D400011240895A1E21A2EAA1BBB1BFD010DC060
:104D5000AA1FBB1FEE1FFF1FA217B307E407F5072B
:104D600020F0A21BB30BE40BF50B661F771F881F07
:104D7000991F1A9469F760957095809590959B019D
:104D8000AC01BD01CF010895052E97FB1EF40094E0
:104D90000E94DB2657FD07D00E94A22607FC03D005
:104DA0004EF40C94DB2650954095309521953F4F5D
:104DB0004F4F5F4F089590958095709561957F4F07
:104DC0008F4F9F4F08950E94F626A59F900DB49F88
:104DD000900DA49F800D911D11240895B7FF0C9490
:104DE000E3260E94E326821B930B0895A29FB00145
:104DF000B39FC001A39F700D811D1124911DB29F0F
:104E0000700D811D1124911D08955058BB27AA27AC
:104E10000E941D270C9497280E94892838F00E9430
:104E2000902820F039F49F3F19F426F40C9486283A
:104E30000EF4E095E7FB0C948028E92F0E94A82847
:104E400058F3BA17620773078407950720F079F4BF
:104E5000A6F50C94CA280EF4E0950B2EBA2FA02DBF
:104E60000B01B90190010C01CA01A0011124FF2717
:104E7000591B99F0593F50F4503E68F11A16F04012
:104E8000A22F232F342F4427585FF3CF4695379511
:104E90002795A795F0405395C9F77EF41F16BA0BD6
:104EA000620B730B840BBAF09150A1F0FF0FBB1F84
:104EB000661F771F881FC2F70EC0BA0F621F731FCD
:104EC000841F48F4879577956795B795F7959E3F2A
:104ED00008F0B0CF9395880F08F09927EE0F9795BB
:104EE000879508950E945C2808F481E008950E9447
:104EF0008B270C9497280E94902858F00E948928AC
:104F000040F029F45F3F29F00C94802851110C9453
:104F1000CB280C9486280E94A82868F39923B1F323
:104F2000552391F3951B550BBB27AA2762177307CF
:104F3000840738F09F5F5F4F220F331F441FAA1F63
:104F4000A9F335D00E2E3AF0E0E832D0915050401F
:104F5000E695001CCAF72BD0FE2F29D0660F771FCD
:104F6000881FBB1F261737074807AB07B0E809F0B3
:104F7000BB0B802DBF01FF2793585F4F3AF09E3F38
:104F8000510578F00C9480280C94CB285F3FE4F313
:104F9000983ED4F3869577956795B795F7959F5F7B
:104FA000C9F7880F911D9695879597F90895E1E0C7
:104FB000660F771F881FBB1F621773078407BA0726
:104FC00020F0621B730B840BBA0BEE1F88F7E09581
:104FD00008950E94F0276894B1110C94CB2808958D
:104FE0000E94B02888F09F5798F0B92F9927B751A1
:104FF000B0F0E1F0660F771F881F991F1AF0BA957D
:10500000C9F714C0B13091F00E94CA28B1E00895E8
:105010000C94CA28672F782F8827B85F39F0B93FDA
:10502000CCF3869577956795B395D9F73EF490952F
:105030008095709561957F4F8F4F9F4F0895E894AD
:1050400009C097FB3EF490958095709561957F4FD0
:105050008F4F9F4F9923A9F0F92F96E9BB2793957E
:10506000F695879577956795B795F111F8CFFAF48E
:10507000BB0F11F460FF1BC06F5F7F4F8F4F9F4FBF
:1050800016C0882311F096E911C0772321F09EE81D
:10509000872F762F05C0662371F096E8862F70E083
:1050A00060E02AF09A95660F771F881FDAF7880F5D
:1050B0009695879597F90895990F0008550FAA0BB3
:1050C000E0E8FEEF16161706E807F907C0F012161B
:1050D0001306E407F50798F0621B730B840B950B1E
:1050E00039F40A2661F0232B242B252B21F4089573
:1050F0000A2609F4A140A6958FEF811D811D089510
:1051000097F99F6780E870E060E008959FEF80EC7A
:10511000089500240A94161617061806090608951D
:1051200000240A9412161306140605060895092E83
:105130000394000C11F4882352F0BB0F40F4BF2BF2
:1051400011F460FF04C06F5F7F4F8F4F9F4F089532
:1051500057FD9058440F551F59F05F3F71F0479528
:10516000880F97FB991F61F09F3F79F0879508950D
:10517000121613061406551FF2CF4695F1DF08C02C
:10518000161617061806991FF1CF86957105610549
:1051900008940895E894BB2766277727CB0197F9F1
:1051A00008950E945C2808F48FEF08950E94E92872
:1051B0000C9497280E94892838F00E94902820F0AB
:1051C000952311F00C9480280C94862811240C94BB
:1051D000CB280E94A82870F3959FC1F3950F50E04B
:1051E000551F629FF001729FBB27F00DB11D639F99
:1051F000AA27F00DB11DAA1F649F6627B00DA11D3F
:10520000661F829F2227B00DA11D621F739FB00DE4
:10521000A11D621F839FA00D611D221F749F332754
:10522000A00D611D231F849F600D211D822F762FED
:105230006A2F11249F5750409AF0F1F088234AF0CA
:10524000EE0FFF1FBB1F661F771F881F9150504036
:10525000A9F79E3F510580F00C9480280C94CB2830
:105260005F3FE4F3983ED4F3869577956795B795BD
:10527000F795E7959F5FC1F7FE2B880F911D9695D7
:10528000879597F908954532510520F4423010F082
:105290000C944E29FB011082CB010895BB274A30A4
:1052A00031F4992322F4BDE2909581959F4F0C949F
:1052B0005A29BB27FB015527AA27880F991FAA1F28
:1052C000A41710F0A41B83955051B9F7A05DAA3321
:1052D00008F0A95DA193009779F7B111B1931192EC
:1052E000CB010C947329DC01FC01672F71917723AA
:1052F000E1F7329704C07C916D9370836291AE1791
:0A530000BF07C8F30895F894FFCF2B
:10530A0001010000093D00460845525200200020D4
:10531A002000202020005072657373203D20006811
:0E532A0050610054656D70203D20004300006E
:00000001FF
