:100000000C942A000C9434000C9434000C943400AA
:100010000C9434000C9434000C9434000C94340090
:100020000C9434000C9434000C9434000C94340080
:100030000C9434000C9434000C9434000C94340070
:100040000C9434000C9434000C9434000C94340060
:100050000C94340011241FBECFE5D8E0DEBFCDBF25
:100060000E94CA010C94CC010C940000683008F086
:100070006FC0843008F06CC0813001F130F0823004
:10008000B1F1833009F44CC00895413059F42AB3DA
:1000900081E090E002C0880F991F6A95E2F7822BF9
:1000A0008ABB08952AB381E090E002C0880F991FAF
:1000B0006A95E2F7809582238ABB0895413059F40E
:1000C00027B381E090E002C0880F991F6A95E2F79C
:1000D000822B87BB089527B381E090E002C0880F90
:1000E000991F6A95E2F78095822387BB0895413076
:1000F00059F424B381E090E002C0880F991F6A95FB
:10010000E2F7822B84BB089524B381E090E002C023
:10011000880F991F6A95E2F78095822384BB089522
:10012000413059F421B381E090E002C0880F991F5B
:100130006A95E2F7822B81BB089521B381E090E0BC
:1001400002C0880F991F6A95E2F78095822381BBD0
:100150000895683008F06FC0843008F06CC08130BA
:1001600001F130F08230B1F1833009F44CC00895D0
:10017000413059F42BB381E090E002C0880F991F01
:100180006A95E2F7822B8BBB08952BB381E090E058
:1001900002C0880F991F6A95E2F7809582238BBB76
:1001A0000895413059F428B381E090E002C0880FEF
:1001B000991F6A95E2F7822B88BB089528B381E0E6
:1001C00090E002C0880F991F6A95E2F7809582231C
:1001D00088BB0895413059F425B381E090E002C016
:1001E000880F991F6A95E2F7822B85BB089525B386
:1001F00081E090E002C0880F991F6A95E2F7809530
:10020000822385BB0895413059F422B381E090E008
:1002100002C0880F991F6A95E2F7822B82BB08956E
:1002200022B381E090E002C0880F991F6A95E2F73F
:100230008095822382BB08956830B0F58430B0F594
:10024000813089F028F08230C9F0833011F130C05C
:1002500089B390E002C0959587956A95E2F780FF93
:1002600029C081E0089586B390E002C095958795F6
:100270006A95E2F780FF20C081E0089583B390E0A3
:1002800002C0959587956A95E2F780FF17C081E0D7
:10029000089580B390E002C0959587956A95E2F73E
:1002A00080FF0EC081E0089580E0089580E0089509
:1002B00080E0089580E0089580E0089580E008954A
:1002C00080E0089540E060E080E00E94360041E078
:1002D00061E080E00E94360040E060E081E00E9442
:1002E000360041E061E081E00E94360040E060E0DD
:1002F00082E00E94360041E061E082E00E94360028
:1003000040E060E083E00E94360041E061E083E08D
:100310000E94360041E060E080E00E94A90041E0D8
:1003200060E081E00E94A90041E060E082E00E947C
:10033000A90041E060E083E00E94A90060E080E065
:100340000E941C01811104C041E061E00E94A900EB
:1003500060E081E00E941C01811105C041E061E084
:1003600081E00E94A90060E082E00E941C018111EE
:1003700005C041E061E082E00E94A90060E083E006
:100380000E941C018111DACF41E061E083E00E940C
:0C039000A900D4CF0E946201F894FFCFB6
:00000001FF
