:100000000C942A000C9434000C9434000C943400AA
:100010000C9434000C9434000C9434000C94340090
:100020000C9434000C9434000C9434000C94340080
:100030000C9434000C9434000C9434000C94340070
:100040000C9434000C9434000C9434000C94340060
:100050000C94340011241FBECFE5D8E0DEBFCDBF25
:100060000E949D000C94A2000C940000843078F44F
:10007000813041F028F0823039F0833039F0089532
:100080006ABB089567BB089564BB089561BB08957A
:10009000843078F4813041F028F0823039F08330B8
:1000A00039F008956BBB089568BB089565BB08954A
:1000B00062BB08956FEF80E00E9436006FEF81E031
:1000C0000E9436006FEF82E00E9436006FEF83E0FF
:1000D0000E9436006FEF80E00E9448006FEF81E0E1
:1000E0000E9448006FEF82E00E9448006FEF83E0BB
:1000F0000E9448002FE38DE093E021508040904023
:10010000E1F700C0000060E080E00E94480060E08D
:1001100081E00E94480060E082E00E94480060E0C8
:1001200083E00E9448002FE38DE093E0215080405F
:100130009040E1F700C00000CDCF0E945A0080E05F
:0801400090E00895F894FFCF50
:00000001FF
