:100000000C942A000C9434000C9434000C943400AA
:100010000C9434000C9434000C9434000C94340090
:100020000C9434000C9434000C9434000C94340080
:100030000C9434000C9434000C9434000C94340070
:100040000C9434000C9434000C9434000C94340060
:100050000C94340011241FBECFE5D8E0DEBFCDBF25
:100060000E940F030C9414030C940000683008F0F5
:100070006FC0843008F06CC0813001F130F0823004
:10008000B1F1833009F44CC00895413059F42AB3DA
:1000900081E090E002C0880F991F6A95E2F7822BF9
:1000A0008ABB08952AB381E090E002C0880F991FAF
:1000B0006A95E2F7809582238ABB0895413059F40E
:1000C00027B381E090E002C0880F991F6A95E2F79C
:1000D000822B87BB089527B381E090E002C0880F90
:1000E000991F6A95E2F78095822387BB0895413076
:1000F00059F424B381E090E002C0880F991F6A95FB
:10010000E2F7822B84BB089524B381E090E002C023
:10011000880F991F6A95E2F78095822384BB089522
:10012000413059F421B381E090E002C0880F991F5B
:100130006A95E2F7822B81BB089521B381E090E0BC
:1001400002C0880F991F6A95E2F78095822381BBD0
:100150000895683008F06FC0843008F06CC08130BA
:1001600001F130F08230B1F1833009F44CC00895D0
:10017000413059F42BB381E090E002C0880F991F01
:100180006A95E2F7822B8BBB08952BB381E090E058
:1001900002C0880F991F6A95E2F7809582238BBB76
:1001A0000895413059F428B381E090E002C0880FEF
:1001B000991F6A95E2F7822B88BB089528B381E0E6
:1001C00090E002C0880F991F6A95E2F7809582231C
:1001D00088BB0895413059F425B381E090E002C016
:1001E000880F991F6A95E2F7822B85BB089525B386
:1001F00081E090E002C0880F991F6A95E2F7809530
:10020000822385BB0895413059F422B381E090E008
:1002100002C0880F991F6A95E2F7822B82BB08956E
:1002200022B381E090E002C0880F991F6A95E2F73F
:100230008095822382BB089541E060E080E00E94C7
:10024000360041E061E080E00E94360041E062E07B
:1002500080E00E94360041E063E080E00E943600CA
:1002600041E064E080E00E94360041E065E080E02B
:100270000E94360041E066E080E00E94360041E0E6
:1002800067E080E00E94360041E060E081E00E948B
:10029000360041E061E081E00E94360041E062E02A
:1002A00081E00E94360041E063E081E00E94360078
:1002B00041E064E081E00E94360041E065E081E0D9
:1002C0000E94360041E066E081E00E94360041E095
:1002D00067E081E00E94360041E060E082E00E9439
:1002E000360041E061E082E00E94360041E062E0D9
:1002F00082E00E94360041E063E082E00E94360026
:1003000041E064E082E00E94360041E065E082E086
:100310000E94360041E066E082E00E94360041E043
:1003200067E082E00E94360041E060E083E00E94E6
:10033000360041E061E083E00E94360041E062E087
:1003400083E00E94360041E063E083E00E943600D3
:1003500041E064E083E00E94360041E065E083E034
:100360000E94360041E066E083E00E94360041E0F2
:1003700067E083E00E94360041E060E080E00E9498
:10038000A90041E061E080E00E94A90041E062E054
:1003900080E00E94A90041E063E080E00E94A900A3
:1003A00041E064E080E00E94A90041E065E080E077
:1003B0000E94A90041E066E080E00E94A90041E0BF
:1003C00067E080E00E94A90041E060E081E00E94D7
:1003D000A90041E061E081E00E94A90041E062E003
:1003E00081E00E94A90041E063E081E00E94A90051
:1003F00041E064E081E00E94A90041E065E081E025
:100400000E94A90041E066E081E00E94A90041E06D
:1004100067E081E00E94A90041E060E082E00E9484
:10042000A90041E061E082E00E94A90041E062E0B1
:1004300082E00E94A90041E063E082E00E94A900FE
:1004400041E064E082E00E94A90041E065E082E0D2
:100450000E94A90041E066E082E00E94A90041E01C
:1004600067E082E00E94A90041E060E083E00E9432
:10047000A90041E061E083E00E94A90041E062E060
:1004800083E00E94A90041E063E083E00E94A900AC
:1004900041E064E083E00E94A90041E065E083E080
:1004A0000E94A90041E066E083E00E94A90041E0CB
:1004B00067E083E00E94A9002FE38DE093E02150E4
:1004C00080409040E1F700C0000040E060E080E044
:1004D0000E94A90040E061E080E00E94A90040E0A5
:1004E00062E080E00E94A90040E063E080E00E94BA
:1004F000A90040E064E080E00E94A90040E065E0DF
:1005000080E00E94A90040E066E080E00E94A9002F
:1005100040E067E080E00E94A90040E060E081E008
:100520000E94A90040E061E081E00E94A90040E053
:1005300062E081E00E94A90040E063E081E00E9467
:10054000A90040E064E081E00E94A90040E065E08D
:1005500081E00E94A90040E066E081E00E94A900DD
:1005600040E067E081E00E94A90040E060E082E0B6
:100570000E94A90040E061E082E00E94A90040E002
:1005800062E082E00E94A90040E063E082E00E9415
:10059000A90040E064E082E00E94A90040E065E03C
:1005A00082E00E94A90040E066E082E00E94A9008B
:1005B00040E067E082E00E94A90040E060E083E064
:1005C0000E94A90040E061E083E00E94A90040E0B1
:1005D00062E083E00E94A90040E063E083E00E94C3
:1005E000A90040E064E083E00E94A90040E065E0EB
:1005F00083E00E94A90040E066E083E00E94A90039
:1006000040E067E083E00E94A9002FE38DE093E0E3
:10061000215080409040E1F700C00000ADCE0E9424
:0C0620001C0180E090E00895F894FFCFEA
:00000001FF
