:100000000C942A000C94C9130C9447000C944700DC
:100010000C94A4090C9471090C94780B0C943E096F
:100020000C9447000C940B090C94D8080C94A50868
:100030000C9447000C9447000C9447000C94470024
:100040000C9447000C9447000C9447000C94470014
:100050000C94470011241FBECFE5D8E0DEBFCDBF12
:1000600011E0A0E6B0E0E2E6FFE502C005900D92E7
:10007000A23DB107D9F712E0A2EDB1E001C01D9297
:10008000A833B107E1F70E942F120C94AF2F0C9404
:100090000000EF92FF920F931F937B018C0120E0F1
:1000A00030E040E05FE40E94F50388238CF0C80153
:1000B000B70120E030E040E05FE40E94C1010E940F
:1000C000B3049B01AC01205030404040504806C072
:1000D000C801B7010E94B3049B01AC01B901CA0178
:1000E0001F910F91FF90EF900895A0E0B0E0EBE733
:1000F000F0E00C94332FDC012B01FA019C9192303B
:1001000008F439C1EB018881823008F433C194309E
:1001100069F4843009F02FC111969C91119789815F
:10012000981709F428C1A0ECB0E025C1843009F487
:1001300021C18230A9F4923009F01DC19A01AD01AC
:1001400088E0EA010990AE01E90109929E0181501F
:10015000C1F7E201898111969C918923818308C1AD
:10016000923009F407C112962D903C901397EB0141
:100170008A819B811496AD90BD90CD90DC901797AD
:10018000EC80FD800E811F819101281B390BB90184
:1001900037FF04C066277727621B730B6032710537
:1001A0000CF061C0121613066CF537014801062EDB
:1001B00004C096948794779467940A94D2F721E0C8
:1001C00030E040E050E004C0220F331F441F551FB1
:1001D0006A95D2F721503040404050402E213F21B7
:1001E00040235123211531054105510521F021E01E
:1001F00030E040E050E079018A01E628F72808293C
:1002000019293CC0232BD1F1260E371E350146019A
:10021000062E04C096948794779467940A94D2F734
:1002200021E030E040E050E004C0220F331F441FC3
:10023000551F6A95D2F721503040404050402A2146
:100240003B214C215D21211531054105510521F04E
:1002500021E030E040E050E059016A01A628B728CB
:10026000C828D9280BC0821593052CF01C01AA249C
:10027000BB24650103C0EE24FF24870111969C91E5
:10028000D20111968C91981709F445C0992339F041
:10029000A80197012A193B094C095D0906C0A6016E
:1002A00095012E193F09400B510B57FD08C01182D3
:1002B0003382228224833583468357831DC081E0A5
:1002C00081833382228288279927DC01821B930B4A
:1002D000A40BB50B84839583A683B7830DC0220F2F
:1002E000331F441F551F24833583468357838281E0
:1002F000938101979383828324813581468157813D
:10030000DA01C9010197A109B1098F5F9F4FAF4F72
:10031000BF4328F30BC0918333822282EA0CFB1C7B
:100320000C1D1D1DE482F5820683178383E0808304
:10033000248135814681578157FF1AC0C901AA27F8
:1003400097FDA095BA2F81709070A070B0705695EF
:10035000479537952795822B932BA42BB52B848318
:100360009583A683B7838281938101969383828349
:10037000DF0101C0D201CD01CDB7DEB7E2E10C94BF
:100380004F2FA0E2B0E0E7ECF1E00C943F2F69833F
:100390007A838B839C832D833E834F835887E9E048
:1003A000EE2EF12CEC0EFD1ECE010196B7010E943F
:1003B000A4068E010F5E1F4FCE010596B8010E9464
:1003C000A4068A8991E089278A8BC701B801AE010A
:1003D000475E5F4F0E9475000E94CF05A096E6E041
:1003E0000C945B2FA0E2B0E0E8EFF1E00C943F2F1B
:1003F00069837A838B839C832D833E834F835887C5
:10040000F9E0EF2EF12CEC0EFD1ECE010196B701A6
:100410000E94A4068E010F5E1F4FCE010596B80103
:100420000E94A406C701B801AE01475E5F4F0E945B
:1004300075000E94CF05A096E6E00C945B2FA0E229
:10044000B0E0E5E2F2E00C94332F69837A838B838A
:100450009C832D833E834F835887CE010196BE0136
:10046000675F7F4F0E94A406CE010596BE016F5EB6
:100470007F4F0E94A4069985923088F08989823046
:10048000C8F0943019F4823051F404C0843029F457
:10049000923081F480EC90E0C6C0923049F420E0C4
:1004A0009A858A89981321E02A87CE010996BBC0D4
:1004B000823049F420E09A858A89981321E02A8BBA
:1004C000CE014196B0C02D843E844F8458886D88FB
:1004D0007E888F88988CEE24FF248701AA24BB2471
:1004E000650140E050E060E070E0E0E0F0E0C10174
:1004F00081709070892BE9F0E60CF71C081D191D1E
:100500009A01AB012A0D3B1D4C1D5D1D80E090E062
:10051000A0E0B0E0E614F7040805190520F481E036
:1005200090E0A0E0B0E0BA01A901480F591F6A1F8E
:100530007B1FAA0CBB1CCC1CDD1C97FE08C081E0F5
:1005400090E0A0E0B0E0A82AB92ACA2ADB2A3196B6
:10055000E032F10549F0660C771C881C991C569412
:10056000479437942794C3CFFA85EA892B893C892D
:100570008B859C85280F391F2E5F3F4F17C0CA01FE
:1005800081709070892B61F016950795F794E79428
:1005900080E090E0A0E0B0E8E82AF92A0A2B1B2BC3
:1005A00076956795579547952F5F3F4F77FDE7CF36
:1005B0000CC0440F551F661F771F17FD4160EE0CDE
:1005C000FF1C001F111F21503040403090E05907A0
:1005D00090E0690790E4790760F32B8F3C8FDB0193
:1005E000CA018F779070A070B07080349105A1051A
:1005F000B10561F447FD0AC0E114F10401051105DC
:1006000029F0405C5F4F6F4F7F4F40781A8EFE1786
:1006100011F081E08A8F4D8F5E8F6F8F78A383E01A
:10062000898FCE0149960E94CF05A096E2E10C94F5
:100630004F2FA8E1B0E0EFE1F3E00C943B2F69838A
:100640007A838B839C832D833E834F835887B9E0C5
:10065000EB2EF12CEC0EFD1ECE010196B7010E948F
:10066000A4068E010F5E1F4FCE010596B8010E94B1
:10067000A4062985223008F47EC03989323010F46E
:10068000B8017CC08A859A8989278A87243011F02D
:10069000223031F4231709F06EC060EC70E06EC0B8
:1006A000343039F41D861E861F86188A1C861B86E8
:1006B00004C0323021F484E08987B7015FC02B8504
:1006C0003C858B899C89281B390B3C872B87ED84C3
:1006D000FE840F851889AD88BE88CF88D88CEA142F
:1006E000FB040C051D0540F4EE0CFF1C001F111F40
:1006F000215030403C872B8720E030E040E050E044
:1007000080E090E0A0E0B0E460E070E0EA14FB0478
:100710000C051D0540F0282B392B4A2B5B2BEA18C2
:10072000FB080C091D09B695A79597958795EE0CC2
:10073000FF1C001F111F6F5F7F4F6F31710531F775
:10074000DA01C9018F779070A070B0708034910584
:10075000A105B10561F427FD0AC0E114F10401050A
:10076000110529F0205C3F4F4F4F5F4F20782D87B8
:100770003E874F87588BBE01675F7F4FCB010E943A
:10078000CF056896EAE00C94572FA8E1B0E0EBECB7
:10079000F3E00C943F2F69837A838B839C832D83B2
:1007A0003E834F83588789E0E82EF12CEC0EFD1E26
:1007B000CE010196B7010E94A4068E010F5E1F4F65
:1007C000CE010596B8010E94A4068985823040F0CA
:1007D0008989823028F0C701B8010E941C0701C036
:1007E0008FEF6896E6E00C945B2FA8E1B0E0EBEFAA
:1007F000F3E00C943F2F69837A838B839C832D8352
:100800003E834F83588789E0E82EF12CEC0EFD1EC5
:10081000CE010196B7010E94A4068E010F5E1F4F04
:10082000CE010596B8010E94A4068985823040F069
:100830008989823028F0C701B8010E941C0701C0D5
:100840008FEF6896E6E00C945B2FA8E1B0E0EBE256
:10085000F4E00C943F2F69837A838B839C832D83F0
:100860003E834F83588789E0E82EF12CEC0EFD1E65
:10087000CE010196B7010E94A4068E010F5E1F4FA4
:10088000CE010596B8010E94A4068985823040F009
:100890008989823028F0C701B8010E941C0701C075
:1008A00081E06896E6E00C945B2FA8E0B0E0EBE511
:1008B000F4E00C943C2F9B01AC0183E08983DA01C6
:1008C000C9018827B7FD83959927AA27BB27B82E8A
:1008D000211531054105510519F482E089833AC09B
:1008E0008823A9F0203080E0380780E0480780E8BE
:1008F000580729F460E070E080E09FEC30C0EE24FF
:10090000FF248701E21AF30A040B150B02C07901D8
:100910008A018EE1C82ED12CDC82CB82ED82FE8250
:100920000F831887C801B7010E9480050197181628
:10093000190684F4082E04C0EE0CFF1C001F111FC2
:100940000A94D2F7ED82FE820F831887C81AD90A5B
:10095000DC82CB82BA82CE0101960E94CF05289616
:10096000E9E00C94582FACE0B0E0E9EBF4E00C9433
:10097000432F69837A838B839C83CE010196BE01CA
:100980006B5F7F4F0E94A4068D81823061F18230BF
:1009900050F1843021F48E81882351F12EC02F81B3
:1009A000388537FD20C06E812F3131051CF066235C
:1009B000F9F023C08EE190E0821B930B29853A85E4
:1009C0004B855C8504C056954795379527958A9544
:1009D000D2F76623B1F050954095309521953F4F61
:1009E0004F4F5F4F0EC020E030E040E050E009C0C4
:1009F0002FEF3FEF4FEF5FE704C020E030E040E033
:100A000050E8B901CA012C96E2E00C945F2FA8E0EF
:100A1000B0E0EDE0F5E00C943B2F7B018C0161151B
:100A200071058105910519F482E0898360C083E036
:100A300089838EE1C82ED12CDC82CB82ED82FE82AE
:100A40000F831887C801B7010E948005FC01319708
:100A5000F7FF3BC0222733272E1B3F0B57016801AE
:100A6000022E04C0D694C794B794A7940A94D2F7E0
:100A700040E050E060E070E081E090E0A0E0B0E0B5
:100A800004C0880F991FAA1FBB1F2A95D2F7019790
:100A9000A109B1098E219F21A023B1230097A105AF
:100AA000B10521F041E050E060E070E04A295B29A7
:100AB0006C297D294D835E836F8378878EE190E07A
:100AC0008E1B9F0B9C838B8312C0309781F00E2E60
:100AD00004C0EE0CFF1C001F111F0A94D2F7ED8218
:100AE000FE820F831887CE1ADF0ADC82CB821A823D
:100AF000CE0101960E94CF052896EAE00C94572F6C
:100B0000EF92FF920F931F937B018C0180E0E81618
:100B100080E0F80681E0080780E0180788F48FEF8E
:100B2000E816F1040105110531F028F088E090E0A5
:100B3000A0E0B0E017C080E090E0A0E0B0E012C01C
:100B400080E0E81680E0F80680E0080781E01807FA
:100B500028F088E190E0A0E0B0E004C080E190E0FF
:100B6000A0E0B0E020E230E040E050E0281B390B8C
:100B70004A0B5B0B04C016950795F794E7948A958A
:100B8000D2F7F701E853FF4F8081281B3109410953
:100B90005109C9011F910F91FF90EF900895DF92C5
:100BA000EF92FF920F931F93FC01E480F580068182
:100BB0001781D1808081823048F480E090E0A0E10C
:100BC000B0E0E82AF92A0A2B1B2BA5C0843009F4CF
:100BD0009FC0823021F4EE24FF24870105C0E11478
:100BE000F1040105110519F4E0E0F0E096C062811E
:100BF00073819FEF623879070CF05BC022E83FEF0A
:100C0000261B370B2A3131052CF020E030E040E084
:100C100050E02AC0B801A701022E04C0769567955E
:100C2000579547950A94D2F781E090E0A0E0B0E0B4
:100C300004C0880F991FAA1FBB1F2A95D2F70197DE
:100C4000A109B1098E219F21A023B1230097A105FD
:100C5000B10521F081E090E0A0E0B0E09A01AB01A5
:100C6000282B392B4A2B5B2BDA01C9018F77907027
:100C7000A070B07080349105A105B10539F427FF4B
:100C800009C0205C3F4F4F4F5F4F04C0215C3F4F76
:100C90004F4F5F4FE0E0F0E02030A0E03A07A0E0E7
:100CA0004A07A0E45A0710F0E1E0F0E079018A0178
:100CB00027C06038710564F5FB01E158FF4FD8018A
:100CC000C7018F779070A070B07080349105A10536
:100CD000B10539F4E7FE0DC080E490E0A0E0B0E09B
:100CE00004C08FE390E0A0E0B0E0E80EF91E0A1F18
:100CF0001B1F17FF05C016950795F794E7943196CB
:100D000087E016950795F794E7948A95D1F705C083
:100D1000EE24FF248701EFEFF0E06E2F6795662742
:100D20006795902F9F77D794DD24D7948E2F869543
:100D3000492F462B582F5D29B701CA011F910F91EA
:100D4000FF90EF90DF900895FC01DB01408151811D
:100D50002281622F6F7770E0221F2227221F93814A
:100D6000892F880F822B282F30E0991F9927991FF0
:100D700011969C93119721153105A9F5411551053F
:100D80006105710511F482E037C082E89FEF139688
:100D90009C938E9312979A01AB0167E0220F331F49
:100DA000441F551F6A95D1F783E08C930DC0220F25
:100DB000331F441F551F12968D919C9113970197D5
:100DC00013969C938E931297203080E0380780E032
:100DD000480780E4580758F314962D933D934D939C
:100DE0005C93179708952F3F310579F4411551050C
:100DF0006105710519F484E08C93089564FF03C0C4
:100E000081E08C9312C01C9210C02F573040139673
:100E10003C932E93129783E08C9387E0440F551FE9
:100E2000661F771F8A95D1F7706414964D935D9372
:100E30006D937C93179708951F93DC01FB019C91A0
:100E4000923008F447C08081823008F443C0943067
:100E500051F411961C91843099F58181682F70E0CE
:100E6000611B71093FC0843021F0923031F482302F
:100E7000B9F18181882389F12DC011961C911197B8
:100E80008230F1F081811817D9F412962D913C919E
:100E90001397828193818217930794F0281739075B
:100EA000BCF014968D919D910D90BC91A02D248144
:100EB000358146815781281739074A075B0718F49F
:100EC000112341F00AC082179307A407B50740F425
:100ED000112319F061E070E005C06FEF7FEF02C0F1
:100EE00060E070E0CB011F910895DF93CF93CDB701
:100EF000DEB7E0E2F0E088E48083A1E2B0E0E1E286
:100F0000F0E080818D7F8C93A1E2B0E0E1E2F0E03F
:100F100080818E7F8C93E2E2F0E086E08083A2E223
:100F2000B0E0E2E2F0E080818E7F8C93A6E5B0E055
:100F3000E6E5F0E0808184608C93CF91DF910895A5
:100F4000DF93CF9300D00F92CDB7DEB78A83E6E56B
:100F5000F0E084EA8083E6E5F0E080818823DCF736
:100F60000E94960889838981883011F01B821EC0F7
:100F7000E3E2F0E08A818083E6E5F0E084E88083C4
:100F8000E6E5F0E080818823DCF70E9496088983FB
:100F90008981883119F481E08B8308C0898180328E
:100FA00019F482E08B8302C083E08B838B810F90E6
:100FB0000F900F90CF91DF910895DF93CF9300D0E2
:100FC0000F92CDB7DEB78A83E6E5F0E084EA80834E
:100FD000E6E5F0E080818823DCF70E9496088983AB
:100FE0008981803111F01B821EC0E3E2F0E08A812A
:100FF0008083E6E5F0E084E88083E6E5F0E0808148
:101000008823DCF70E94960889838981803419F44B
:1010100081E08B8308C08981803219F482E08B8360
:1010200002C083E08B838B810F900F900F90CF9144
:10103000DF910895DF93CF9300D0CDB7DEB78A83D9
:10104000E6E5F0E084EA8083E6E5F0E0808188234D
:10105000DCF7E1E2F0E08081887F89838981883054
:1010600079F7E3E2F0E08A818083E6E5F0E084E866
:101070008083E6E5F0E080818823DCF7E1E2F0E0C0
:101080008081887F89838981883119F00E944E0888
:10109000D7CF0F900F90CF91DF910895DF93CF932B
:1010A000CDB7DEB7E6E5F0E084E98083CF91DF914C
:1010B0000895DF93CF930F92CDB7DEB78983E3E234
:1010C000F0E089818083E6E5F0E084E88083E6E56E
:1010D000F0E080818823DCF70F90CF91DF910895B5
:1010E000DF93CF93CDB7DEB7E6E5F0E084EC808305
:1010F000E6E5F0E080818823DCF7E3E2F0E0808140
:10110000CF91DF910895DF93CF93CDB7DEB7E6E5BA
:10111000F0E084E88083E6E5F0E080818823DCF776
:10112000E3E2F0E08081CF91DF910895DF93CF93E8
:101130000F92CDB7DEB7E1E2F0E08081887F89834E
:1011400089810F90CF91DF9108951F920F920FB672
:101150000F9211242F933F934F935F936F937F933D
:101160008F939F93AF93BF93EF93FF93DF93CF93AF
:10117000CDB7DEB78091D2019091D301009729F0CD
:10118000E091D201F091D3010995CF91DF91FF91C8
:10119000EF91BF91AF919F918F917F916F915F91EF
:1011A0004F913F912F910F900FBE0F901F90189568
:1011B0001F920F920FB60F9211242F933F934F93CC
:1011C0005F936F937F938F939F93AF93BF93EF93AF
:1011D000FF93DF93CF93CDB7DEB78091D20190918B
:1011E000D301009729F0E091D201F091D301099544
:1011F000CF91DF91FF91EF91BF91AF919F918F912F
:101200007F916F915F914F913F912F910F900FBE02
:101210000F901F9018951F920F920FB60F921124E6
:101220002F933F934F935F936F937F938F939F93EE
:10123000AF93BF93EF93FF93DF93CF93CDB7DEB719
:101240008091D4019091D501009729F0E091D401CB
:10125000F091D5010995CF91DF91FF91EF91BF9169
:10126000AF919F918F917F916F915F914F913F913E
:101270002F910F900FBE0F901F9018951F920F92F5
:101280000FB60F9211242F933F934F935F936F9359
:101290007F938F939F93AF93BF93EF93FF93DF93CE
:1012A000CF93CDB7DEB78091D4019091D50100974F
:1012B00029F0E091D401F091D5010995CF91DF910A
:1012C000FF91EF91BF91AF919F918F917F916F911E
:1012D0005F914F913F912F910F900FBE0F901F90F4
:1012E00018951F920F920FB60F9211242F933F93D0
:1012F0004F935F936F937F938F939F93AF93BF931E
:10130000EF93FF93DF93CF93CDB7DEB78091D601F4
:101310009091D701009729F0E091D601F091D70183
:101320000995CF91DF91FF91EF91BF91AF919F917F
:101330008F917F916F915F914F913F912F910F907E
:101340000FBE0F901F9018951F920F920FB60F921D
:1013500011242F933F934F935F936F937F938F93BA
:101360009F93AF93BF93EF93FF93DF93CF93CDB74B
:10137000DEB78091D6019091D701009729F0E091D6
:10138000D601F091D7010995CF91DF91FF91EF91AF
:10139000BF91AF919F918F917F916F915F914F918D
:1013A0003F912F910F900FBE0F901F901895DF93D4
:1013B000CF9300D0CDB7DEB79A838983E981FA81D4
:1013C0008081882309F060C0A2E5B0E0E981FA815C
:1013D000828193818C93E3E5F0E01082A3E5B0E095
:1013E000E3E5F0E09081E981FA818681892B8C9395
:1013F000E981FA8181818823B1F4A3E5B0E0E3E5D6
:10140000F0E0808180688C93A9E5B0E0E9E5F0E048
:10141000808181608C93A8E5B0E0E8E5F0E0808110
:1014200081608C9328C0E981FA818181813019F52E
:10143000A3E5B0E0E3E5F0E0808180688C93A3E56C
:10144000B0E0E3E5F0E0808188608C93ACE5B0E04B
:10145000E981FA81848195818C93A9E5B0E0E9E581
:10146000F0E0808182608C93A8E5B0E0E8E5F0E0F0
:10147000808182608C93E981FA8187819085909345
:10148000D3018093D201C4C0E981FA818081813087
:1014900009F060C0EFE4F0E01082AFE4B0E0EFE408
:1014A000F0E0808188608C93AFE4B0E0EFE4F0E09E
:1014B000808184608C93AEE4B0E0E981FA8186811A
:1014C0008C93ACE4B0E0E981FA818281938111963A
:1014D0009C938E93E981FA818181882379F4A9E52F
:1014E000B0E0E9E5F0E0808184608C93A8E5B0E0AD
:1014F000E8E5F0E0808184608C9323C0E981FA8183
:1015000081818130F1F4AEE4B0E0EEE4F0E080817E
:1015100088608C93AAE4B0E0E981FA8184819581A6
:1015200011969C938E93A9E5B0E0E9E5F0E0808107
:1015300080618C93A8E5B0E0E8E5F0E0808180610F
:101540008C93E981FA81878190859093D50180936E
:10155000D4015EC0E981FA818081823009F058C0EF
:10156000A5E4B0E0E5E4F0E0808180688C93A4E439
:10157000B0E0E981FA81828193818C93E5E4F0E027
:101580001082A5E4B0E0E5E4F0E09081E981FA8121
:101590008681892B8C93E981FA818181882379F472
:1015A000A9E5B0E0E9E5F0E0808180648C93A8E5EE
:1015B000B0E0E8E5F0E0808180648C9321C0E981AF
:1015C000FA8181818130E1F4A3E5B0E0E3E5F0E068
:1015D000808188608C93A3E4B0E0E981FA81848102
:1015E00095818C93A9E5B0E0E9E5F0E08081806821
:1015F0008C93A8E5B0E0E8E5F0E0808180688C930A
:10160000E981FA81878190859093D7018093D601F3
:101610000F900F90CF91DF910895DF93CF930F92AA
:10162000CDB7DEB7898389818823E1F4E3E5F0E073
:101630001082E2E5F0E01082ECE5F0E01082A9E52E
:10164000B0E0E9E5F0E080818D7F8C93A9E5B0E022
:10165000E9E5F0E080818E7F8C931092D3011092A7
:10166000D20142C08981813009F5EFE4F0E01082B7
:10167000EEE4F0E01082ECE4F0E011821082A9E5E3
:10168000B0E0E9E5F0E080818B7F8C93EAE4F0E064
:1016900011821082A9E5B0E0E9E5F0E080818F7E5B
:1016A0008C931092D5011092D4011EC08981823092
:1016B000D9F4E5E4F0E01082E4E4F0E01082E3E441
:1016C000F0E01082A9E5B0E0E9E5F0E080818F77F5
:1016D0008C93A9E5B0E0E9E5F0E080818F7B8C9305
:1016E0001092D7011092D6010F90CF91DF910895FB
:1016F0001F920F920FB60F9211242F933F934F9387
:101700005F936F937F938F939F93AF93BF93EF9369
:10171000FF93DF93CF93CDB7DEB78091D80190913F
:10172000D901009729F0E091D801F091D9010995EC
:10173000CF91DF91FF91EF91BF91AF919F918F91E9
:101740007F916F915F914F913F912F910F900FBEBD
:101750000F901F901895DF93CF9300D0CDB7DEB7D1
:101760009A838983EEE4F0E082E48083ECE4F0E0A5
:1017700011821082E6E4F0E011821082A9E5B0E067
:10178000E9E5F0E0808180628C93A7E3B0E0E7E3D5
:10179000F0E080818F7B8C93EFE4F0E08CE080833D
:1017A000AEE4B0E0EEE4F0E08081982F987FE9812C
:1017B000FA818081892B8C93AEE4B0E0EEE4F0E016
:1017C0008081282F2F7BE981FA818181882F90E009
:1017D0000024969587950794969587950794982F5A
:1017E000802D822B8C93ECE4F0E011821082E6E4F1
:1017F000F0E011821082A9E5B0E0E9E5F0E0808137
:1018000080628C930F900F90CF91DF910895DF93BA
:10181000CF9300D0CDB7DEB79A83898389819A812F
:101820009093D9018093D8010F900F90CF91DF91C1
:101830000895DF93CF930F92CDB7DEB78983AEE4DF
:10184000B0E0EEE4F0E08081282F2F7B8981882FA3
:1018500090E0002496958795079496958795079430
:10186000982F802D822B8C930F90CF91DF9108952C
:10187000DF93CF93CDB7DEB7E6E4F0E080819181CE
:10188000CF91DF910895DF93CF93CDB7DEB7ECE42E
:10189000F0E011821082CF91DF910895DF93CF9312
:1018A000CDB7DEB7EFE4F0E01082EEE4F0E01082B6
:1018B000ECE4F0E011821082E6E4F0E011821082A4
:1018C000A9E5B0E0E9E5F0E080818F7D8C93CF91D0
:1018D000DF910895DF93CF9300D000D00F92CDB762
:1018E000DEB789836A834B838A81883008F0D5C04C
:1018F0008981843008F0D1C08981282F30E03D8370
:101900002C838C819D818130910509F443C02C8109
:101910003D81223031052CF48C819D81009771F03E
:10192000BCC02C813D812230310509F45FC08C811F
:101930009D818330910509F485C0AFC08B818130D2
:10194000A1F4AAE3B0E0EAE3F0E08081482F8A81C5
:10195000282F30E081E090E0022E02C0880F991F0E
:101960000A94E2F7842B8C9398C0AAE3B0E0EAE3F0
:10197000F0E08081482F8A81282F30E081E090E0DC
:10198000022E02C0880F991F0A94E2F780958423E3
:101990008C9383C08B818130A1F4A7E3B0E0E7E3AF
:1019A000F0E08081482F8A81282F30E081E090E0AC
:1019B000022E02C0880F991F0A94E2F7842B8C93A1
:1019C0006CC0A7E3B0E0E7E3F0E08081482F8A81B4
:1019D000282F30E081E090E0022E02C0880F991F8E
:1019E0000A94E2F7809584238C9357C08B818130D1
:1019F000A1F4A4E3B0E0E4E3F0E08081482F8A8121
:101A0000282F30E081E090E0022E02C0880F991F5D
:101A10000A94E2F7842B8C9340C0A4E3B0E0E4E3A3
:101A2000F0E08081482F8A81282F30E081E090E02B
:101A3000022E02C0880F991F0A94E2F78095842332
:101A40008C932BC08B818130A1F4A1E3B0E0E1E362
:101A5000F0E08081482F8A81282F30E081E090E0FB
:101A6000022E02C0880F991F0A94E2F7842B8C93F0
:101A700014C0A1E3B0E0E1E3F0E08081482F8A8167
:101A8000282F30E081E090E0022E02C0880F991FDD
:101A90000A94E2F7809584238C930F900F900F9017
:101AA0000F900F90CF91DF910895DF93CF9300D0E7
:101AB00000D00F92CDB7DEB789836A834B838A81CA
:101AC000883008F0D5C08981843008F0D1C0898180
:101AD000282F30E03D832C838C819D8181309105BE
:101AE00009F443C02C813D81223031052CF48C81D6
:101AF0009D81009771F0BCC02C813D812230310561
:101B000009F45FC08C819D818330910509F485C003
:101B1000AFC08B818130A1F4ABE3B0E0EBE3F0E048
:101B20008081482F8A81282F30E081E090E0022ECA
:101B300002C0880F991F0A94E2F7842B8C9398C0F7
:101B4000ABE3B0E0EBE3F0E08081482F8A81282FFF
:101B500030E081E090E0022E02C0880F991F0A94C5
:101B6000E2F7809584238C9383C08B818130A1F42C
:101B7000A8E3B0E0E8E3F0E08081482F8A81282FD5
:101B800030E081E090E0022E02C0880F991F0A9495
:101B9000E2F7842B8C936CC0A8E3B0E0E8E3F0E0BC
:101BA0008081482F8A81282F30E081E090E0022E4A
:101BB00002C0880F991F0A94E2F7809584238C93C2
:101BC00057C08B818130A1F4A5E3B0E0E5E3F0E0FC
:101BD0008081482F8A81282F30E081E090E0022E1A
:101BE00002C0880F991F0A94E2F7842B8C9340C09F
:101BF000A5E3B0E0E5E3F0E08081482F8A81282F5B
:101C000030E081E090E0022E02C0880F991F0A9414
:101C1000E2F7809584238C932BC08B818130A1F4D3
:101C2000A2E3B0E0E2E3F0E08081482F8A81282F30
:101C300030E081E090E0022E02C0880F991F0A94E4
:101C4000E2F7842B8C9314C0A2E3B0E0E2E3F0E06F
:101C50008081482F8A81282F30E081E090E0022E99
:101C600002C0880F991F0A94E2F7809584238C9311
:101C70000F900F900F900F900F90CF91DF910895DC
:101C8000DF93CF9300D000D00F92CDB7DEB78A8319
:101C90006B8319828B81883008F084C08A818430FC
:101CA00008F080C08A81282F30E03D832C834C814E
:101CB0005D814130510579F18C819D8182309105A2
:101CC00034F42C813D812115310569F06BC04C81C4
:101CD0005D8142305105B9F18C819D818330910540
:101CE00009F449C05FC0E9E3F0E08081282F30E0CB
:101CF0008B81882F90E0A90102C0559547958A9560
:101D0000E2F7CA0181709070882319F081E089831D
:101D100049C0198247C0E6E3F0E08081282F30E017
:101D20008B81882F90E0A90102C0559547958A952F
:101D3000E2F7CA0181709070882319F081E08983ED
:101D400031C019822FC0E3E3F0E08081282F30E01A
:101D50008B81882F90E0A90102C0559547958A95FF
:101D6000E2F7CA0181709070882319F081E08983BD
:101D700019C0198217C0E0E3F0E08081282F30E01D
:101D80008B81882F90E0A90102C0559547958A95CF
:101D9000E2F7CA0181709070882319F081E089838D
:101DA00001C0198289810F900F900F900F900F90B2
:101DB000CF91DF910895DF93CF9300D000D0CDB7BE
:101DC000DEB789836A838981843090F58981282FE1
:101DD00030E03C832B838B819C8181309105D1F055
:101DE0002B813C81223031052CF48B819C81009722
:101DF00061F01EC02B813C812230310581F08B8146
:101E00009C818330910581F013C0EAE3F0E08A8180
:101E100080830EC0E7E3F0E08A81808309C0E4E3B9
:101E2000F0E08A81808304C0E1E3F0E08A8180836E
:101E30000F900F900F900F90CF91DF910895DF9347
:101E4000CF9300D000D0CDB7DEB789836A83898174
:101E5000843090F58981282F30E03C832B838B815F
:101E60009C8181309105D1F02B813C81223031055C
:101E70002CF48B819C81009761F01EC02B813C81EA
:101E80002230310581F08B819C818330910581F076
:101E900013C0EBE3F0E08A8180830EC0E8E3F0E05A
:101EA0008A81808309C0E5E3F0E08A81808304C0F1
:101EB000E2E3F0E08A8180830F900F900F900F9003
:101EC000CF91DF910895DF93CF9300D000D0CDB7AD
:101ED000DEB78A8319828A81843090F58A81282F1F
:101EE00030E03C832B838B819C8181309105D1F044
:101EF0002B813C81223031052CF48B819C81009711
:101F000061F01EC02B813C812230310581F08B8134
:101F10009C818330910581F013C0E9E3F0E080817A
:101F200089830EC0E6E3F0E08081898309C0E3E3A2
:101F3000F0E08081898304C0E0E3F0E08081898360
:101F400089810F900F900F900F90CF91DF9108959E
:101F5000DF93CF9300D000D0CDB7DEB769837A830B
:101F60008B839C8380E068E00E94EC1F89819A81CA
:101F7000AB81BC81803127E2920720E0A20720E0FC
:101F8000B20748F080E690E00E94C31F84E690E02C
:101F90000E94C31F67C089819A81AB81BC81883E42
:101FA00023E0920720E0A20720E0B20788F08981B1
:101FB0009A81AB81BC81803127E2920720E0A207A1
:101FC00020E0B20728F489819A810E9447204AC004
:101FD00089819A81AB81BC8184369105A105B105C7
:101FE000A8F089819A81AB81BC81883E23E0920769
:101FF00020E0A20720E0B20748F489819A810E947C
:10200000472084E690E00E94C31F2CC089819A81FA
:10201000AB81BC818A309105A105B10590F0898121
:102020009A81AB81BC8184369105A105B10548F444
:1020300089819A810E94472086E690E00E94C31F12
:1020400011C089819A81AB81BC818A309105A1053B
:10205000B10540F489819A810E94472089E690E089
:102060000E94C31F0F900F900F900F90CF91DF91A0
:102070000895DF93CF9300D000D0CDB7DEB769834A
:102080007A838B839C8382E067E00E94EC1F8981C6
:102090009A81AB81BC81803A26E8920721E0A207B1
:1020A00020E0B20728F089819A810E9447208BC0E6
:1020B00089819A81AB81BC81803127E2920720E03F
:1020C000A20720E0B207A0F089819A81AB81BC8190
:1020D000803A26E8920721E0A20720E0B20740F408
:1020E00089819A810E94472080E20E94481B6BC030
:1020F00089819A81AB81BC81883E23E0920720E0F0
:10210000A20720E0B207A8F089819A81AB81BC8147
:10211000803127E2920720E0A20720E0B20748F4CE
:1021200089819A810E94472086E690E00E94C31F21
:102130004AC089819A81AB81BC8184369105A10511
:10214000B105A8F089819A81AB81BC81883E23E0EA
:10215000920720E0A20720E0B20748F489819A8123
:102160000E94472089E690E00E94C31F2CC089810D
:102170009A81AB81BC818A309105A105B10590F0AF
:1021800089819A81AB81BC8184369105A105B10515
:1021900048F489819A810E9447208DE690E00E9450
:1021A000C31F11C089819A81AB81BC818A3091059E
:1021B000A105B10540F489819A810E94472082E7F8
:1021C00090E00E94C31F0F900F900F900F90CF913F
:1021D000DF910895DF93CF9300D000D0CDB7DEB765
:1021E00069837A838B839C8381E067E00E94EC1F84
:1021F00089819A81AB81BC81883E23E0920720E0EF
:10220000A20720E0B20728F089819A810E94472026
:102210003AC089819A81AB81BC8184369105A10540
:10222000B10528F089819A810E9447202CC08981BC
:102230009A81AB81BC818A309105A105B10590F0EE
:1022400089819A81AB81BC8184369105A105B10554
:1022500048F489819A810E94472084E690E00E9498
:10226000C31F11C089819A81AB81BC818A309105DD
:10227000A105B10540F489819A810E94472086E634
:1022800090E00E94C31F0F900F900F900F90CF917E
:10229000DF910895DF93CF93CDB7DEB78091DA0158
:1022A0009091DB01A091DC01B091DD018D329105AF
:1022B000A105B10520F082E08093E5012DC0809159
:1022C000DA019091DB01A091DC01B091DD018C314C
:1022D0009105A105B10588F08091DA019091DB01AB
:1022E000A091DC01B091DD018D329105A105B10510
:1022F00020F481E08093E5010FC08091DA01909194
:10230000DB01A091DC01B091DD018C319105A105CB
:10231000B10510F41092E501CF91DF910895DF939C
:10232000CF93CDB7DEB78091DE019091DF01A09110
:10233000E001B091E101803A26E8920721E0A2078E
:1023400020E0B20720F082E08093E40146C0809153
:10235000DE019091DF01A091E001B091E1018031B7
:1023600027E2920720E0A20720E0B207A0F08091C8
:10237000DE019091DF01A091E001B091E101803A8E
:1023800026E8920721E0A20720E0B20720F481E0CE
:102390008093E40122C08091DE019091DF01A09141
:1023A000E001B091E1018C3221E0920720E0A20728
:1023B00020E0B20790F08091DE019091DF01A091C2
:1023C000E001B091E101803127E2920720E0A2070D
:1023D00020E0B20710F41092E401CF91DF9108954C
:1023E000DF93CF93CDB7DEB70E94852081E067E011
:1023F00041E00E94550D28E730E083E06AE0A90142
:102400000E942E20CF91DF910895DF93CF93CDB717
:10241000DEB70E94852081E067E040E00E94550D14
:1024200020E830E083E06AE0A9010E942E20CF91ED
:10243000DF910895DF93CF93CDB7DEB70E9491204F
:1024400081E067E040E00E94550D20E830E083E045
:102450006AE0A9010E942E20CF91DF910895DF93B9
:10246000CF93CDB7DEB76E970FB6F894DEBF0FBE31
:10247000CDBFAFE5B0E0EFE5F0E0808180688C9300
:102480000E94C2140E9475070E94FD2D80E061E049
:1024900041E00E946A0C80E061E040E00E94550D3E
:1024A0000E941B160E9474200E94741481E067E051
:1024B00041E00E946A0C29E830E080E060E0A90178
:1024C0000E942E2022E930E080E06DE0A9010E9408
:1024D0002E2026E930E081E060E0A9010E942E2054
:1024E0002EE930E081E06BE0A9010E942E2020EA75
:1024F00030E082E060E0A9010E942E202BEA30E06B
:1025000082E06FE0A9010E942E200E9471159E8F2B
:102510008D8F82E06BE00E94EC1F8D8D9E8D843646
:10252000910528F08D8D9E8D0E94472007C08D8DCE
:102530009E8D0E94472080E20E94481B0E94B9287D
:10254000DC01CB018093DA019093DB01A093DC01E5
:10255000B093DD010E94C429DC01CB018093DE0130
:102560009093DF01A093E001B093E1018091DA0143
:102570009091DB01A091DC01B091DD01BC01CD01A6
:102580000E94EA108091DE019091DF01A091E001AC
:10259000B091E101BC01CD010E94A80F0E944A1137
:1025A0000E948F110E9485142EEA30E083E060E0E3
:1025B000A9010E942E2080E090E0AAE7B4E4898F70
:1025C0009A8FAB8FBC8F698D7A8D8B8D9C8D20E01F
:1025D00030E04AE755E40E941F02DC01CB018D8BFD
:1025E0009E8BAF8BB88F6D897E898F89988D20E007
:1025F00030E040E85FE30E94250488232CF481E06A
:1026000090E09C8B8B8B3FC06D897E898F89988DE4
:1026100020E03FEF4FE757E40E94C50318164CF542
:10262000698D7A8D8B8D9C8D20E030E040E251E405
:102630000E941F02DC01CB01BC01CD010E944900B8
:10264000DC01CB019C8B8B8B0FC080E991E09A8BD6
:10265000898B89899A890197F1F79A8B898B8B8964
:102660009C8901979C8B8B8B8B899C89009769F740
:1026700014C06D897E898F89988D0E944900DC0184
:10268000CB019C8B8B8B8B899C89988B8F878F85BB
:1026900098890197F1F7988B8F870E94911427EB07
:1026A00030E083E060E0A9010E942E2080E090E00D
:1026B000AAE7B5E48B879C87AD87BE876B857C8551
:1026C0008D859E8520E030E04AE755E40E941F0298
:1026D000DC01CB018F839887A987BA876F817885C2
:1026E00089859A8520E030E040E85FE30E94250478
:1026F00088232CF481E090E09E838D833FC06F811E
:10270000788589859A8520E03FEF4FE757E40E945E
:10271000C50318164CF56B857C858D859E8520E05C
:1027200030E040E251E40E941F02DC01CB01BC0119
:10273000CD010E944900DC01CB019E838D830FC037
:1027400080E991E09C838B838B819C810197F1F7D9
:102750009C838B838D819E8101979E838D838D8148
:102760009E81009769F7D1CE6F81788589859A859A
:102770000E944900DC01CB019E838D838D819E8167
:102780009A83898389819A810197F1F79A83898352
:10279000BCCE1F920F920FB60F9211248F939F936E
:1027A000DF93CF93CDB7DEB78091E801813079F424
:1027B0008091E6019091E7019093EA018093E9010D
:1027C0001092E8011092E7011092E6010DC080918D
:1027D000E801882349F48091E6019091E701019690
:1027E0009093E7018093E601CF91DF919F918F91C4
:1027F0000F900FBE0F901F901895DF93CF93CDB71A
:10280000DEB783E062E040E00E946A0CA5E5B0E03C
:10281000E5E5F0E0808183608C93ABE5B0E0EBE52B
:10282000F0E0808180688C93CF91DF910895DF93F1
:10283000CF93CDB7DEB781E08093E801CF91DF91F0
:102840000895DF93CF93CDB7DEB72E970FB6F894E8
:10285000DEBF0FBECDBFCE0101969B878A87E8EC15
:10286000F1E0FD87EC87F9E0FE87EC85FD850080CF
:102870008C859D8501969D878C87EA85FB850082E6
:102880008A859B8501969B878A879E8591509E8726
:10289000EE85EE2351F70E94FD132E960FB6F894A5
:1028A000DEBF0FBECDBFCF91DF910895DF93CF93F1
:1028B00000D0CDB7DEB71A8219822091E90130919C
:1028C000EA018CE390E0AC01249FC001259F900DAC
:1028D000349F900D11249A83898389819A810F9066
:1028E0000F90CF91DF910895DF93CF93CDB7DEB7EF
:1028F00080E060E041E00E946A0C80E060E040E03F
:102900000E94550DCF91DF910895DF93CF93CDB7FE
:10291000DEB780E060E041E00E94550DCF91DF918D
:102920000895DF93CF93CDB7DEB780E060E040E05D
:102930000E94550DCF91DF910895DF93CF93CDB7CE
:10294000DEB78091EB018F5F8093EB018091EB010B
:10295000813031F40E94430C80E00E94190C0FC0BA
:102960008091EB01823059F40E94380C9093ED0174
:102970008093EC0181E00E94190C1092EB01CF9141
:10298000DF910895DF93CF9300D0CDB7DEB782E01B
:10299000898381E08A838DE994E10E94070CCE014E
:1029A00001960E94AB0B81E065E041E00E946A0C59
:1029B00081E065E040E00E94550D0F900F90CF91AF
:1029C000DF910895DF93CF93CDB7DEB72E970FB683
:1029D000F894DEBF0FBECDBF81E065E041E00E940C
:1029E000550D8AE999E9A9E1BEE38B879C87AD87FC
:1029F000BE876B857C858D859E8520E030E04AE72B
:102A000055E40E941F02DC01CB018F839887A987C0
:102A1000BA876F81788589859A8520E030E040E823
:102A20005FE30E94250488232CF481E090E09E83DC
:102A30008D833FC06F81788589859A8520E03FEF3F
:102A40004FE757E40E94C50318164CF56B857C854B
:102A50008D859E8520E030E040E251E40E941F0217
:102A6000DC01CB01BC01CD010E944900DC01CB019E
:102A70009E838D830FC080E991E09C838B838B8143
:102A80009C810197F1F79C838B838D819E810197B7
:102A90009E838D838D819E81009769F714C06F811D
:102AA000788589859A850E944900DC01CB019E8347
:102AB0008D838D819E819A83898389819A810197F3
:102AC000F1F79A83898381E065E040E00E94550D2B
:102AD0002E960FB6F894DEBF0FBECDBFCF91DF911B
:102AE0000895DF93CF9300D0CDB7DEB70E94E214F4
:102AF0008091EC019091ED01CC01A0E0B0E0BC012F
:102B0000CD010E940705DC01CB01BC01CD0128E20B
:102B10003EE74CE85CE30E941F02DC01CB01BC01F4
:102B2000CD0120E030E040E050E40E941903DC01D8
:102B3000CB01BC01CD0120E030E040E85FE30E9422
:102B4000F201DC01CB01BC01CD010E944900DC0196
:102B5000CB018093F2019093F301A093F401B09321
:102B6000F5018091F2019091F301A091F401B091EF
:102B7000F501863521E0920720E0A20720E0B207A8
:102B8000F0F08091F2019091F301A091F401B091E5
:102B9000F5010296A11DB11D8093EE019093EF0106
:102BA000A093F001B093F1018091EE019091EF01BB
:102BB000A091F001B091F1019A83898335C0809191
:102BC000F2019091F301A091F401B091F5018A39DD
:102BD0009105A105B105F0F08091F2019091F3010A
:102BE000A091F401B091F5010196A11DB11D809352
:102BF000EE019093EF01A093F001B093F101809169
:102C0000EE019091EF01A091F001B091F1019A8352
:102C100089830AC08091F2019091F301A091F4019F
:102C2000B091F5019A83898389819A810F900F90E1
:102C3000CF91DF910895DF93CF93CDB7DEB72E9775
:102C40000FB6F894DEBF0FBECDBF80E063E041E079
:102C50000E946A0C80E062E041E00E946A0C80E021
:102C600090E0A0EAB1E48B879C87AD87BE876B8537
:102C70007C858D859E8520E030E04AE755E40E9402
:102C80001F02DC01CB018F839887A987BA876F81E8
:102C9000788589859A8520E030E040E85FE30E94EE
:102CA000250488232CF481E090E09E838D833FC02F
:102CB0006F81788589859A8520E03FEF4FE757E45B
:102CC0000E94C50318164CF56B857C858D859E8505
:102CD00020E030E040E251E40E941F02DC01CB0121
:102CE000BC01CD010E944900DC01CB019E838D8394
:102CF0000FC080E991E09C838B838B819C8101973D
:102D0000F1F79C838B838D819E8101979E838D83B8
:102D10008D819E81009769F714C06F8178858985C0
:102D20009A850E944900DC01CB019E838D838D81B1
:102D30009E819A83898389819A810197F1F79A8389
:102D4000898381E060E041E00E946A0C81E061E0FB
:102D500041E00E946A0C81E062E041E00E946A0C5E
:102D600081E064E041E00E946A0C83E30E94CD169A
:102D700082E30E94CD1688E20E94CD168CE00E946C
:102D8000CD1681E00E94CD162E960FB6F894DEBFC8
:102D90000FBECDBFCF91DF9108950F931F93DF93A7
:102DA000CF93CDB7DEB7C356D0400FB6F894DEBF91
:102DB0000FBECDBFFE01ED59FF4F808380E063E081
:102DC00040E00E94550DFE01E15AFF4F80E090E087
:102DD000A0E8BFE380839183A283B3838E01055A69
:102DE0001F4FFE01E15AFF4F608171818281938103
:102DF00020E030E04AE755E40E941F02DC01CB01ED
:102E0000F80180839183A283B383FE01E55AFF4FCB
:102E1000608171818281938120E030E040E85FE34E
:102E20000E942504882344F4FE01E75AFF4F81E005
:102E300090E09183808364C0FE01E55AFF4F60817A
:102E400071818281938120E03FEF4FE757E40E9438
:102E5000C50318160CF043C0FE01E15AFF4F608114
:102E600071818281938120E030E040E251E40E9450
:102E70001F02DC01CB018E01075A1F4FBC01CD019F
:102E80000E944900DC01CB01F801918380831FC0BF
:102E9000FE01E95AFF4F80E991E091838083FE01B2
:102EA000E95AFF4F808191810197F1F7FE01E95ABC
:102EB000FF4F91838083DE01A75ABF4FFE01E75A7F
:102EC000FF4F80819181019711969C938E93FE0113
:102ED000E75AFF4F808191810097D1F627C08E017C
:102EE000075A1F4FFE01E55AFF4F608171818281B1
:102EF00093810E944900DC01CB01F801918380831A
:102F0000DE01AB5ABF4FFE01E75AFF4F808191812E
:102F10008D939C93FE01EB5AFF4F80819181019725
:102F2000F1F7FE01EB5AFF4F9183808380E062E06E
:102F300041E00E94550DFE01EF5AFF4F80E090E006
:102F4000A0E8BFE380839183A283B3838E01035BF8
:102F50001F4FFE01EF5AFF4F608171818281938183
:102F600020E030E04AE755E40E941F02DC01CB017B
:102F7000F80180839183A283B383FE01E35BFF4F5B
:102F8000608171818281938120E030E040E85FE3DD
:102F90000E942504882344F4FE01E55BFF4F81E095
:102FA00090E09183808364C0FE01E35BFF4F60810A
:102FB00071818281938120E03FEF4FE757E40E94C7
:102FC000C50318160CF043C0FE01EF5AFF4F608195
:102FD00071818281938120E030E040E251E40E94DF
:102FE0001F02DC01CB018E01055B1F4FBC01CD012F
:102FF0000E944900DC01CB01F801918380831FC04E
:10300000FE01E75BFF4F80E991E091838083FE0141
:10301000E75BFF4F808191810197F1F7FE01E75B4C
:10302000FF4F91838083DE01A55BBF4FFE01E55B0F
:10303000FF4F80819181019711969C938E93FE01A1
:10304000E55BFF4F808191810097D1F627C08E010B
:10305000055B1F4FFE01E35BFF4F60817181828141
:1030600093810E944900DC01CB01F80191838083A8
:10307000DE01A95BBF4FFE01E55BFF4F80819181BF
:103080008D939C93FE01E95BFF4F808191810197B5
:10309000F1F7FE01E95BFF4F91838083FE01ED595B
:1030A000FF4F8081882F90E0807190709595879573
:1030B000959587959595879595958795982F81E016
:1030C00060E0492F0E94550DFE01ED59FF4F8081B0
:1030D000882F90E08072907095958795959587954B
:1030E000959587959595879595958795982F81E0E6
:1030F00061E0492F0E94550DFE01ED59FF4F80817F
:10310000882F90E080749070082E892F000C881F03
:10311000990B000C881F991F982F81E062E0492FBE
:103120000E94550DFE01ED59FF4F8081982F991F88
:103130009927991F81E064E0492F0E94550DFE01F7
:10314000ED5BFF4F80E090E0A0E8BFE380839183D8
:10315000A283B3838E01015C1F4FFE01ED5BFF4F25
:10316000608171818281938120E030E04AE755E4FB
:103170000E941F02DC01CB01F80180839183A283AE
:10318000B383FE01FF96608171818281938120E08B
:1031900030E040E85FE30E94250488232CF481E0BE
:1031A00090E09EAF8DAF46C0FE01FF9660817181B9
:1031B0008281938120E03FEF4FE757E40E94C503EF
:1031C000181664F5FE01ED5BFF4F6081718182810D
:1031D000938120E030E040E251E40E941F02DC01D4
:1031E000CB01BC01CD010E944900DC01CB019EAFA7
:1031F0008DAF0FC080E991E09CAF8BAF8BAD9CADE4
:103200000197F1F79CAF8BAF8DAD9EAD01979EAF4F
:103210008DAF8DAD9EAD009769F716C0FE01FF968C
:1032200060817181828193810E944900DC01CB0120
:103230009EAF8DAF8DAD9EAD9AAF89AF89AD9AAD82
:103240000197F1F79AAF89AF80E062E040E00E9419
:10325000550D80E090E0A0E8BFE38DAB9EABAFAB37
:10326000B8AF6DA97EA98FA998AD20E030E04AE7FC
:1032700055E40E941F02DC01CB0189AB9AABABABDA
:10328000BCAB69A97AA98BA99CA920E030E040E8F1
:103290005FE30E94250488232CF481E090E098AB42
:1032A0008FA73FC069A97AA98BA99CA920E03FEF0D
:1032B0004FE757E40E94C50318164CF56DA97EA987
:1032C0008FA998AD20E030E040E251E40E941F0257
:1032D000DC01CB01BC01CD010E944900DC01CB0126
:1032E00098AB8FA70FC080E991E09EA78DA78DA511
:1032F0009EA50197F1F79EA78DA78FA598A9019785
:1033000098AB8FA78FA598A9009769F714C069A9F2
:103310007AA98BA99CA90E944900DC01CB0198AB3A
:103320008FA78FA598A99CA78BA78BA59CA5019774
:10333000F1F79CA78BA780E062E041E00E94550D69
:1033400080E090E0A0E8BFE38FA398A7A9A7BAA761
:103350006FA178A589A59AA520E030E04AE755E459
:103360000E941F02DC01CB018BA39CA3ADA3BEA3D3
:103370006BA17CA18DA19EA120E030E040E85FE33D
:103380000E94250488232CF481E090E09AA389A36D
:103390003FC06BA17CA18DA19EA120E03FEF4FE734
:1033A00057E40E94C50318164CF56FA178A589A5AE
:1033B0009AA520E030E040E251E40E941F02DC01C7
:1033C000CB01BC01CD010E944900DC01CB019AA3D5
:1033D00089A30FC080E991E098A38F8F8F8D98A16A
:1033E0000197F1F798A38F8F89A19AA101979AA3CA
:1033F00089A389A19AA1009769F714C06BA17CA148
:103400008DA19EA10E944900DC01CB019AA389A352
:1034100089A19AA19E8F8D8F8D8D9E8D0197F1F739
:103420009E8F8D8FFE01ED59FF4F8081982F9170F7
:1034300081E060E0492F0E94550DFE01ED59FF4FDC
:103440008081882F90E08270907095958795982F55
:1034500081E061E0492F0E94550DFE01ED59FF4FBB
:103460008081882F90E084709070959587959595D0
:103470008795982F81E062E0492F0E94550DFE014B
:10348000ED59FF4F8081882F90E08870907095955E
:1034900087959595879595958795982F81E064E018
:1034A000492F0E94550D80E090E0A0E8BFE3898F8E
:1034B0009A8FAB8FBC8F698D7A8D8B8D9C8D20E020
:1034C00030E04AE755E40E941F02DC01CB018D8BFE
:1034D0009E8BAF8BB88F6D897E898F89988D20E008
:1034E00030E040E85FE30E94250488232CF481E06B
:1034F00090E09C8B8B8B3FC06D897E898F89988DE6
:1035000020E03FEF4FE757E40E94C50318164CF543
:10351000698D7A8D8B8D9C8D20E030E040E251E406
:103520000E941F02DC01CB01BC01CD010E944900B9
:10353000DC01CB019C8B8B8B0FC080E991E09A8BD7
:10354000898B89899A890197F1F79A8B898B8B8965
:103550009C8901979C8B8B8B8B899C89009769F741
:1035600014C06D897E898F89988D0E944900DC0185
:10357000CB019C8B8B8B8B899C89988B8F878F85BC
:1035800098890197F1F7988B8F8780E062E040E09F
:103590000E94550D80E090E0A0E8BFE38B879C87F8
:1035A000AD87BE876B857C858D859E8520E030E06C
:1035B0004AE755E40E941F02DC01CB018F83988704
:1035C000A987BA876F81788589859A8520E030E060
:1035D00040E85FE30E94250488232CF481E090E01A
:1035E0009E838D833FC06F81788589859A8520E091
:1035F0003FEF4FE757E40E94C50318164CF56B8563
:103600007C858D859E8520E030E040E251E40E947B
:103610001F02DC01CB01BC01CD010E944900DC018D
:10362000CB019E838D830FC080E991E09C838B83C7
:103630008B819C810197F1F79C838B838D819E8187
:1036400001979E838D838D819E81009769F714C0B9
:103650006F81788589859A850E944900DC01CB01BC
:103660009E838D838D819E819A83898389819A81AE
:103670000197F1F79A838983CD59DF4F0FB6F894FC
:10368000DEBF0FBECDBFCF91DF911F910F91089587
:103690000F931F93DF93CF93CDB7DEB7C356D040C0
:1036A0000FB6F894DEBF0FBECDBFFE01ED59FF4F40
:1036B000808380E063E041E00E94550DFE01E15A05
:1036C000FF4F80E090E0A0E8BFE380839183A28376
:1036D000B3838E01055A1F4FFE01E15AFF4F6081EF
:1036E00071818281938120E030E04AE755E40E94B5
:1036F0001F02DC01CB01F80180839183A283B38395
:10370000FE01E55AFF4F608171818281938120E043
:1037100030E040E85FE30E942504882344F4FE0182
:10372000E75AFF4F81E090E09183808364C0FE01FF
:10373000E55AFF4F608171818281938120E03FEFE4
:103740004FE757E40E94C50318160CF043C0FE0172
:10375000E15AFF4F608171818281938120E030E0E6
:1037600040E251E40E941F02DC01CB018E01075AA6
:103770001F4FBC01CD010E944900DC01CB01F801C3
:10378000918380831FC0FE01E95AFF4F80E991E0D9
:1037900091838083FE01E95AFF4F808191810197D7
:1037A000F1F7FE01E95AFF4F91838083DE01A75AAA
:1037B000BF4FFE01E75AFF4F80819181019711961B
:1037C0009C938E93FE01E75AFF4F80819181009771
:1037D000D1F627C08E01075A1F4FFE01E55AFF4F51
:1037E00060817181828193810E944900DC01CB015B
:1037F000F80191838083DE01AB5ABF4FFE01E75A87
:10380000FF4F808191818D939C93FE01EB5AFF4F76
:10381000808191810197F1F7FE01EB5AFF4F91836F
:10382000808380E062E041E00E94550DFE01EF5A86
:10383000FF4F80E090E0A0E8BFE380839183A28304
:10384000B3838E01035B1F4FFE01EF5AFF4F608170
:1038500071818281938120E030E04AE755E40E9443
:103860001F02DC01CB01F80180839183A283B38323
:10387000FE01E35BFF4F608171818281938120E0D3
:1038800030E040E85FE30E942504882344F4FE0111
:10389000E55BFF4F81E090E09183808364C0FE018F
:1038A000E35BFF4F608171818281938120E03FEF74
:1038B0004FE757E40E94C50318160CF043C0FE0101
:1038C000EF5AFF4F608171818281938120E030E067
:1038D00040E251E40E941F02DC01CB018E01055B36
:1038E0001F4FBC01CD010E944900DC01CB01F80152
:1038F000918380831FC0FE01E75BFF4F80E991E069
:1039000091838083FE01E75BFF4F80819181019766
:10391000F1F7FE01E75BFF4F91838083DE01A55B3A
:10392000BF4FFE01E55BFF4F8081918101971196AA
:103930009C938E93FE01E55BFF4F80819181009700
:10394000D1F627C08E01055B1F4FFE01E35BFF4FE1
:1039500060817181828193810E944900DC01CB01E9
:10396000F80191838083DE01A95BBF4FFE01E55B17
:10397000FF4F808191818D939C93FE01E95BFF4F06
:10398000808191810197F1F7FE01E95BFF4F9183FF
:103990008083FE01ED59FF4F8081882F90E0807178
:1039A000907095958795959587959595879595951B
:1039B0008795982F81E060E0492F0E94550DFE0108
:1039C000ED59FF4F8081882F90E08072907095951F
:1039D00087959595879595958795959587959595CF
:1039E0008795982F81E061E0492F0E94550DFE01D7
:1039F000ED59FF4F8081882F90E080749070082EE1
:103A0000892F000C881F990B000C881F991F982F75
:103A100081E062E0492F0E94550DFE01ED59FF4FF4
:103A20008081982F991F9927991F81E064E0492F81
:103A30000E94550DFE01ED5BFF4F80E090E0A0E895
:103A4000BFE380839183A283B3838E01015C1F4F08
:103A5000FE01ED5BFF4F608171818281938120E0E7
:103A600030E04AE755E40E941F02DC01CB01F80177
:103A700080839183A283B383FE01FF96608171816D
:103A80008281938120E030E040E85FE30E942504DA
:103A900088232CF481E090E09EAF8DAF46C0FE01FC
:103AA000FF96608171818281938120E03FEF4FE733
:103AB00057E40E94C503181664F5FE01ED5BFF4F45
:103AC000608171818281938120E030E040E251E4A5
:103AD0000E941F02DC01CB01BC01CD010E94490004
:103AE000DC01CB019EAF8DAF0FC080E991E09CAFB0
:103AF0008BAF8BAD9CAD0197F1F79CAF8BAF8DADCC
:103B00009EAD01979EAF8DAF8DAD9EAD009769F7CD
:103B100016C0FE01FF9660817181828193810E94AF
:103B20004900DC01CB019EAF8DAF8DAD9EAD9AAF4C
:103B300089AF89AD9AAD0197F1F79AAF89AF80E06F
:103B400062E040E00E94550D80E090E0A0E8BFE315
:103B50008DAB9EABAFABB8AF6DA97EA98FA998AD69
:103B600020E030E04AE755E40E941F02DC01CB016F
:103B700089AB9AABABABBCAB69A97AA98BA99CA961
:103B800020E030E040E85FE30E94250488232CF425
:103B900081E090E098AB8FA73FC069A97AA98BA973
:103BA0009CA920E03FEF4FE757E40E94C503181699
:103BB0004CF56DA97EA98FA998AD20E030E040E2D8
:103BC00051E40E941F02DC01CB01BC01CD010E9427
:103BD0004900DC01CB0198AB8FA70FC080E991E0D1
:103BE0009EA78DA78DA59EA50197F1F79EA78DA7EE
:103BF0008FA598A9019798AB8FA78FA598A9009733
:103C000069F714C069A97AA98BA99CA90E944900E7
:103C1000DC01CB0198AB8FA78FA598A99CA78BA798
:103C20008BA59CA50197F1F79CA78BA780E062E08C
:103C300041E00E94550D80E090E0A0E8BFE38FA333
:103C400098A7A9A7BAA76FA178A589A59AA520E0EA
:103C500030E04AE755E40E941F02DC01CB018BA350
:103C60009CA3ADA3BEA36BA17CA18DA19EA120E0CE
:103C700030E040E85FE30E94250488232CF481E0D3
:103C800090E09AA389A33FC06BA17CA18DA19EA1C6
:103C900020E03FEF4FE757E40E94C50318164CF5AC
:103CA0006FA178A589A59AA520E030E040E251E413
:103CB0000E941F02DC01CB01BC01CD010E94490022
:103CC000DC01CB019AA389A30FC080E991E098A3FE
:103CD0008F8F8F8D98A10197F1F798A38F8F89A16E
:103CE0009AA101979AA389A389A19AA1009769F73C
:103CF00014C06BA17CA18DA19EA10E944900DC0192
:103D0000CB019AA389A389A19AA19E8F8D8F8D8DB6
:103D10009E8D0197F1F79E8F8D8FFE01ED59FF4F1C
:103D20008081982F917081E060E0492F0E94550DAD
:103D3000FE01ED59FF4F8081882F90E082709070D6
:103D400095958795982F81E061E0492F0E94550D48
:103D5000FE01ED59FF4F8081882F90E084709070B4
:103D60009595879595958795982F81E062E0492FE5
:103D70000E94550DFE01ED59FF4F8081882F90E084
:103D80008870907095958795959587959595879569
:103D9000982F81E064E0492F0E94550D80E090E06B
:103DA000A0E8BFE3898F9A8FAB8FBC8F698D7A8D26
:103DB0008B8D9C8D20E030E04AE755E40E941F0285
:103DC000DC01CB018D8B9E8BAF8BB88F6D897E898B
:103DD0008F89988D20E030E040E85FE30E94250461
:103DE00088232CF481E090E09C8B8B8B3FC06D8905
:103DF0007E898F89988D20E03FEF4FE757E40E943E
:103E0000C50318164CF5698D7A8D8B8D9C8D20E03D
:103E100030E040E251E40E941F02DC01CB01BC0112
:103E2000CD010E944900DC01CB019C8B8B8B0FC024
:103E300080E991E09A8B898B89899A890197F1F7BA
:103E40009A8B898B8B899C8901979C8B8B8B8B8917
:103E50009C89009769F714C06D897E898F89988D38
:103E60000E944900DC01CB019C8B8B8B8B899C8948
:103E7000988B8F878F8598890197F1F7988B8F871B
:103E800080E062E040E00E94550D80E090E0A0E814
:103E9000BFE38B879C87AD87BE876B857C858D85CF
:103EA0009E8520E030E04AE755E40E941F02DC01D5
:103EB000CB018F839887A987BA876F817885898599
:103EC0009A8520E030E040E85FE30E9425048823E3
:103ED0002CF481E090E09E838D833FC06F817885D4
:103EE00089859A8520E03FEF4FE757E40E94C5039C
:103EF00018164CF56B857C858D859E8520E030E01D
:103F000040E251E40E941F02DC01CB01BC01CD0163
:103F10000E944900DC01CB019E838D830FC080E9A4
:103F200091E09C838B838B819C810197F1F79C832B
:103F30008B838D819E8101979E838D838D819E8150
:103F4000009769F714C06F81788589859A850E94EA
:103F50004900DC01CB019E838D838D819E819A83F4
:103F6000898389819A810197F1F79A838983CD5951
:103F7000DF4F0FB6F894DEBF0FBECDBFCF91DF91FC
:103F80001F910F910895DF93CF9300D00F92CDB77B
:103F9000DEB79B838A8319820EC08981282F30E087
:103FA0008A819B81FC01E20FF31F80810E94481BE4
:103FB00089818F5F89838981282F30E08A819B8165
:103FC000FC01E20FF31F8081882339F70F900F90D7
:103FD0000F90CF91DF910895DF93CF9300D000D061
:103FE0000F92CDB7DEB78A836B838A81282F30E0AA
:103FF0003D832C838C819D8181309105C1F02C8182
:104000003D81223031052CF48C819D81009761F037
:1040100019C02C813D812230310569F08C819D8150
:104020008330910561F00EC08B8189830BC08B8139
:104030008054898307C08B818C56898303C08B8110
:104040008C528983898180680E94CD160F900F90D1
:104050000F900F900F90CF91DF910895DF93CF9342
:1040600000D000D0CDB7DEB789836A835C834B83F1
:1040700089816A810E94EC1F8B819C810E94C31FF1
:104080000F900F900F900F90CF91DF910895DF93D5
:10409000CF93CDB7DEB762970FB6F894DEBF0FBEF1
:1040A000CDBF9A8B898B89899A899E012F5F3F4F5B
:1040B000B9014AE050E00E946A2FCE0101960E94A9
:1040C000C31F62960FB6F894DEBF0FBECDBFCF916F
:1040D000DF910895DF93CF93CDB7DEB781E00E94E3
:1040E000CD16CF91DF910895DF93CF93CDB7DEB793
:1040F00082E066E041E00E946A0C82E066E040E017
:104100000E94550DCF91DF910895DF93CF93CDB7E6
:10411000DEB782E066E041E00E94550DCF91DF916D
:104120000895DF93CF93CDB7DEB782E066E040E03D
:104130000E94550DCF91DF9108950F931F93DF9348
:10414000CF93CDB7DEB7C259D0400FB6F894DEBFDB
:104150000FBECDBFCE0183589F4F26E1FC01DF018A
:10416000822F1D928A95E9F7FE01E558FF4F8AEAF2
:1041700090E091838083FE01E758FF4F1182108207
:10418000D9C48EEE0E941A08FE01EB58FF4F80E062
:1041900090E0A0E2B1E480839183A283B3838E0197
:1041A0000F581F4FFE01EB58FF4F608171818281D4
:1041B00093812BEA3AEA4AEA50E40E941F02DC01AA
:1041C000CB01F80180839183A283B383FE01EF5872
:1041D000FF4F608171818281938120E030E040E86F
:1041E0005FE30E942504882334F4FE01E059FF4F69
:1041F00081E08083E0C0FE01EF58FF4F6081718154
:104200008281938120E030E04FE753E40E94C503B0
:1042100018160CF0C0C0FE01EB58FF4F6081718191
:104220008281938120E030E04AE754E40E94190340
:10423000DC01CB01FE01E459FF4F80839183A2830F
:10424000B3838E0108591F4FFE01E459FF4F60816F
:1042500071818281938120E030E04AE755E40E9439
:104260001F02DC01CB01F80180839183A283B38319
:10427000FE01E859FF4F608171818281938120E0C6
:1042800030E040E85FE30E942504882344F4FE0107
:10429000EA59FF4F81E090E09183808364C0FE0182
:1042A000E859FF4F608171818281938120E03FEF67
:1042B0004FE757E40E94C50318160CF043C0FE01F7
:1042C000E459FF4F608171818281938120E030E069
:1042D00040E251E40E941F02DC01CB018E010A5929
:1042E0001F4FBC01CD010E944900DC01CB01F80148
:1042F000918380831FC0FE01EC59FF4F80E991E05C
:1043000091838083FE01EC59FF4F80819181019759
:10431000F1F7FE01EC59FF4F91838083DE01AA592A
:10432000BF4FFE01EA59FF4F80819181019711969D
:104330009C938E93FE01EA59FF4F808191810097F3
:10434000D1F64BC08E010A591F4FFE01E859FF4FAD
:1043500060817181828193810E944900DC01CB01DF
:10436000F80191838083DE01AE59BF4FFE01EA5907
:10437000FF4F8081918111969C938E93FE01EE599F
:10438000FF4F808191810197F1F7FE01EE59FF4FB8
:104390009183808322C08E0100591F4FFE01EF5888
:1043A000FF4F60817181828193810E944900DC010D
:1043B000CB01F8018083DE01AF59BF4FFE01E05908
:1043C000FF4F80818C93FE01EF59FF4F80818A95CA
:1043D000F1F7FE01EF59FF4F8083FE01E558FF4FD3
:1043E0009081FE01E758FF4F8081890F0E94590894
:1043F000FE01E35AFF4F80E090E0A0E2B1E4808349
:104400009183A283B3838E01075A1F4FFE01E35AA3
:10441000FF4F60817181828193812BEA3AEA4AEAF7
:1044200050E40E941F02DC01CB01F80180839183DC
:10443000A283B383FE01E75AFF4F608171818281BD
:10444000938120E030E040E85FE30E942504882368
:1044500034F4FE01E85AFF4F81E08083E0C0FE01A2
:10446000E75AFF4F608171818281938120E030E0C3
:104470004FE753E40E94C50318160CF0C0C0FE01BC
:10448000E35AFF4F608171818281938120E030E0A7
:104490004AE754E40E941903DC01CB01FE01EC5A07
:1044A000FF4F80839183A283B3838E01005B1F4FF4
:1044B000FE01EC5AFF4F608171818281938120E07F
:1044C00030E04AE755E40E941F02DC01CB01F8010D
:1044D00080839183A283B383FE01E05BFF4F608101
:1044E00071818281938120E030E040E85FE30E94A7
:1044F0002504882344F4FE01E25BFF4F81E090E055
:104500009183808364C0FE01E05BFF4F6081718115
:104510008281938120E03FEF4FE757E40E94C5037B
:1045200018160CF043C0FE01EC5AFF4F60817181F8
:104530008281938120E030E040E251E40E941F023A
:10454000DC01CB018E01025B1F4FBC01CD010E943B
:104550004900DC01CB01F801918380831FC0FE017B
:10456000E45BFF4F80E991E091838083FE01E45B8F
:10457000FF4F808191810197F1F7FE01E45BFF4FCE
:1045800091838083DE01A25BBF4FFE01E25BFF4FA0
:1045900080819181019711969C938E93FE01E25B3D
:1045A000FF4F808191810097D1F64BC08E01025B55
:1045B0001F4FFE01E05BFF4F60817181828193811B
:1045C0000E944900DC01CB01F80191838083DE0168
:1045D000A65BBF4FFE01E25BFF4F80819181119688
:1045E0009C938E93FE01E65BFF4F80819181019742
:1045F000F1F7FE01E65BFF4F9183808322C08E01BD
:10460000085A1F4FFE01E75AFF4F60817181828176
:1046100093810E944900DC01CB01F8018083DE0117
:10462000A75BBF4FFE01E85AFF4F80818C93FE01CC
:10463000E75BFF4F80818A95F1F7FE01E75BFF4F53
:1046400080838FEE0E94DD07FE01EB5BFF4F80E071
:1046500090E0A0E2B1E480839183A283B3838E01D2
:104660000F5B1F4FFE01EB5BFF4F60817181828109
:1046700093812BEA3AEA4AEA50E40E941F02DC01E5
:10468000CB01F80180839183A283B383FE01EF5BAA
:10469000FF4F608171818281938120E030E040E8AA
:1046A0005FE30E942504882334F481E0FE01E05C8E
:1046B000FF4F80839DC0FE01EF5BFF4F60817181E2
:1046C0008281938120E030E04FE753E40E94C503EC
:1046D00018160CF07EC0FE01EB5BFF4F608171810C
:1046E0008281938120E030E04AE754E40E9419037C
:1046F000DC01CB018CAF9DAFAEAFBFAF6CAD7DAD7C
:104700008EAD9FAD20E030E04AE755E40E941F02E5
:10471000DC01CB0188AF99AFAAAFBBAF68AD79AD73
:104720008AAD9BAD20E030E040E85FE30E942504C5
:1047300088232CF481E090E09FAB8EAB3FC068AD46
:1047400079AD8AAD9BAD20E03FEF4FE757E40E9483
:10475000C50318164CF56CAD7DAD8EAD9FAD20E058
:1047600030E040E251E40E941F02DC01CB01BC01B9
:10477000CD010E944900DC01CB019FAB8EAB0FC085
:1047800080E991E09DAB8CAB8CA99DA90197F1F7D5
:104790009DAB8CAB8EA99FA901979FAB8EAB8EA9C9
:1047A0009FA9009769F72DC068AD79AD8AAD9BAD23
:1047B0000E944900DC01CB019FAB8EAB8EA99FA963
:1047C0009BAB8AAB8AA99BA90197F1F79BAB8AABFC
:1047D00018C0FE01EF5BFF4F608171818281938180
:1047E0000E944900DC01CB01FE01E05CFF4F8083A9
:1047F000FE01E05CFF4F808189AB89A98A95F1F7C2
:1048000089ABFE01E758FF4F008111810E948308A8
:10481000282FCE0183589F4FFC01E00FF11F20830A
:1048200080E090E0A0E2B1E48DA79EA7AFA7B8AB6F
:104830006DA57EA58FA598A92BEA3AEA4AEA50E42D
:104840000E941F02DC01CB0189A79AA7ABA7BCA7D6
:1048500069A57AA58BA59CA520E030E040E85FE340
:104860000E94250488231CF481E088A791C069A5D3
:104870007AA58BA59CA520E030E04FE753E40E9489
:10488000C50318160CF07BC06DA57EA58FA598A951
:1048900020E030E04AE754E40E941903DC01CB0138
:1048A0008CA39DA3AEA3BFA36CA17DA18EA19FA14C
:1048B00020E030E04AE755E40E941F02DC01CB0112
:1048C00088A399A3AAA3BBA368A179A18AA19BA14C
:1048D00020E030E040E85FE30E94250488232CF4C8
:1048E00081E090E09F8F8E8F3FC068A179A18AA15F
:1048F0009BA120E03FEF4FE757E40E94C503181645
:104900004CF56CA17DA18EA19FA120E030E040E29A
:1049100051E40E941F02DC01CB01BC01CD010E94C9
:104920004900DC01CB019F8F8E8F0FC080E991E0A1
:104930009D8F8C8F8C8D9D8D0197F1F79D8F8C8F26
:104940008E8D9F8D01979F8F8E8F8E8D9F8D00975F
:1049500069F724C068A179A18AA19BA10E9449009E
:10496000DC01CB019F8F8E8F8E8D9F8D9B8F8A8FC9
:104970008A8D9B8D0197F1F79B8F8A8F0FC069A558
:104980007AA58BA59CA50E944900DC01CB0188A7D4
:1049900088A5898F898D8A95F1F7898F0E944E08A5
:1049A00080E090E0A0E2B1E48D8B9E8BAF8BB88F5E
:1049B0006D897E898F89988D2BEA3AEA4AEA50E41C
:1049C0000E941F02DC01CB01898B9A8BAB8BBC8BC5
:1049D00069897A898B899C8920E030E040E85FE32F
:1049E0000E94250488231CF481E0888B91C069898A
:1049F0007A898B899C8920E030E04FE753E40E945C
:104A0000C50318160CF07BC06D897E898F89988D3F
:104A100020E030E04AE754E40E941903DC01CB01B6
:104A20008C879D87AE87BF876C857D858E859F85AA
:104A300020E030E04AE755E40E941F02DC01CB0190
:104A400088879987AA87BB87688579858A859B85AA
:104A500020E030E040E85FE30E94250488232CF446
:104A600081E090E09F838E833FC0688579858A8549
:104A70009B8520E03FEF4FE757E40E94C5031816DF
:104A80004CF56C857D858E859F8520E030E040E289
:104A900051E40E941F02DC01CB01BC01CD010E9448
:104AA0004900DC01CB019F838E830FC080E991E038
:104AB0009D838C838C819D810197F1F79D838C83ED
:104AC0008E819F8101979F838E838E819F81009726
:104AD00069F724C0688579858A859B850E9449008D
:104AE000DC01CB019F838E838E819F819B838A8390
:104AF0008A819B810197F1F79B838A830FC0698923
:104B00007A898B899C890E944900DC01CB01888BC2
:104B10008889898389818A95F1F78983DE01A7587D
:104B2000BF4FFE01E758FF4F80819181019611969A
:104B30009C938E93FE01E758FF4F808191818631CF
:104B400091050CF41ECBFE01E358FF4F8081882FA6
:104B500090E0382F2227FE01E358FF4F8181882FF4
:104B600090E0822B932B9093F7018093F601FE0146
:104B7000E358FF4F8281882F90E0382F2227FE01D3
:104B8000E358FF4F8381882F90E0822B932B9093E3
:104B9000F9018093F801FE01E358FF4F8481882FCB
:104BA00090E0382F2227FE01E358FF4F8581882FA0
:104BB00090E0822B932B9093FB018093FA01FE01EE
:104BC000E358FF4F8681882F90E0382F2227FE017F
:104BD000E358FF4F8781882F90E0822B932B90938F
:104BE000070280930602FE01E358FF4F8085882F5D
:104BF00090E0382F2227FE01E358FF4F8185882F50
:104C000090E0822B932B9093090280930802FE017F
:104C1000E358FF4F8285882F90E0382F2227FE012E
:104C2000E358FF4F8385882F90E0822B932B90933E
:104C30000B0280930A02FE01E358FF4F8485882F00
:104C400090E0382F2227FE01E358FF4F8585882FFB
:104C500090E0822B932B9093FD018093FC01FE0149
:104C6000E358FF4F8685882F90E0382F2227FE01DA
:104C7000E358FF4F8785882F90E0822B932B9093EA
:104C8000FF018093FE01FE01E358FF4F8089882FCA
:104C900090E0382F2227FE01E358FF4F8189882FAB
:104CA00090E0822B932B9093010280930002FE01EF
:104CB000E358FF4F8289882F90E0382F2227FE018A
:104CC000E358FF4F8389882F90E0822B932B90939A
:104CD000030280930202FE01E358FF4F8489882F6C
:104CE00090E0382F2227FE01E358FF4F8589882F57
:104CF00090E0822B932B9093050280930402CE5672
:104D0000DF4F0FB6F894DEBF0FBECDBFCF91DF915E
:104D10001F910F910895DF93CF93CDB7DEB76697BC
:104D20000FB6F894DEBF0FBECDBF84E38B8B83E05C
:104D3000FE017496DF01982F1D929A95E9F71F8660
:104D4000188A198A1A8A8EEE0E94A0070E94062EDF
:104D500084EF0E9459080E94062E8B890E945908F0
:104D60000E94062E0E944E0880E090E0A0EAB0E487
:104D70008B879C87AD87BE876B857C858D859E855F
:104D800020E030E04AE755E40E941F02DC01CB013D
:104D90008F839887A987BA876F81788589859A8557
:104DA00020E030E040E85FE30E94250488232CF4F3
:104DB00081E090E09E838D833FC06F8178858985F7
:104DC0009A8520E03FEF4FE757E40E94C50318168D
:104DD0004CF56B857C858D859E8520E030E040E23A
:104DE00051E40E941F02DC01CB01BC01CD010E94F5
:104DF0004900DC01CB019E838D830FC080E991E0E7
:104E00009C838B838B819C810197F1F79C838B839F
:104E10008D819E8101979E838D838D819E810097D8
:104E200069F714C06F81788589859A850E94490049
:104E3000DC01CB019E838D838D819E819A83898342
:104E400089819A810197F1F79A8389838EEE0E9476
:104E50001A080E94062E86EF0E9459080E94062E0C
:104E60008FEE0E94DD070E94062E0E9483088C8B25
:104E70000E94062E0E944E080E94062E8EEE0E9470
:104E80001A080E94062E87EF0E9459080E94062EDB
:104E90008FEE0E94DD070E94062E0E9483088D8BF4
:104EA0000E94062E0E944E080E94062E8EEE0E9440
:104EB0001A080E94062E88EF0E9459080E94062EAA
:104EC0008FEE0E94DD070E94062E0E9483088E8BC3
:104ED0000E94062E0E944E088C89882F90E0A0E048
:104EE000B0E0AC01332722278F859889A989BA8938
:104EF000822B932BA42BB52B8F87988BA98BBA8BE6
:104F00008D89882F90E0A0E0B0E02227382F492F2C
:104F10005A2F8F859889A989BA89822B932BA42B24
:104F2000B52B8F87988BA98BBA8B8E89282F30E071
:104F300040E050E08F859889A989BA89822B932B0C
:104F4000A42BB52B8F87988BA98BBA8B8F859889CB
:104F5000A989BA89892F9A2FAB2FBB278F87988B66
:104F6000A98BBA8B8F859889A989BA89BC01CD0193
:104F700066960FB6F894DEBF0FBECDBFCF91DF911E
:104F80000895DF93CF93CDB7DEB765970FB6F8944A
:104F9000DEBF0FBECDBF188A198A1A8A1B8A8EE21D
:104FA0008F871D8A1C8A8EEE0E94A0070E94062E03
:104FB00084EF0E9459080E94062E8F850E9459088E
:104FC0000E94062E0E944E0880E090E0A0EAB0E425
:104FD0008B879C87AD87BE876B857C858D859E85FD
:104FE00020E030E04AE755E40E941F02DC01CB01DB
:104FF0008F839887A987BA876F81788589859A85F5
:1050000020E030E040E85FE30E94250488232CF490
:1050100081E090E09E838D833FC06F817885898594
:105020009A8520E03FEF4FE757E40E94C50318162A
:105030004CF56B857C858D859E8520E030E040E2D7
:1050400051E40E941F02DC01CB01BC01CD010E9492
:105050004900DC01CB019E838D830FC080E991E084
:105060009C838B838B819C810197F1F79C838B833D
:105070008D819E8101979E838D838D819E81009776
:1050800069F714C06F81788589859A850E944900E7
:10509000DC01CB019E838D838D819E819A838983E0
:1050A00089819A810197F1F79A8389838EEE0E9414
:1050B0001A080E94062E86EF0E9459080E94062EAA
:1050C0008FEE0E94DD070E94062E0E9483088C8BC3
:1050D0000E94062E0E944E080E94062E8EEE0E940E
:1050E0001A080E94062E87EF0E9459080E94062E79
:1050F0008FEE0E94DD070E94062E0E9483088D8B92
:105100000E94062E0E944E088C89882F90E0A0E015
:10511000B0E02227382F492F5A2F88899989AA89E8
:10512000BB89822B932BA42BB52B888B998BAA8BB5
:10513000BB8B8D89282F30E040E050E08889998929
:10514000AA89BB89822B932BA42BB52B888B998B97
:10515000AA8BBB8B88899989AA89BB89BC01CD019F
:1051600065960FB6F894DEBF0FBECDBFCF91DF912D
:105170000895EF92FF920F931F93DF93CF9300D088
:1051800000D0CDB7DEB780E090E0A0E0B0E089834A
:105190009A83AB83BC830E94C127DC01CB0180933F
:1051A000180290931902A0931A02B0931B02209147
:1051B00018023091190240911A0250911B028091FD
:1051C0000A0290910B02CC01A0E0B0E079018A01C3
:1051D000E81AF90A0A0B1B0BD801C701BC01CD0163
:1051E0000E9455047B018C01809108029091090274
:1051F000CC01A0E0B0E0BC01CD010E940705DC01BC
:10520000CB01BC01CD0120E030E040E057E40E943A
:105210001903DC01CB019C01AD01C801B7010E945B
:105220001F02DC01CB01BC01CD010E94B304DC01F3
:10523000CB0180930C0290930D02A0930E02B093C9
:105240000F028091020290910302AA2797FDA09578
:10525000BA2FBC01CD010E945504DC01CB01BC0179
:10526000CD0120E030E040E055E40E941F02DC0167
:10527000CB017C018D0180910402909105029C017B
:10528000442737FD4095542F80910C0290910D02D8
:10529000A0910E02B0910F02820F931FA41FB51FA1
:1052A000BC01CD010E9455049B01AC01C801B701AE
:1052B0000E941903DC01CB01BC01CD010E94B304A3
:1052C000DC01CB018093100290931102A093120293
:1052D000B093130220910C0230910D0240910E0206
:1052E00050910F028091100290911102A091120230
:1052F000B0911302820F931FA41FB51F8093140255
:1053000090931502A0931602B09317028091140295
:1053100090911502A0911602B09117020896A11D56
:10532000B11DBC01CD010E945504DC01CB01BC01C3
:10533000CD0120E030E040E851E40E941903DC0197
:10534000CB0189839A83AB83BC8369817A818B810A
:105350009C8120E030E040E251E40E941903DC012E
:10536000CB01BC01CD010E94B304DC01CB01BC0127
:10537000CD010F900F900F900F90CF91DF911F9163
:105380000F91FF90EF900895EF92FF920F931F936C
:10539000DF93CF93CDB7DEB70E948B26DC01CB0124
:1053A00080932C0290932D02A0932E02B0932F0293
:1053B000209118023091190240911A0250911B025B
:1053C00080910A0290910B02CC01A0E0B0E079013B
:1053D0008A01E81AF90A0A0B1B0BD801C701BC01A4
:1053E000CD010E9455047B018C01809108029091AF
:1053F0000902CC01A0E0B0E0BC01CD010E9407058C
:10540000DC01CB01BC01CD0120E030E040E057E4FD
:105410000E941903DC01CB019C01AD01C801B70159
:105420000E941F02DC01CB01BC01CD010E94B3042C
:10543000DC01CB0180930C0290930D02A0930E022D
:10544000B0930F028091020290910302AA2797FD68
:10545000A095BA2FBC01CD010E945504DC01CB01FF
:10546000BC01CD0120E030E040E055E40E941F0285
:10547000DC01CB017C018D01809104029091050239
:105480009C01442737FD4095542F80910C02909148
:105490000D02A0910E02B0910F02820F931FA41F64
:1054A000B51FBC01CD010E9455049B01AC01C80190
:1054B000B7010E941903DC01CB01BC01CD010E94A0
:1054C000B304DC01CB018093100290931102A093EE
:1054D0001202B093130220910C0230910D02409100
:1054E0000E0250910F028091100290911102A09132
:1054F0001202B0911302820F931FA41FB51F809355
:10550000140290931502A0931602B0931702809193
:10551000140290911502A0911602B0911702805AC0
:105520009F40A040B0408093240290932502A09316
:105530002602B09327028091FE019091FF01AA27D5
:1055400097FDA095BA2FBC01CD010E9455047B01A7
:105550008C018091240290912502A0912602B091A5
:105560002702209124023091250240912602509179
:105570002702BC01CD010E94D72EDC01CB01BC016A
:10558000CD010E945504DC01CB01BC01CD0120E01E
:1055900030E040E855E40E941903DC01CB019C0196
:1055A000AD01C801B7010E941F02DC01CB01BC01A3
:1055B000CD0120E030E040E055E40E941903DC0119
:1055C000CB01BC01CD010E94B304DC01CB0180936F
:1055D0000C0290930D02A0930E02B0930F028091E3
:1055E000F8019091F901AA2797FDA095BA2F209173
:1055F0002402309125024091260250912702BC01DD
:10560000CD010E94D72EDC01CB01BC01CD010E944F
:105610005504DC01CB01BC01CD0120E030E040E0CD
:1056200055E40E941903DC01CB01BC01CD010E94AD
:10563000B304DC01CB018093100290931102A0937C
:105640001202B093130220910C0230910D0240918E
:105650000E0250910F028091100290911102A091C0
:105660001202B0911302820F931FA41FB51F8093E3
:105670001C0290931D02A0931E02B0931F02809102
:10568000F6019091F701880F991F880F991F9C01CF
:10569000442737FD4095542F80911C0290911D02A4
:1056A000A0911E02B0911F02820F931FA41FB51F6D
:1056B0000296A11DB11D24E030E040E050E0BC01A5
:1056C000CD010E94182FDA01C90180932002909326
:1056D0002102A0932202B09323028091FA019091BB
:1056E000FB01AA2797FDA095BA2F209124023091A3
:1056F00025024091260250912702BC01CD010E9453
:10570000D72EDC01CB01BC01CD010E945504DC0188
:10571000CB01BC01CD0120E030E040E056E40E9426
:105720001903DC01CB01BC01CD010E94B304DC01F3
:10573000CB0180930C0290930D02A0930E02B093C4
:105740000F028091FC019091FD01AA2797FDA09581
:10575000BA2FBC01CD010E9455047B018C018091C0
:10576000240290912502A0912602B0912702209157
:105770002402309125024091260250912702BC015B
:10578000CD010E94D72EDC01CB01BC01CD010E94CE
:105790005504DC01CB01BC01CD0120E030E040E844
:1057A00055E40E941903DC01CB019C01AD01C80145
:1057B000B7010E941F02DC01CB01BC01CD0120E03A
:1057C00030E040E857E40E941903DC01CB01BC0142
:1057D000CD010E94B304DC01CB01809310029093B1
:1057E0001102A0931202B093130220910C02309187
:1057F0000D0240910E0250910F0280911002909183
:105800001102A0911202B0911302820F931FA41FE4
:10581000B51F0296A11DB11DBC01CD010E9455040A
:10582000DC01CB01BC01CD0120E030E040E850E4D8
:105830000E941903DC01CB01BC01CD010E94B3041D
:10584000DC01CB0180931C0290931D02A0931E02E9
:10585000B0931F0280910602909107027C0100E044
:1058600010E080911C0290911D02A0911E02B09147
:105870001F0280509048AF4FBF4F9C01AD01C8013F
:10588000B7010E94D72EDC01CB01BC01CD010E94E3
:105890000705DC01CB01BC01CD0120E030E040E098
:1058A00057E40E941903DC01CB01BC01CD010E9429
:1058B0004900DC01CB018093300290933102A09328
:1058C0003202B093330280912C0290912D02A0916C
:1058D0002E02B0912F029C01AD0180912002909187
:1058E0002102A0912202B091230279018A01E81AD3
:1058F000F90A0A0B1B0BD801C70120E533EC40E085
:1059000050E0BC01CD010E94D72EDC01CB01809379
:10591000340290933502A0933602B09337028091FF
:10592000340290913502A0913602B0913702BB2328
:105930001CF18091340290913502A0913602B09111
:105940003702880F991FAA1FBB1F20913002309188
:1059500031024091320250913302BC01CD010E94CC
:10596000F62EDA01C9018093280290932902A093B0
:105970002A02B0932B0222C080913402909135020A
:10598000A0913602B091370220913002309131025D
:105990004091320250913302BC01CD010E94F62E9B
:1059A000DA01C901880F991FAA1FBB1F8093280223
:1059B00090932902A0932A02B0932B02809128028F
:1059C00090912902A0912A02B0912B02BC01CD0135
:1059D0000E945504DC01CB01BC01CD0120E030E088
:1059E00040E853E40E941903DC01CB017C018D01E6
:1059F0008091280290912902A0912A02B0912B0255
:105A0000BC01CD010E945504DC01CB01BC01CD01DC
:105A100020E030E040E853E40E941903DC01CB01B0
:105A20009C01AD01C801B7010E941F02DC01CB013E
:105A3000BC01CD010E94B304DC01CB0180930C02B8
:105A400090930D02A0930E02B0930F0280910C026E
:105A500090910D02A0910E02B0910F022EED3BE04D
:105A600040E050E0BC01CD010E94D72EDC01CB010B
:105A7000BC01CD010E945504DC01CB01BC01CD016C
:105A800020E030E040E857E40E941903DC01CB013C
:105A9000BC01CD010E94B304DC01CB0180930C0258
:105AA00090930D02A0930E02B0930F0280912802F2
:105AB00090912902A0912A02B0912B0223E433EEA7
:105AC0004FEF5FEFBC01CD010E94D72EDC01CB016F
:105AD000BC01CD010E945504DC01CB01BC01CD010C
