:100000000C942A000C943F000C943F000C943F0089
:100010000C943F000C943F000C943F000C943F0064
:100020000C943F000C943F000C943F000C943F0054
:100030000C943F000C943F000C943F000C943F0044
:100040000C943F000C943F000C943F000C943F0034
:100050000C943F0011241FBECFE5D8E0DEBFCDBF1A
:1000600010E0A0E6B0E0E2E6F6E102C005900D92F5
:10007000A63EB107D9F70E9493050C942F0B0C9460
:100080000000CF93DF9300D01F92CDB7DEB78983F6
:100090006A834B838A81883008F0D9C08981843093
:1000A00008F0D5C08981882F90E08130910509F44E
:1000B0003EC0823091051CF4892B49F0C8C08230C3
:1000C000910509F464C0039709F491C0C0C08B8105
:1000D0008130B1F48AE390E0FC018081482F8A816D
:1000E000282F30E081E090E002C0880F991F2A9508
:1000F000E2F7242F282B8AE390E0FC012083A7C09D
:100100008AE390E0FC018081482F8A81282F30E02B
:1001100081E090E002C0880F991F2A95E2F7809550
:10012000242F28238AE390E0FC01208390C08B8158
:100130008130B1F487E390E0FC018081482F8A810F
:10014000282F30E081E090E002C0880F991F2A95A7
:10015000E2F7242F282B87E390E0FC01208377C06F
:1001600087E390E0FC018081482F8A81282F30E0CE
:1001700081E090E002C0880F991F2A95E2F78095F0
:10018000242F282387E390E0FC01208360C08B812B
:100190008130B1F484E390E0FC018081482F8A81B2
:1001A000282F30E081E090E002C0880F991F2A9547
:1001B000E2F7242F282B84E390E0FC01208347C042
:1001C00084E390E0FC018081482F8A81282F30E071
:1001D00081E090E002C0880F991F2A95E2F7809590
:1001E000242F282384E390E0FC01208330C08B81FE
:1001F0008130B1F481E390E0FC018081482F8A8155
:10020000282F30E081E090E002C0880F991F2A95E6
:10021000E2F7242F282B81E390E0FC01208316C015
:1002200081E390E0FC018081482F8A81282F30E013
:1002300081E090E002C0880F991F2A95E2F780952F
:10024000242F282381E390E0FC012083000000009C
:100250000F900F900F90DF91CF910895CF93DF9380
:1002600000D01F92CDB7DEB789836A834B838A8122
:10027000883008F0D9C08981843008F0D5C08981E0
:10028000882F90E08130910509F43EC082309105BD
:100290001CF4892B49F0C8C08230910509F464C070
:1002A000039709F491C0C0C08B818130B1F48BE316
:1002B00090E0FC018081482F8A81282F30E081E086
:1002C00090E002C0880F991F2A95E2F7242F282B6F
:1002D0008BE390E0FC012083A7C08BE390E0FC015E
:1002E0008081482F8A81282F30E081E090E002C091
:1002F000880F991F2A95E2F78095242F28238BE3F6
:1003000090E0FC01208390C08B818130B1F488E3C0
:1003100090E0FC018081482F8A81282F30E081E025
:1003200090E002C0880F991F2A95E2F7242F282B0E
:1003300088E390E0FC01208377C088E390E0FC0133
:100340008081482F8A81282F30E081E090E002C030
:10035000880F991F2A95E2F78095242F282388E398
:1003600090E0FC01208360C08B818130B1F485E393
:1003700090E0FC018081482F8A81282F30E081E0C5
:1003800090E002C0880F991F2A95E2F7242F282BAE
:1003900085E390E0FC01208347C085E390E0FC0109
:1003A0008081482F8A81282F30E081E090E002C0D0
:1003B000880F991F2A95E2F78095242F282385E33B
:1003C00090E0FC01208330C08B818130B1F482E366
:1003D00090E0FC018081482F8A81282F30E081E065
:1003E00090E002C0880F991F2A95E2F7242F282B4E
:1003F00082E390E0FC01208316C082E390E0FC01E0
:100400008081482F8A81282F30E081E090E002C06F
:10041000880F991F2A95E2F78095242F282382E3DD
:1004200090E0FC012083000000000F900F900F90DF
:10043000DF91CF910895CF93DF9300D000D0CDB757
:10044000DEB78B836C831A8219828C81883018F412
:100450008B81843018F01A8219827BC08B81882F9F
:1004600090E08130910539F1823091051CF4892B9F
:1004700041F06FC082309105C1F1039709F44FC07C
:1004800068C089E390E0FC018081882F90E02C8196
:10049000222F30E002C0959587952A95E2F781706A
:1004A0009927892B29F081E090E09A83898351C0B4
:1004B0001A8219824EC086E390E0FC018081882F69
:1004C00090E02C81222F30E002C0959587952A95E7
:1004D000E2F781709927892B29F081E090E09A83D7
:1004E000898337C01A82198234C083E390E0FC010B
:1004F0008081882F90E02C81222F30E002C09595DA
:1005000087952A95E2F781709927892B29F081E058
:1005100090E09A8389831DC01A8219821AC080E3F1
:1005200090E0FC018081882F90E02C81222F30E028
:1005300002C0959587952A95E2F781709927892BB6
:1005400029F081E090E09A83898302C01A8219829F
:10055000000089810F900F900F900F90DF91CF9145
:100560000895CF93DF9300D0CDB7DEB789836A8338
:100570008981843050F58981882F90E08130910500
:1005800091F0823091051CF4892B39F01EC0823025
:10059000910579F0039799F018C08AE390E02A81D9
:1005A000FC01208312C087E390E02A81FC012083B4
:1005B0000CC084E390E02A81FC01208306C081E323
:1005C00090E02A81FC012083000000000F900F9032
:1005D000DF91CF910895CF93DF9300D0CDB7DEB7F1
:1005E00089836A838981843050F58981882F90E0DE
:1005F0008130910591F0823091051CF4892B39F0FE
:100600001EC08230910579F0039799F018C08BE3F2
:1006100090E02A81FC01208312C088E390E02A81C7
:10062000FC0120830CC085E390E02A81FC0120833B
:1006300006C082E390E02A81FC01208300000000D4
:100640000F900F90DF91CF910895CF93DF9300D05B
:100650001F92CDB7DEB78B831A8219828B818430CB
:1006600018F01A82198236C08B81882F90E0813071
:100670009105A9F0823091051CF4892B39F02AC02C
:1006800082309105A9F00397E1F024C089E390E05E
:10069000FC018081882F90E09A8389831BC086E3C8
:1006A00090E0FC018081882F90E09A83898312C0BA
:1006B00083E390E0FC018081882F90E09A83898316
:1006C00009C080E390E0FC018081882F90E09A834C
:1006D0008983000089810F900F900F90DF91CF9157
:1006E0000895CF93DF93CDB7DEB763970FB6F89435
:1006F000DEBF0FBECDBF8B8B1A8219828B89882FEC
:1007000090E0880F991F880F991F9C838B8377C077
:1007100080E090E0AAE7B3E48D839E83AF83B8873F
:1007200020E030E04AE755E46D817E818F81988535
:100730000E949A0ADC01CB0189879A87AB87BC8724
:1007400020E030E040E85FE369857A858B859C8511
:100750000E94140A88232CF481E090E09E878D8704
:100760003FC020E03FEF4FE757E469857A858B85EE
:100770009C850E94950A18164CF520E030E040E276
:1007800051E46D817E818F8198850E949A0ADC01F7
:10079000CB01BC01CD010E94190ADC01CB019E876F
:1007A0008D870FC080E991E0988B8F878F8598891E
:1007B0000197F1F7988B8F878D859E8501979E878E
:1007C0008D878D859E85892B69F714C069857A850B
:1007D0008B859C850E94190ADC01CB019E878D8741
:1007E0008D859E859A8B898B89899A890197F1F7E6
:1007F0009A8B898B89819A8101969A838983298131
:100800003A818B819C812817390708F481CF000039
:1008100063960FB6F894DEBF0FBECDBFDF91CF91C8
:100820000895CF93DF93CDB7DEB76D970FB6F894E9
:10083000DEBF0FBECDBF8D8F60E076E980E090E037
:100840000E94FF0841E062E083E00E94410041E035
:1008500067E083E00E94410040E062E083E00E94A4
:100860002E0140E067E083E00E942E0180E090E0EE
:10087000A0E4B0E48F87988BA98BBA8B20E030E09E
:100880004AE755E46F85788989899A890E949A0A8E
:10089000DC01CB018B8B9C8BAD8BBE8B20E030E0E1
:1008A00040E85FE36B897C898D899E890E94140AE8
:1008B00088232CF481E090E0988F8F8B3FC020E05C
:1008C0003FEF4FE757E46B897C898D899E890E94B1
:1008D000950A18164CF520E030E040E251E46F85AF
:1008E000788989899A890E949A0ADC01CB01BC0126
:1008F000CD010E94190ADC01CB01988F8F8B0FC0AC
:1009000080E991E09A8F898F898D9A8D0197F1F70F
:100910009A8F898F8F89988D0197988F8F8B8F8968
:10092000988D892B69F714C06B897C898D899E8984
:100930000E94190ADC01CB01988F8F8B8F89988DCB
:100940009C8F8B8F8B8D9C8D0197F1F79C8F8B8F5C
:1009500041E062E083E00E942E0180E090E0A0EAA6
:10096000B0E489839A83AB83BC8320E030E04AE71C
:1009700055E469817A818B819C810E949A0ADC010D
:10098000CB018D839E83AF83B88720E030E040E8C1
:100990005FE36D817E818F8198850E94140A882390
:1009A0002CF481E090E09A8789873FC020E03FEFF8
:1009B0004FE757E46D817E818F8198850E94950A6B
:1009C00018164CF520E030E040E251E469817A816C
:1009D0008B819C810E949A0ADC01CB01BC01CD0174
:1009E0000E94190ADC01CB019A8789870FC080E930
:1009F00091E09C878B878B859C850197F1F79C877D
:100A00008B8789859A8501979A87898789859A85B1
:100A1000892B69F714C06D817E818F8198850E9432
:100A2000190ADC01CB019A87898789859A859E8777
:100A30008D878D859E850197F1F79E878D8741E093
:100A400067E083E00E942E0181E00E94710340E094
:100A500062E083E00E942E0182E00E94710380E642
:100A600090E00E947E0985E790E00E947E0984E87C
:100A700090E00E947E098D8D882F90E0009719F0FC
:100A8000019731F012C081E990E00E947E0912C006
:100A90008DE990E00E947E0989EA90E00E947E093B
:100AA00082EC90E00E947E0905C081E990E00E94FE
:100AB0007E0900008BED90E00E947E090E946C0987
:100AC0008F34E1F70E946C098B3409F0F7CF0000F6
:100AD00060E072EC81E090E00E94FF0800006D96FB
:100AE0000FB6F894DEBF0FBECDBFDF91CF91089552
:100AF000CF93DF931F92CDB7DEB7898389810E94A0
:100B0000510900000F90DF91CF910895CF93DF93AB
:100B10001F92CDB7DEB70E946C09898389810F903F
:100B2000DF91CF910895CF93DF93CDB7DEB72E97A6
:100B30000FB6F894DEBF0FBECDBF81E00E947103F7
:100B400080E00E94110480E090E0A6E9B3E489838C
:100B50009A83AB83BC8320E030E04AE755E46981A7
:100B60007A818B819C810E949A0ADC01CB018D8362
:100B70009E83AF83B88720E030E040E85FE36D817B
:100B80007E818F8198850E94140A88232CF481E04D
:100B900090E09A8789873FC020E03FEF4FE757E416
:100BA0006D817E818F8198850E94950A18164CF57B
:100BB00020E030E040E251E469817A818B819C81C0
:100BC0000E949A0ADC01CB01BC01CD010E94190AE6
:100BD000DC01CB019A8789870FC080E991E09C876F
:100BE0008B878B859C850197F1F79C878B878985FF
:100BF0009A8501979A87898789859A85892B69F7CC
:100C000014C06D817E818F8198850E94190ADC0154
:100C1000CB019A87898789859A859E878D878D855F
:100C20009E850197F1F79E878D870E943F0680E899
:100C30000E941D060E945308FDCFCF93DF931F92A1
:100C4000CDB7DEB7898382E590E0FC0110828CE5A8
:100C500090E02981FC01208387E390E0FC01208162
:100C600087E390E02860FC01208383E590E02AE69A
:100C7000FC01208300000F90DF91CF910895CF9366
:100C8000DF93CDB7DEB78BE390E0FC01808141E0DC
:100C900060E00E9441008BE390E0FC01808141E034
:100CA00061E00E9441008BE390E0FC01808141E023
:100CB00060E00E9441008BE390E0FC01808141E014
:100CC00061E00E9441008BE390E0FC01808141E003
:100CD00064E00E9441008BE390E0FC01808141E0F0
:100CE00065E00E9441008BE390E0FC01808141E0DF
:100CF00066E00E9441008BE390E0FC01808141E0CE
:100D000067E00E94410086E00E94B8070000DF9182
:100D1000CF910895CF93DF9300D0CDB7DEB789830D
:100D20006A838981882F90E08130910509F451C050
:100D3000823091051CF4892B49F014C18230910551
:100D400009F48AC0039709F4CAC00CC18A81882FAC
:100D500090E08130910519F00297A1F026C08BE355
:100D600090E0FC0120818BE390E02160FC01208376
:100D70008BE390E0FC0120818BE390E02D7FFC0170
:100D8000208326C08BE390E0FC0120818BE390E080
:100D90002E7FFC0120838BE390E0FC0120818BE31C
:100DA00090E02260FC01208313C08BE390E0FC0103
:100DB00020818BE390E02E7FFC0120838BE390E089
:100DC000FC0120818BE390E02D7FFC01208300005B
:100DD000C9C08A81882F90E08130910519F002976F
:100DE000A1F026C08BE390E0FC0120818BE390E032
:100DF0002160FC0120838BE390E0FC0120818BE3E8
:100E000090E02D7FFC01208326C08BE390E0FC0165
:100E100020818BE390E02E7FFC0120838BE390E028
:100E2000FC0120818BE390E02260FC01208313C051
:100E30008BE390E0FC0120818BE390E02E7FFC01AE
:100E400020838BE390E0FC0120818BE390E02D7FF9
:100E5000FC012083000086C08A81882F90E08130C9
:100E6000910519F00297A1F026C08BE390E0FC01F8
:100E700020818BE390E02061FC0120838BE390E0F4
:100E8000FC0120818BE390E02F7DFC01208326C0B4
:100E90008BE390E0FC0120818BE390E02F7EFC014E
:100EA00020838BE390E0FC0120818BE390E02062C3
:100EB000FC01208313C08BE390E0FC0120818BE3D5
:100EC00090E02F7EFC0120838BE390E0FC012081E9
:100ED0008BE390E02F7DFC012083000043C08A81DA
:100EE000882F90E08130910519F00297A1F026C07B
:100EF0008BE390E0FC0120818BE390E02064FC0117
:100F000020838BE390E0FC0120818BE390E02F773E
:100F1000FC01208326C08BE390E0FC0120818BE361
:100F200090E02F7BFC0120838BE390E0FC0120818B
:100F30008BE390E02068FC01208313C08BE390E0FA
:100F4000FC0120818BE390E02F7BFC0120838BE36D
:100F500090E0FC0120818BE390E02F77FC0120835F
:100F60000000000000000F900F90DF91CF910895D6
:100F7000CF93DF931F92CDB7DEB789838981882F06
:100F800090E0092E000CAA0BBB0B87309105A10540
:100F9000B10508F083C08053984FFC010C940E0AF1
:100FA000D707E807F9070A081B082C083D0861E085
:100FB00080E00E948A0661E081E00E948A0661E08A
:100FC00082E00E948A0661E083E00E948A0666C091
:100FD00062E080E00E948A0662E081E00E948A0668
:100FE00062E082E00E948A0662E083E00E948A0654
:100FF00055C061E080E00E948A0661E081E00E94C5
:101000008A0661E082E00E948A0660E083E00E9436
:101010008A0644C061E080E00E948A0661E081E0C7
:101020000E948A0661E083E00E948A0660E082E016
:101030000E948A0633C062E080E00E948A0662E075
:1010400081E00E948A0662E083E00E948A0660E0F6
:1010500082E00E948A0622C062E080E00E948A0646
:1010600062E081E00E948A0662E082E00E948A06D5
:1010700060E083E00E948A0611C060E080E00E9488
:101080008A0660E081E00E948A0660E082E00E94B9
:101090008A0660E083E00E948A06000000000F904C
:1010A000DF91CF910895CF93DF931F92CDB7DEB735
:1010B0000E94860589838981882F90E0092E000C83
:1010C000AA0BBB0BC097A109B10982349105A105F8
:1010D000B10508F08FC08059974FFC010C940E0A9F
:1010E000CE08D208D608DA08DE08E208E608EA08E0
:1010F000EE08F208FA08FA08FA08FA08FA08FA08F4
:10110000FA08FA08BA08FA08B208FA08B608C608CF
:10111000BE08CA08C208FA08C608FA08FA08FA0897
:10112000FA08FA08CA08B208FA08FA08FA08FA0827
:10113000FA08FA08FA08FA08FA08FA08FA08FA089F
:10114000FA08FA08FA08FA08FA08FA08FA08FA088F
:10115000FA08FA08FA08FA08FA08FA08FA08FA087F
:10116000FA08F60886E00E94B80744C080E00E94B2
:10117000B80740C081E00E94B8073CC084E00E94EC
:10118000B80738C085E00E94B80734C083E00E94E9
:10119000B80730C082E00E94B8072CC080E00E94EF
:1011A0001D0628C080E10E941D0624C080E20E9426
:1011B0001D0620C080E40E941D061CC080E50E9420
:1011C0001D0618C080E80E941D0614C080E90E9418
:1011D0001D0610C080EB0E941D060CC080ED0E9411
:1011E0001D0608C080EE0E941D0604C08FEF0E94FD
:1011F0001D06000000000F90DF91CF910895CF935E
:10120000DF9300D000D000D0CDB7DEB76B837C83F6
:101210008D839E831A8219828BE290E022E0FC018A
:1012200020838AE290E028E1FC01208380E490E0C2
:1012300026E8FC0120838B819C81AD81BE81880FD3
:10124000991FAA1FBB1F880F991FAA1FBB1F880FBA
:10125000991FAA1FBB1F9C01AD0180E094E2A4EF7F
:10126000B0E0BC01CD010E94EC09DA01C90101978F
:101270009A83898389819A81292F332780E490E09A
:10128000FC01208389E290E02981FC012083000099
:1012900026960FB6F894DEBF0FBECDBFDF91CF917B
:1012A0000895CF93DF931F92CDB7DEB789830000F7
:1012B0008BE290E0FC018081882F90E0807299277A
:1012C000892BB1F38CE290E02981FC01208300009E
:1012D0000F90DF91CF910895CF93DF93CDB7DEB715
:1012E00000008BE290E0FC0180818823D4F78CE23F
:1012F00090E0FC018081DF91CF910895CF93DF933F
:1013000000D01F92CDB7DEB79B838A8319820EC0AF
:101310008981882F90E02A813B81820F931FFC01F5
:1013200080810E94510989818F5F89838981882FFB
:1013300090E02A813B81820F931FFC0180818823EA
:1013400039F700000F900F900F90DF91CF91089523
:101350000F931F93CF93DF9300D01F92CDB7DEB7CB
:101360009B838A8319828981882F90E02A813B811F
:101370008901080F191F0E946C09F80180830FC0B2
:1013800089818F5F89838981882F90E02A813B81C1
:101390008901080F191F0E946C09F8018083898157
:1013A000882F90E02A813B81820F931FFC0180816E
:1013B000833231F78981882F90E02A813B81820F27
:1013C000931FFC01108200000F900F900F90DF918F
:1013D000CF911F910F910895A1E21A2EAA1BBB1B5A
:1013E000FD010DC0AA1FBB1FEE1FFF1FA217B307F1
:1013F000E407F50720F0A21BB30BE40BF50B661F07
:10140000771F881F991F1A9469F7609570958095CA
:1014100090959B01AC01BD01CF010895EE0FFF1F18
:101420000590F491E02D09940E94480A08F481E0A7
:1014300008950E94740A88F09F5798F0B92F992751
:10144000B751B0F0E1F0660F771F881F991F1AF0AF
:10145000BA95C9F714C0B13091F00E948E0AB1E07C
:1014600008950C948E0A672F782F8827B85F39F07B
:10147000B93FCCF3869577956795B395D9F73EF448
:1014800090958095709561957F4F8F4F9F4F0895F0
:10149000990F0008550FAA0BE0E8FEEF1616170685
:1014A000E807F907C0F012161306E407F50798F0ED
:1014B000621B730B840B950B39F40A2661F0232B06
:1014C000242B252B21F408950A2609F4A140A69582
:1014D0008FEF811D811D089557FD9058440F551FB2
:1014E00059F05F3F71F04795880F97FB991F61F0A6
:1014F0009F3F79F087950895121613061406551F1D
:10150000F2CF4695F1DF08C0161617061806991F88
:10151000F1CF86957105610508940895E894BB277D
:1015200066277727CB0197F908950E94480A08F4A7
:101530008FEF08950E94AD0A0C941E0B0E94100BB1
:1015400038F00E94170B20F0952311F00C94070B34
:101550000C940D0B11240C948F0A0E946C0A70F3EA
:10156000959FC1F3950F50E0551F629FF001729F48
:10157000BB27F00DB11D639FAA27F00DB11DAA1F57
:10158000649F6627B00DA11D661F829F2227B00DA4
:10159000A11D621F739FB00DA11D621F839FA00D2F
:1015A000611D221F749F3327A00D611D231F849F7F
:1015B000600D211D822F762F6A2F11249F575040D6
:1015C0009AF0F1F088234AF0EE0FFF1FBB1F661F51
:1015D000771F881F91505040A9F79E3F510580F01A
:1015E0000C94070B0C948F0A5F3FE4F3983ED4F3FE
:1015F000869577956795B795F795E7959F5FC1F7BE
:10160000FE2B880F911D9695879597F9089597F968
:101610009F6780E870E060E008959FEF80EC089598
:1016200000240A94161617061806090608950024C1
:101630000A9412161306140605060895092E03943B
:10164000000C11F4882352F0BB0F40F4BF2B11F4AF
:1016500060FF04C06F5F7F4F8F4F9F4F0895F894D6
:02166000FFCFBA
:1016620041542B554152543D3131353230302C31B9
:101672002C300D0A0041542B505357443D31323324
:10168200340D0A0041542B434D4F44453D300D0A61
:101692000041542B524F4C453D300D0A0041542B12
:1016A200524F4C453D310D0A0041542B42494E44A4
:1016B2003D303032323A30363A3031393230380D0C
:1016C2000A0041542B4C494E4B3D303032323A30B5
:1016D200363A3031393230380D0A0041542B5245F6
:0616E2005345540D0A00FF
:00000001FF
