:100000000C942A000C9447000C9447000C94470071
:100010000C94A4090C9471090C94970B0C943E0950
:100020000C9447000C940B090C94D8080C94A50868
:100030000C9447000C9447000C9447000C94470024
:100040000C9447000C9447000C9447000C94470014
:100050000C94470011241FBECFE5D8E0DEBFCDBF12
:1000600011E0A0E6B0E0E8EEFAE402C005900D92DF
:10007000A237B107D9F711E0A2E7B1E001C01D92A4
:10008000A63DB107E1F70E947F120C9472250C94F3
:100090000000EF92FF920F931F937B018C0120E0F1
:1000A00030E040E05FE40E94F50388238CF0C80153
:1000B000B70120E030E040E05FE40E94C1010E940F
:1000C000B3049B01AC01205030404040504806C072
:1000D000C801B7010E94B3049B01AC01B901CA0178
:1000E0001F910F91FF90EF900895A0E0B0E0EBE733
:1000F000F0E00C943B25DC012B01FA019C9192303D
:1001000008F439C1EB018881823008F433C194309E
:1001100069F4843009F02FC111969C91119789815F
:10012000981709F428C1A0E6B0E025C1843009F48D
:1001300021C18230A9F4923009F01DC19A01AD01AC
:1001400088E0EA010990AE01E90109929E0181501F
:10015000C1F7E201898111969C918923818308C1AD
:10016000923009F407C112962D903C901397EB0141
:100170008A819B811496AD90BD90CD90DC901797AD
:10018000EC80FD800E811F819101281B390BB90184
:1001900037FF04C066277727621B730B6032710537
:1001A0000CF061C0121613066CF537014801062EDB
:1001B00004C096948794779467940A94D2F721E0C8
:1001C00030E040E050E004C0220F331F441F551FB1
:1001D0006A95D2F721503040404050402E213F21B7
:1001E00040235123211531054105510521F021E01E
:1001F00030E040E050E079018A01E628F72808293C
:1002000019293CC0232BD1F1260E371E350146019A
:10021000062E04C096948794779467940A94D2F734
:1002200021E030E040E050E004C0220F331F441FC3
:10023000551F6A95D2F721503040404050402A2146
:100240003B214C215D21211531054105510521F04E
:1002500021E030E040E050E059016A01A628B728CB
:10026000C828D9280BC0821593052CF01C01AA249C
:10027000BB24650103C0EE24FF24870111969C91E5
:10028000D20111968C91981709F445C0992339F041
:10029000A80197012A193B094C095D0906C0A6016E
:1002A00095012E193F09400B510B57FD08C01182D3
:1002B0003382228224833583468357831DC081E0A5
:1002C00081833382228288279927DC01821B930B4A
:1002D000A40BB50B84839583A683B7830DC0220F2F
:1002E000331F441F551F24833583468357838281E0
:1002F000938101979383828324813581468157813D
:10030000DA01C9010197A109B1098F5F9F4FAF4F72
:10031000BF4328F30BC0918333822282EA0CFB1C7B
:100320000C1D1D1DE482F5820683178383E0808304
:10033000248135814681578157FF1AC0C901AA27F8
:1003400097FDA095BA2F81709070A070B0705695EF
:10035000479537952795822B932BA42BB52B848318
:100360009583A683B7838281938101969383828349
:10037000DF0101C0D201CD01CDB7DEB7E2E10C94BF
:100380005725A0E2B0E0E7ECF1E00C944725698343
:100390007A838B839C832D833E834F835887E9E048
:1003A000EE2EF12CEC0EFD1ECE010196B7010E943F
:1003B000A4068E010F5E1F4FCE010596B8010E9464
:1003C000A4068A8991E089278A8BC701B801AE010A
:1003D000475E5F4F0E9475000E94CF05A096E6E041
:1003E0000C946325A0E2B0E0E8EFF1E00C9447251F
:1003F00069837A838B839C832D833E834F835887C5
:10040000F9E0EF2EF12CEC0EFD1ECE010196B701A6
:100410000E94A4068E010F5E1F4FCE010596B80103
:100420000E94A406C701B801AE01475E5F4F0E945B
:1004300075000E94CF05A096E6E00C946325A0E22B
:10044000B0E0E5E2F2E00C943B2569837A838B838C
:100450009C832D833E834F835887CE010196BE0136
:10046000675F7F4F0E94A406CE010596BE016F5EB6
:100470007F4F0E94A4069985923088F08989823046
:10048000C8F0943019F4823051F404C0843029F457
:10049000923081F480E690E0C6C0923049F420E0CA
:1004A0009A858A89981321E02A87CE010996BBC0D4
:1004B000823049F420E09A858A89981321E02A8BBA
:1004C000CE014196B0C02D843E844F8458886D88FB
:1004D0007E888F88988CEE24FF248701AA24BB2471
:1004E000650140E050E060E070E0E0E0F0E0C10174
:1004F00081709070892BE9F0E60CF71C081D191D1E
:100500009A01AB012A0D3B1D4C1D5D1D80E090E062
:10051000A0E0B0E0E614F7040805190520F481E036
:1005200090E0A0E0B0E0BA01A901480F591F6A1F8E
:100530007B1FAA0CBB1CCC1CDD1C97FE08C081E0F5
:1005400090E0A0E0B0E0A82AB92ACA2ADB2A3196B6
:10055000E032F10549F0660C771C881C991C569412
:10056000479437942794C3CFFA85EA892B893C892D
:100570008B859C85280F391F2E5F3F4F17C0CA01FE
:1005800081709070892B61F016950795F794E79428
:1005900080E090E0A0E0B0E8E82AF92A0A2B1B2BC3
:1005A00076956795579547952F5F3F4F77FDE7CF36
:1005B0000CC0440F551F661F771F17FD4160EE0CDE
:1005C000FF1C001F111F21503040403090E05907A0
:1005D00090E0690790E4790760F32B8F3C8FDB0193
:1005E000CA018F779070A070B07080349105A1051A
:1005F000B10561F447FD0AC0E114F10401051105DC
:1006000029F0405C5F4F6F4F7F4F40781A8EFE1786
:1006100011F081E08A8F4D8F5E8F6F8F78A383E01A
:10062000898FCE0149960E94CF05A096E2E10C94F5
:100630005725A8E1B0E0EFE1F3E00C94432569838E
:100640007A838B839C832D833E834F835887B9E0C5
:10065000EB2EF12CEC0EFD1ECE010196B7010E948F
:10066000A4068E010F5E1F4FCE010596B8010E94B1
:10067000A4062985223008F47EC03989323010F46E
:10068000B8017CC08A859A8989278A87243011F02D
:10069000223031F4231709F06EC060E670E06EC0BE
:1006A000343039F41D861E861F86188A1C861B86E8
:1006B00004C0323021F484E08987B7015FC02B8504
:1006C0003C858B899C89281B390B3C872B87ED84C3
:1006D000FE840F851889AD88BE88CF88D88CEA142F
:1006E000FB040C051D0540F4EE0CFF1C001F111F40
:1006F000215030403C872B8720E030E040E050E044
:1007000080E090E0A0E0B0E460E070E0EA14FB0478
:100710000C051D0540F0282B392B4A2B5B2BEA18C2
:10072000FB080C091D09B695A79597958795EE0CC2
:10073000FF1C001F111F6F5F7F4F6F31710531F775
:10074000DA01C9018F779070A070B0708034910584
:10075000A105B10561F427FD0AC0E114F10401050A
:10076000110529F0205C3F4F4F4F5F4F20782D87B8
:100770003E874F87588BBE01675F7F4FCB010E943A
:10078000CF056896EAE00C945F25A8E1B0E0EBECB9
:10079000F3E00C94472569837A838B839C832D83B4
:1007A0003E834F83588789E0E82EF12CEC0EFD1E26
:1007B000CE010196B7010E94A4068E010F5E1F4F65
:1007C000CE010596B8010E94A4068985823040F0CA
:1007D0008989823028F0C701B8010E941C0701C036
:1007E0008FEF6896E6E00C946325A8E1B0E0EBEFAC
:1007F000F3E00C94472569837A838B839C832D8354
:100800003E834F83588789E0E82EF12CEC0EFD1EC5
:10081000CE010196B7010E94A4068E010F5E1F4F04
:10082000CE010596B8010E94A4068985823040F069
:100830008989823028F0C701B8010E941C0701C0D5
:100840008FEF6896E6E00C946325A8E1B0E0EBE258
:10085000F4E00C94472569837A838B839C832D83F2
:100860003E834F83588789E0E82EF12CEC0EFD1E65
:10087000CE010196B7010E94A4068E010F5E1F4FA4
:10088000CE010596B8010E94A4068985823040F009
:100890008989823028F0C701B8010E941C0701C075
:1008A00081E06896E6E00C946325A8E0B0E0EBE513
:1008B000F4E00C9444259B01AC0183E08983DA01C8
:1008C000C9018827B7FD83959927AA27BB27B82E8A
:1008D000211531054105510519F482E089833AC09B
:1008E0008823A9F0203080E0380780E0480780E8BE
:1008F000580729F460E070E080E09FEC30C0EE24FF
:10090000FF248701E21AF30A040B150B02C07901D8
:100910008A018EE1C82ED12CDC82CB82ED82FE8250
:100920000F831887C801B7010E9480050197181628
:10093000190684F4082E04C0EE0CFF1C001F111FC2
:100940000A94D2F7ED82FE820F831887C81AD90A5B
:10095000DC82CB82BA82CE0101960E94CF05289616
:10096000E9E00C946025ACE0B0E0E9EBF4E00C9435
:100970004B2569837A838B839C83CE010196BE01CC
:100980006B5F7F4F0E94A4068D81823061F18230BF
:1009900050F1843021F48E81882351F12EC02F81B3
:1009A000388537FD20C06E812F3131051CF066235C
:1009B000F9F023C08EE190E0821B930B29853A85E4
:1009C0004B855C8504C056954795379527958A9544
:1009D000D2F76623B1F050954095309521953F4F61
:1009E0004F4F5F4F0EC020E030E040E050E009C0C4
:1009F0002FEF3FEF4FEF5FE704C020E030E040E033
:100A000050E8B901CA012C96E2E00C946725A8E0F1
:100A1000B0E0EDE0F5E00C9443257B018C0161151D
:100A200071058105910519F482E0898360C083E036
:100A300089838EE1C82ED12CDC82CB82ED82FE82AE
:100A40000F831887C801B7010E948005FC01319708
:100A5000F7FF3BC0222733272E1B3F0B57016801AE
:100A6000022E04C0D694C794B794A7940A94D2F7E0
:100A700040E050E060E070E081E090E0A0E0B0E0B5
:100A800004C0880F991FAA1FBB1F2A95D2F7019790
:100A9000A109B1098E219F21A023B1230097A105AF
:100AA000B10521F041E050E060E070E04A295B29A7
:100AB0006C297D294D835E836F8378878EE190E07A
:100AC0008E1B9F0B9C838B8312C0309781F00E2E60
:100AD00004C0EE0CFF1C001F111F0A94D2F7ED8218
:100AE000FE820F831887CE1ADF0ADC82CB821A823D
:100AF000CE0101960E94CF052896EAE00C945F256E
:100B0000EF92FF920F931F937B018C0180E0E81618
:100B100080E0F80681E0080780E0180788F48FEF8E
:100B2000E816F1040105110531F028F088E090E0A5
:100B3000A0E0B0E017C080E090E0A0E0B0E012C01C
:100B400080E0E81680E0F80680E0080781E01807FA
:100B500028F088E190E0A0E0B0E004C080E190E0FF
:100B6000A0E0B0E020E230E040E050E0281B390B8C
:100B70004A0B5B0B04C016950795F794E7948A958A
:100B8000D2F7F701E859FF4F8081281B310941094D
:100B90005109C9011F910F91FF90EF900895DF92C5
:100BA000EF92FF920F931F93FC01E480F580068182
:100BB0001781D1808081823048F480E090E0A0E10C
:100BC000B0E0E82AF92A0A2B1B2BA5C0843009F4CF
:100BD0009FC0823021F4EE24FF24870105C0E11478
:100BE000F1040105110519F4E0E0F0E096C062811E
:100BF00073819FEF623879070CF05BC022E83FEF0A
:100C0000261B370B2A3131052CF020E030E040E084
:100C100050E02AC0B801A701022E04C0769567955E
:100C2000579547950A94D2F781E090E0A0E0B0E0B4
:100C300004C0880F991FAA1FBB1F2A95D2F70197DE
:100C4000A109B1098E219F21A023B1230097A105FD
:100C5000B10521F081E090E0A0E0B0E09A01AB01A5
:100C6000282B392B4A2B5B2BDA01C9018F77907027
:100C7000A070B07080349105A105B10539F427FF4B
:100C800009C0205C3F4F4F4F5F4F04C0215C3F4F76
:100C90004F4F5F4FE0E0F0E02030A0E03A07A0E0E7
:100CA0004A07A0E45A0710F0E1E0F0E079018A0178
:100CB00027C06038710564F5FB01E158FF4FD8018A
:100CC000C7018F779070A070B07080349105A10536
:100CD000B10539F4E7FE0DC080E490E0A0E0B0E09B
:100CE00004C08FE390E0A0E0B0E0E80EF91E0A1F18
:100CF0001B1F17FF05C016950795F794E7943196CB
:100D000087E016950795F794E7948A95D1F705C083
:100D1000EE24FF248701EFEFF0E06E2F6795662742
:100D20006795902F9F77D794DD24D7948E2F869543
:100D3000492F462B582F5D29B701CA011F910F91EA
:100D4000FF90EF90DF900895FC01DB01408151811D
:100D50002281622F6F7770E0221F2227221F93814A
:100D6000892F880F822B282F30E0991F9927991FF0
:100D700011969C93119721153105A9F5411551053F
:100D80006105710511F482E037C082E89FEF139688
:100D90009C938E9312979A01AB0167E0220F331F49
:100DA000441F551F6A95D1F783E08C930DC0220F25
:100DB000331F441F551F12968D919C9113970197D5
:100DC00013969C938E931297203080E0380780E032
:100DD000480780E4580758F314962D933D934D939C
:100DE0005C93179708952F3F310579F4411551050C
:100DF0006105710519F484E08C93089564FF03C0C4
:100E000081E08C9312C01C9210C02F573040139673
:100E10003C932E93129783E08C9387E0440F551FE9
:100E2000661F771F8A95D1F7706414964D935D9372
:100E30006D937C93179708951F93DC01FB019C91A0
:100E4000923008F447C08081823008F443C0943067
:100E500051F411961C91843099F58181682F70E0CE
:100E6000611B71093FC0843021F0923031F482302F
:100E7000B9F18181882389F12DC011961C911197B8
:100E80008230F1F081811817D9F412962D913C919E
:100E90001397828193818217930794F0281739075B
:100EA000BCF014968D919D910D90BC91A02D248144
:100EB000358146815781281739074A075B0718F49F
:100EC000112341F00AC082179307A407B50740F425
:100ED000112319F061E070E005C06FEF7FEF02C0F1
:100EE00060E070E0CB011F910895DF93CF93CDB701
:100EF000DEB7E0E2F0E088E48083A1E2B0E0E1E286
:100F0000F0E080818D7F8C93A1E2B0E0E1E2F0E03F
:100F100080818E7F8C93E2E2F0E086E08083A2E223
:100F2000B0E0E2E2F0E080818E7F8C93A6E5B0E055
:100F3000E6E5F0E0808184608C93CF91DF910895A5
:100F4000DF93CF9300D00F92CDB7DEB78A83E6E56B
:100F5000F0E084EA8083E6E5F0E080818823DCF736
:100F60000E94960889838981883011F01B821EC0F7
:100F7000E3E2F0E08A818083E6E5F0E084E88083C4
:100F8000E6E5F0E080818823DCF70E9496088983FB
:100F90008981883119F481E08B8308C0898180328E
:100FA00019F482E08B8302C083E08B838B810F90E6
:100FB0000F900F90CF91DF910895DF93CF9300D0E2
:100FC0000F92CDB7DEB78A83E6E5F0E084EA80834E
:100FD000E6E5F0E080818823DCF70E9496088983AB
:100FE0008981803111F01B821EC0E3E2F0E08A812A
:100FF0008083E6E5F0E084E88083E6E5F0E0808148
:101000008823DCF70E94960889838981803419F44B
:1010100081E08B8308C08981803219F482E08B8360
:1010200002C083E08B838B810F900F900F90CF9144
:10103000DF910895DF93CF9300D0CDB7DEB78A83D9
:10104000E6E5F0E084EA8083E6E5F0E0808188234D
:10105000DCF7E1E2F0E08081887F89838981883054
:1010600079F7E3E2F0E08A818083E6E5F0E084E866
:101070008083E6E5F0E080818823DCF7E1E2F0E0C0
:101080008081887F89838981883119F00E944E0888
:10109000D7CF0F900F90CF91DF910895DF93CF932B
:1010A000CDB7DEB7E6E5F0E084E98083CF91DF914C
:1010B0000895DF93CF930F92CDB7DEB78983E3E234
:1010C000F0E089818083E6E5F0E084E88083E6E56E
:1010D000F0E080818823DCF70F90CF91DF910895B5
:1010E000DF93CF93CDB7DEB7E6E5F0E084EC808305
:1010F000E6E5F0E080818823DCF7E3E2F0E0808140
:10110000CF91DF910895DF93CF93CDB7DEB7E6E5BA
:10111000F0E084E88083E6E5F0E080818823DCF776
:10112000E3E2F0E08081CF91DF910895DF93CF93E8
:101130000F92CDB7DEB7E1E2F0E08081887F89834E
:1011400089810F90CF91DF9108951F920F920FB672
:101150000F9211242F933F934F935F936F937F933D
:101160008F939F93AF93BF93EF93FF93DF93CF93AF
:10117000CDB7DEB78091720190917301009729F08D
:10118000E0917201F09173010995CF91DF91FF9188
:10119000EF91BF91AF919F918F917F916F915F91EF
:1011A0004F913F912F910F900FBE0F901F90189568
:1011B0001F920F920FB60F9211242F933F934F93CC
:1011C0005F936F937F938F939F93AF93BF93EF93AF
:1011D000FF93DF93CF93CDB7DEB7809172019091EB
:1011E0007301009729F0E0917201F0917301099564
:1011F000CF91DF91FF91EF91BF91AF919F918F912F
:101200007F916F915F914F913F912F910F900FBE02
:101210000F901F9018951F920F920FB60F921124E6
:101220002F933F934F935F936F937F938F939F93EE
:10123000AF93BF93EF93FF93DF93CF93CDB7DEB719
:101240008091740190917501009729F0E0917401EB
:10125000F09175010995CF91DF91FF91EF91BF91C9
:10126000AF919F918F917F916F915F914F913F913E
:101270002F910F900FBE0F901F9018951F920F92F5
:101280000FB60F9211242F933F934F935F936F9359
:101290007F938F939F93AF93BF93EF93FF93DF93CE
:1012A000CF93CDB7DEB7809174019091750100970F
:1012B00029F0E0917401F09175010995CF91DF91CA
:1012C000FF91EF91BF91AF919F918F917F916F911E
:1012D0005F914F913F912F910F900FBE0F901F90F4
:1012E00018951F920F920FB60F9211242F933F93D0
:1012F0004F935F936F937F938F939F93AF93BF931E
:10130000EF93FF93DF93CF93CDB7DEB78091760154
:1013100090917701009729F0E0917601F0917701A3
:101320000995CF91DF91FF91EF91BF91AF919F917F
:101330008F917F916F915F914F913F912F910F907E
:101340000FBE0F901F9018951F920F920FB60F921D
:1013500011242F933F934F935F936F937F938F93BA
:101360009F93AF93BF93EF93FF93DF93CF93CDB74B
:10137000DEB78091760190917701009729F0E09196
:101380007601F09177010995CF91DF91FF91EF916F
:10139000BF91AF919F918F917F916F915F914F918D
:1013A0003F912F910F900FBE0F901F901895DF93D4
:1013B000CF9300D0CDB7DEB79A838983E981FA81D4
:1013C0008081882309F060C0A2E5B0E0E981FA815C
:1013D000828193818C93E3E5F0E01082A3E5B0E095
:1013E000E3E5F0E09081E981FA818681892B8C9395
:1013F000E981FA8181818823B1F4A3E5B0E0E3E5D6
:10140000F0E0808180688C93A9E5B0E0E9E5F0E048
:10141000808181608C93A8E5B0E0E8E5F0E0808110
:1014200081608C9328C0E981FA818181813019F52E
:10143000A3E5B0E0E3E5F0E0808180688C93A3E56C
:10144000B0E0E3E5F0E0808188608C93ACE5B0E04B
:10145000E981FA81848195818C93A9E5B0E0E9E581
:10146000F0E0808182608C93A8E5B0E0E8E5F0E0F0
:10147000808182608C93E981FA8187819085909345
:10148000730180937201C4C0E981FA818081813047
:1014900009F060C0EFE4F0E01082AFE4B0E0EFE408
:1014A000F0E0808188608C93AFE4B0E0EFE4F0E09E
:1014B000808184608C93AEE4B0E0E981FA8186811A
:1014C0008C93ACE4B0E0E981FA818281938111963A
:1014D0009C938E93E981FA818181882379F4A9E52F
:1014E000B0E0E9E5F0E0808184608C93A8E5B0E0AD
:1014F000E8E5F0E0808184608C9323C0E981FA8183
:1015000081818130F1F4AEE4B0E0EEE4F0E080817E
:1015100088608C93AAE4B0E0E981FA8184819581A6
:1015200011969C938E93A9E5B0E0E9E5F0E0808107
:1015300080618C93A8E5B0E0E8E5F0E0808180610F
:101540008C93E981FA8187819085909375018093CE
:1015500074015EC0E981FA818081823009F058C04F
:10156000A5E4B0E0E5E4F0E0808180688C93A4E439
:10157000B0E0E981FA81828193818C93E5E4F0E027
:101580001082A5E4B0E0E5E4F0E09081E981FA8121
:101590008681892B8C93E981FA818181882379F472
:1015A000A9E5B0E0E9E5F0E0808180648C93A8E5EE
:1015B000B0E0E8E5F0E0808180648C9321C0E981AF
:1015C000FA8181818130E1F4A3E5B0E0E3E5F0E068
:1015D000808188608C93A3E4B0E0E981FA81848102
:1015E00095818C93A9E5B0E0E9E5F0E08081806821
:1015F0008C93A8E5B0E0E8E5F0E0808180688C930A
:10160000E981FA81878190859093770180937601B3
:101610000F900F90CF91DF910895DF93CF930F92AA
:10162000CDB7DEB7898389818823E1F4E3E5F0E073
:101630001082E2E5F0E01082ECE5F0E01082A9E52E
:10164000B0E0E9E5F0E080818D7F8C93A9E5B0E022
:10165000E9E5F0E080818E7F8C9310927301109207
:10166000720142C08981813009F5EFE4F0E0108217
:10167000EEE4F0E01082ECE4F0E011821082A9E5E3
:10168000B0E0E9E5F0E080818B7F8C93EAE4F0E064
:1016900011821082A9E5B0E0E9E5F0E080818F7E5B
:1016A0008C9310927501109274011EC08981823052
:1016B000D9F4E5E4F0E01082E4E4F0E01082E3E441
:1016C000F0E01082A9E5B0E0E9E5F0E080818F77F5
:1016D0008C93A9E5B0E0E9E5F0E080818F7B8C9305
:1016E00010927701109276010F90CF91DF910895BB
:1016F000DF93CF930F92CDB7DEB78983898188239B
:1017000021F4E2E5F0E010820EC08981813029F4F5
:10171000ECE4F0E01182108206C08981823019F475
:10172000E4E4F0E010820F90CF91DF9108951F92D2
:101730000F920FB60F9211242F933F934F935F9305
:101740006F937F938F939F93AF93BF93EF93FF9389
:10175000DF93CF93CDB7DEB7809178019091790177
:10176000009729F0E0917801F09179010995CF91E6
:10177000DF91FF91EF91BF91AF919F918F917F91F9
:101780006F915F914F913F912F910F900FBE0F90EE
:101790001F901895DF93CF9300D0CDB7DEB79A8313
:1017A0008983EEE4F0E082E48083ECE4F0E01182EF
:1017B0001082E6E4F0E011821082A9E5B0E0E9E5EC
:1017C000F0E0808180628C93A1E3B0E0E1E3F0E09F
:1017D00080818F7B8C93EFE4F0E08CE08083AEE43B
:1017E000B0E0EEE4F0E08081982F987FE981FA8103
:1017F0008081892B8C93AEE4B0E0EEE4F0E0808150
:10180000282F2F7BE981FA818181882F90E00024A5
:10181000969587950794969587950794982F802D90
:10182000822B8C93ECE4F0E011821082E6E4F0E08D
:1018300011821082A9E5B0E0E9E5F0E080818062E4
:101840008C930F900F90CF91DF910895DF93CF93FA
:1018500000D0CDB7DEB79A83898389819A8190932E
:101860007901809378010F900F90CF91DF910895C7
:10187000DF93CF930F92CDB7DEB78983AEE4B0E0AC
:10188000EEE4F0E08081282F2F7B8981882F90E083
:101890000024969587950794969587950794982F99
:1018A000802D822B8C930F90CF91DF910895DF9341
:1018B000CF93CDB7DEB7E6E4F0E080819181CF91A0
:1018C000DF910895DF93CF93CDB7DEB7ECE4F0E07E
:1018D00011821082CF91DF910895DF93CF93CDB71E
:1018E000DEB7EFE4F0E01082EEE4F0E01082ECE42A
:1018F000F0E011821082E6E4F0E011821082A9E5A6
:10190000B0E0E9E5F0E080818F7D8C93CF91DF91AD
:101910000895DF93CF9300D000D00F92CDB7DEB7FC
:1019200089836A834B838A81883008F0D5C0898196
:10193000843008F0D1C08981282F30E03D832C838A
:101940008C819D818130910509F443C02C813D81BA
:10195000223031052CF48C819D81009771F0BCC040
:101960002C813D812230310509F45FC08C819D813D
:101970008330910509F485C0AFC08B818130A1F41B
:10198000AAE3B0E0EAE3F0E08081482F8A81282FC3
:1019900030E081E090E0022E02C0880F991F0A9487
:1019A000E2F7842B8C9398C0AAE3B0E0EAE3F0E07E
:1019B0008081482F8A81282F30E081E090E0022E3C
:1019C00002C0880F991F0A94E2F7809584238C93B4
:1019D00083C08B818130A1F4A7E3B0E0E7E3F0E0BE
:1019E0008081482F8A81282F30E081E090E0022E0C
:1019F00002C0880F991F0A94E2F7842B8C936CC065
:101A0000A7E3B0E0E7E3F0E08081482F8A81282F48
:101A100030E081E090E0022E02C0880F991F0A9406
:101A2000E2F7809584238C9357C08B818130A1F499
:101A3000A4E3B0E0E4E3F0E08081482F8A81282F1E
:101A400030E081E090E0022E02C0880F991F0A94D6
:101A5000E2F7842B8C9340C0A4E3B0E0E4E3F0E031
:101A60008081482F8A81282F30E081E090E0022E8B
:101A700002C0880F991F0A94E2F7809584238C9303
:101A80002BC08B818130A1F4A1E3B0E0E1E3F0E071
:101A90008081482F8A81282F30E081E090E0022E5B
:101AA00002C0880F991F0A94E2F7842B8C9314C00C
:101AB000A1E3B0E0E1E3F0E08081482F8A81282FA4
:101AC00030E081E090E0022E02C0880F991F0A9456
:101AD000E2F7809584238C930F900F900F900F90D6
:101AE0000F90CF91DF910895DF93CF9300D000D076
:101AF0000F92CDB7DEB789836A834B838A818830A2
:101B000008F0D5C08981843008F0D1C08981282FA0
:101B100030E03D832C838C819D818130910509F4D7
:101B200043C02C813D81223031052CF48C819D8174
:101B3000009771F0BCC02C813D812230310509F441
:101B40005FC08C819D818330910509F485C0AFC051
:101B50008B818130A1F4ABE3B0E0EBE3F0E0808176
:101B6000482F8A81282F30E081E090E0022E02C0C9
:101B7000880F991F0A94E2F7842B8C9398C0ABE3EB
:101B8000B0E0EBE3F0E08081482F8A81282F30E03D
:101B900081E090E0022E02C0880F991F0A94E2F7BC
:101BA000809584238C9383C08B818130A1F4A8E33A
:101BB000B0E0E8E3F0E08081482F8A81282F30E010
:101BC00081E090E0022E02C0880F991F0A94E2F78C
:101BD000842B8C936CC0A8E3B0E0E8E3F0E0808154
:101BE000482F8A81282F30E081E090E0022E02C049
:101BF000880F991F0A94E2F7809584238C9357C02D
:101C00008B818130A1F4A5E3B0E0E5E3F0E08081D1
:101C1000482F8A81282F30E081E090E0022E02C018
:101C2000880F991F0A94E2F7842B8C9340C0A5E398
:101C3000B0E0E5E3F0E08081482F8A81282F30E092
:101C400081E090E0022E02C0880F991F0A94E2F70B
:101C5000809584238C932BC08B818130A1F4A2E3E7
:101C6000B0E0E2E3F0E08081482F8A81282F30E065
:101C700081E090E0022E02C0880F991F0A94E2F7DB
:101C8000842B8C9314C0A2E3B0E0E2E3F0E0808107
:101C9000482F8A81282F30E081E090E0022E02C098
:101CA000880F991F0A94E2F7809584238C930F90F4
:101CB0000F900F900F900F90CF91DF910895DF93C9
:101CC000CF9300D000D00F92CDB7DEB78A836B835D
:101CD00019828B81883008F084C08A81843008F0B2
:101CE00080C08A81282F30E03D832C834C815D8128
:101CF0004130510579F18C819D818230910534F418
:101D00002C813D812115310569F06BC04C815D81CD
:101D100042305105B9F18C819D818330910509F4E0
:101D200049C05FC0E9E3F0E08081282F30E08B817B
:101D3000882F90E0A90102C0559547958A95E2F752
:101D4000CA0181709070882319F081E0898349C0AD
:101D5000198247C0E6E3F0E08081282F30E08B81D4
:101D6000882F90E0A90102C0559547958A95E2F722
:101D7000CA0181709070882319F081E0898331C095
:101D800019822FC0E3E3F0E08081282F30E08B81BF
:101D9000882F90E0A90102C0559547958A95E2F7F2
:101DA000CA0181709070882319F081E0898319C07D
:101DB000198217C0E0E3F0E08081282F30E08B81AA
:101DC000882F90E0A90102C0559547958A95E2F7C2
:101DD000CA0181709070882319F081E0898301C065
:101DE000198289810F900F900F900F900F90CF91D3
:101DF000DF910895DF93CF9300D000D0CDB7DEB749
:101E000089836A838981843090F58981282F30E025
:101E10003C832B838B819C8181309105D1F02B8178
:101E20003C81223031052CF48B819C81009761F03C
:101E30001EC02B813C812230310581F08B819C8139
:101E40008330910581F013C0EAE3F0E08A8180835A
:101E50000EC0E7E3F0E08A81808309C0E4E3F0E0AC
:101E60008A81808304C0E1E3F0E08A8180830F905F
:101E70000F900F900F90CF91DF910895DF93CF9344
:101E800000D000D0CDB7DEB789836A8389818430E2
:101E900090F58981282F30E03C832B838B819C81B6
:101EA00081309105D1F02B813C81223031052CF419
:101EB0008B819C81009761F01EC02B813C81223078
:101EC000310581F08B819C818330910581F013C0B5
:101ED000EBE3F0E08A8180830EC0E8E3F0E08A81E2
:101EE000808309C0E5E3F0E08A81808304C0E2E3F7
:101EF000F0E08A8180830F900F900F900F90CF9128
:101F0000DF910895DF93CF9300D000D0CDB7DEB737
:101F10008A8319828A81843090F58A81282F30E063
:101F20003C832B838B819C8181309105D1F02B8167
:101F30003C81223031052CF48B819C81009761F02B
:101F40001EC02B813C812230310581F08B819C8128
:101F50008330910581F013C0E9E3F0E0808189834B
:101F60000EC0E6E3F0E08081898309C0E3E3F0E09E
:101F70008081898304C0E0E3F0E0808189838981E6
:101F80000F900F900F900F90CF91DF910895DF93F6
:101F9000CF9300D000D0CDB7DEB789836A838A8122
:101FA000883008F072C08981843008F06EC0898161
:101FB000282F30E03C832B838B819C8181309105DD
:101FC00049F12B813C81223031052CF48B819C819D
:101FD000009761F05AC02B813C812230310571F1AC
:101FE0008B819C8183309105E9F14FC0ABE3B0E078
:101FF000EBE3F0E08081482F8A81282F30E081E0F8
:1020000090E0022E02C0880F991F0A94E2F78427FD
:102010008C933BC0A8E3B0E0E8E3F0E08081482F78
:102020008A81282F30E081E090E0022E02C0880FE4
:10203000991F0A94E2F784278C9327C0A5E3B0E0A8
:10204000E5E3F0E08081482F8A81282F30E081E0AD
:1020500090E0022E02C0880F991F0A94E2F78427AD
:102060008C9313C0A2E3B0E0E2E3F0E08081482F5C
:102070008A81282F30E081E090E0022E02C0880F94
:10208000991F0A94E2F784278C930F900F900F907A
:102090000F90CF91DF910895DF93CF9300D0CDB70C
:1020A000DEB780918701282F30E03A832983898128
:1020B0009A818230910571F129813A81233031056D
:1020C00034F489819A818130910569F07AC029813F
:1020D0003A8123303105D9F189819A818430910583
:1020E00009F452C06EC00E94551180918801883158
:1020F00059F480E067E00E94721680E064E00E947C
:102100001A161092880165C0809188018F5F8093B4
:1021100088015FC00E94551180918801833110F0C1
:102120001092880180918801823159F480E067E043
:102130000E94721680E065E00E941A1610928801D3
:1021400048C0809188018F5F8093880142C00E94BF
:102150005511809188018D3010F010928801809186
:1021600088018C3059F480E067E00E94721680E0AC
:1021700066E00E941A16109288012BC08091880197
:102180008F5F8093880125C00E945511809188013E
:10219000873010F01092880180918801863059F4C0
:1021A00080E067E00E94721680E066E00E941A16E6
:1021B000109288010EC0809188018F5F8093880102
:1021C00008C00E94551180E067E00E9461161092DD
:1021D00088010F900F90CF91DF910895DF93CF93F7
:1021E00000D0CDB7DEB79A83898389819A818932FD
:1021F000910560F489819A818F31910538F081E0F1
:102200008093870180E00E94780B33C089819A8196
:102210008F31910560F489819A818531910538F07B
:1022200082E08093870180E00E94780B22C0898140
:102230009A818531910560F489819A818B3091056D
:1022400038F083E08093870180E00E94780B11C012
:1022500089819A818B30910538F484E080938701DD
:1022600080E00E94780B05C01092870180E00E94F8
:10227000780B0F900F90CF91DF910895DF93CF935C
:10228000CDB7DEB780E064E00E94E21580E065E053
:102290000E94E21580E066E00E94E21580E067E0BF
:1022A0000E943A16CF91DF910895DF93CF93CDB777
:1022B000DEB780E064E00E94091680E065E00E94DD
:1022C000091680E066E00E940916CF91DF9108951B
:1022D000DF93CF93CDB7DEB780917A0190917B01E8
:1022E000A0917C01B0917D0188329105A105B105D5
:1022F00024F082E08093860137C080917A0190912A
:102300007B01A0917C01B0917D0184319105A105F3
:10231000B1058CF080917A0190917B01A0917C01B4
:10232000B0917D0188329105A105B10524F481E0C9
:102330008093860119C080917A0190917B01A091D0
:102340007C01B0917D01BB237CF080917A0190915A
:102350007B01A0917C01B0917D0184319105A105A3
:10236000B10514F410928601CF91DF910895DF93A7
:10237000CF93CDB7DEB780917E0190917F01A09180
:102380008001B09181018C3B22E0920720E0A207FE
:1023900020E0B20724F082E08093850146C080915E
:1023A0007E0190917F01A0918001B0918101843FD5
:1023B00021E0920720E0A20720E0B207A4F080917C
:1023C0007E0190917F01A0918001B09181018C3BB1
:1023D00022E0920720E0A20720E0B20724F481E087
:1023E0008093850122C080917E0190917F01A09110
:1023F0008001B09181018C3221E0920720E0A20798
:1024000020E0B20794F080917E0190917F01A0912D
:102410008001B0918101843F21E0920720E0A20772
:1024200020E0B20714F410928501CF91DF91089556
:10243000DF93CF93CDB7DEB783E064E00E94501600
:1024400083E063E00E94F81580918601823021F0DC
:1024500080918601813019F40E94F01302C00E941D
:10246000FC1383E062E041E00E94740DCF91DF91A4
:102470000895DF93CF93CDB7DEB783E064E00E9489
:10248000501683E063E00E94F81580918601823047
:1024900021F080918601813019F40E94F01302C06E
:1024A0000E94FC1383E062E040E00E94740DCF9133
:1024B000DF910895DF93CF93CDB7DEB783E064E07B
:1024C0000E94611683E063E00E9409160E94FC13DB
:1024D00083E062E040E00E94740DCF91DF910895A7
:1024E000DF93CF93CDB7DEB783E064E00E94E215BF
:1024F00083E063E00E943A16CF91DF910895DF9365
:10250000CF93CDB7DEB7AA970FB6F894DEBF0FBE54
:10251000CDBFCE014D969FA38EA3E8E6F1E0F9A7CB
:10252000E8A7F9E0FAA7E8A5F9A5008088A599A58C
:10253000019699A788A7EEA1FFA100828EA19FA175
:1025400001969FA38EA39AA591509AA7EAA5EE2380
:1025500051F780E090E0AAE7B3E4898F9A8FAB8FC0
:10256000BC8F698D7A8D8B8D9C8D20E030E04AE7A1
:1025700055E40E941F02DC01CB018D8B9E8BAF8B3B
:10258000B88F6D897E898F89988D20E030E040E892
:102590005FE30E94250488232CF481E090E09C8B6B
:1025A0008B8B3FC06D897E898F89988D20E03FEFAE
:1025B0004FE757E40E94C50318164CF5698D7A8DD4
:1025C0008B8D9C8D20E030E040E251E40E941F02A0
:1025D000DC01CB01BC01CD010E944900DC01CB0133
:1025E0009C8B8B8B0FC080E991E09A8B898B8989BA
:1025F0009A890197F1F79A8B898B8B899C8901972E
:102600009C8B8B8B8B899C89009769F714C06D8993
:102610007E898F89988D0E944900DC01CB019C8BBB
:102620008B8B8B899C89988B8F878F859889019755
:10263000F1F7988B8F870E9475070E9405240E94EE
:1026400070120E943E11CE014D960E94D70983E080
:1026500062E041E00E94890C0E942D140E94DF1369
:1026600078940E9468110E94B71180918501823090
:1026700021F080918601823019F40E9418121CC04A
:1026800080918501813021F080918601813019F49B
:102690000E94391211C080918501882321F0809118
:1026A0008601882319F40E945A1206C083E064E070
:1026B0000E9461160E94FC130E94281590938401C9
:1026C0008093830180918301909184010E94EE1098
:1026D0008AE791E00E94E22380E090E0AAE7B4E478
:1026E0008B879C87AD87BE876B857C858D859E8516
:1026F00020E030E04AE755E40E941F02DC01CB01F4
:102700008F839887A987BA876F81788589859A850D
:1027100020E030E040E85FE30E94250488232CF4A9
:1027200081E090E09E838D833FC06F8178858985AD
:102730009A8520E03FEF4FE757E40E94C503181643
:102740004CF56B857C858D859E8520E030E040E2F0
:1027500051E40E941F02DC01CB01BC01CD010E94AB
:102760004900DC01CB019E838D830FC080E991E09D
:102770009C838B838B819C810197F1F79C838B8356
:102780008D819E8101979E838D838D819E8100978F
:1027900069F767CF6F81788589859A850E9449009E
:1027A000DC01CB019E838D838D819E819A838983F9
:1027B00089819A810197F1F79A83898352CFDF93B8
:1027C000CF93CDB7DEB780E060E041E00E94890C96
:1027D00080E060E040E00E94740DCF91DF910895A9
:1027E000DF93CF93CDB7DEB780E060E041E00E9499
:1027F000740DCF91DF910895DF93CF93CDB7DEB7FE
:1028000080E060E040E00E94740DCF91DF91089578
:10281000DF93CF93CDB7DEB7809189018F5F80932F
:10282000890180918901813031F40E94620C80E03D
:102830000E94380C0FC080918901823059F40E94A7
:10284000570C90938B0180938A0181E00E94380C91
:1028500010928901CF91DF910895DF93CF9300D03B
:10286000CDB7DEB782E0898381E08A8388E094E196
:102870000E94260CCE0101960E94CA0B81E065E001
:1028800041E00E94890C81E065E040E00E94740D07
:102890000F900F90CF91DF910895DF93CF93CDB735
:1028A000DEB768970FB6F894DEBF0FBECDBF81E0EC
:1028B00065E041E00E94740D80E090E0A0E8BFE395
:1028C0008D8B9E8BAF8BB88F6D897E898F89988D0C
:1028D0002BEA3AEA4AEA50E40E941F02DC01CB01EB
:1028E000898B9A8BAB8BBC8B69897A898B899C8904
:1028F00020E030E040E85FE30E94250488231CF4D8
:1029000081E0888B91C069897A898B899C8920E0D4
:1029100030E04FE753E40E94C50318160CF07BC06B
:102920006D897E898F89988D20E030E04AE754E4F4
:102930000E941903DC01CB018C879D87AE87BF877E
:102940006C857D858E859F8520E030E04AE755E4E3
:102950000E941F02DC01CB0188879987AA87BB8769
:10296000688579858A859B8520E030E040E85FE3D3
:102970000E94250488232CF481E090E09F838E83BD
:102980003FC0688579858A859B8520E03FEF4FE7CA
:1029900057E40E94C50318164CF56C857D858E851D
:1029A0009F8520E030E040E251E40E941F02DC01FC
:1029B000CB01BC01CD010E944900DC01CB019F830A
:1029C0008E830FC080E991E09D838C838C819D81F3
:1029D0000197F1F79D838C838E819F8101979F835F
:1029E0008E838E819F81009769F724C068857985E1
:1029F0008A859B850E944900DC01CB019F838E83E1
:102A00008E819F819B838A838A819B810197F1F7C5
:102A10009B838A830FC069897A898B899C890E94EC
:102A20004900DC01CB01888B8889898389818A955B
:102A3000F1F7898381E065E040E00E94740D6896BB
:102A40000FB6F894DEBF0FBECDBFCF91DF910895D2
:102A5000DF93CF9300D0CDB7DEB70E944D148091A5
:102A60008A0190918B01CC01A0E0B0E0BC01CD01C6
:102A70000E940705DC01CB01BC01CD0128E23EE745
:102A80004CE85CE30E941F02DC01CB01BC01CD01DC
:102A900020E030E040E050E40E941903DC01CB016B
:102AA000BC01CD0120E030E040E85FE30E94F2018C
:102AB000DC01CB01BC01CD010E944900DC01CB014E
:102AC0008093900190939101A0939201B093930110
:102AD0008091900190919101A0919201B091930108
:102AE000863521E0920720E0A20720E0B207F0F04F
:102AF0008091900190919101A0919201B0919301E8
:102B00000296A11DB11D80938C0190938D01A0931D
:102B10008E01B0938F0180918C0190918D01A091D5
:102B20008E01B0918F019A83898345C08091900175
:102B300090919101A0919201B09193018A399105F0
:102B4000A105B10570F18091900190919101A09142
:102B50009201B0919301863521E0920720E0A2070F
:102B600020E0B207F0F48091900190919101A09142
:102B70009201B09193010196A11DB11D80938C012A
:102B800090938D01A0938E01B0938F0180918C0161
:102B900090918D01A0918E01B0918F019A838983CC
:102BA0000AC08091900190919101A0919201B09101
:102BB00093019A83898389819A810F900F90CF9195
:102BC000DF910895DF93CF9300D0CDB7DEB789832F
:102BD0006A8389816A8141E00E94890C89816A81C6
:102BE00040E00E94740D0F900F90CF91DF910895F7
:102BF000DF93CF9300D0CDB7DEB789836A83898115
:102C00006A8141E00E94740D0F900F90CF91DF9187
:102C10000895DF93CF9300D0CDB7DEB789836A8361
:102C200089816A8140E00E94740D0F900F90CF91CE
:102C3000DF910895DF93CF9300D0CDB7DEB78983BE
:102C40006A8389816A810E94C70F0F900F90CF918C
:102C5000DF910895DF93CF9300D0CDB7DEB789839E
:102C60006A8389816A810E945F0E0F900F90CF91D5
:102C7000DF910895DF93CF9300D0CDB7DEB789837E
:102C80006A8389816A8141E00E94890C89816A8115
:102C900040E00E94740D0F900F90CF91DF91089546
:102CA000DF93CF9300D0CDB7DEB789836A83898164
:102CB0006A8141E00E94740D0F900F90CF91DF91D7
:102CC0000895DF93CF9300D0CDB7DEB789836A83B1
:102CD00089816A8140E00E94740D0F900F90CF911E
:102CE000DF910895DF93CF9300D0CDB7DEB789830E
:102CF0006A8389816A810E94C70F0F900F90CF91DC
:102D0000DF9108950F931F93DF93CF93CDB7DEB775
:102D1000C259D0400FB6F894DEBF0FBECDBFCE0172
:102D200083589F4F26E1FC01DF01822F1D928A9577
:102D3000E9F7FE01E558FF4F8AEA90E0918380832E
:102D4000FE01E758FF4F11821082D9C48EEE0E9417
:102D50001A08FE01EB58FF4F80E090E0A0E2B1E4DA
:102D600080839183A283B3838E010F581F4FFE018E
:102D7000EB58FF4F60817181828193812BEA3AEA9F
:102D80004AEA50E40E941F02DC01CB01F801808373
:102D90009183A283B383FE01EF58FF4F608171815D
:102DA0008281938120E030E040E85FE30E942504C7
:102DB000882334F4FE01E059FF4F81E08083E0C0B6
:102DC000FE01EF58FF4F608171818281938120E085
:102DD00030E04FE753E40E94C50318160CF0C0C062
:102DE000FE01EB58FF4F608171818281938120E069
:102DF00030E04AE754E40E941903DC01CB01FE01F4
:102E0000E459FF4F80839183A283B3838E010859D5
:102E10001F4FFE01E459FF4F6081718182819381D0
:102E200020E030E04AE755E40E941F02DC01CB01BC
:102E3000F80180839183A283B383FE01E859FF4F99
:102E4000608171818281938120E030E040E85FE31E
:102E50000E942504882344F4FE01EA59FF4F81E0D3
:102E600090E09183808364C0FE01E859FF4F608148
:102E700071818281938120E03FEF4FE757E40E9408
:102E8000C50318160CF043C0FE01E459FF4F6081E2
:102E900071818281938120E030E040E251E40E9420
:102EA0001F02DC01CB018E010A591F4FBC01CD016D
:102EB0000E944900DC01CB01F801918380831FC08F
:102EC000FE01EC59FF4F80E991E091838083FE0180
:102ED000EC59FF4F808191810197F1F7FE01EC5988
:102EE000FF4F91838083DE01AA59BF4FFE01EA594B
:102EF000FF4F80819181019711969C938E93FE01E3
:102F0000EA59FF4F808191810097D1F64BC08E0125
:102F10000A591F4FFE01E859FF4F6081718182817C
:102F200093810E944900DC01CB01F80191838083E9
:102F3000DE01AE59BF4FFE01EA59FF4F80819181FA
:102F400011969C938E93FE01EE59FF4F80819181E3
:102F50000197F1F7FE01EE59FF4F9183808322C064
:102F60008E0100591F4FFE01EF58FF4F60817181A4
:102F7000828193810E944900DC01CB01F8018083AA
:102F8000DE01AF59BF4FFE01E059FF4F80818C93A6
:102F9000FE01EF59FF4F80818A95F1F7FE01EF594D
:102FA000FF4F8083FE01E558FF4F9081FE01E758F7
:102FB000FF4F8081890F0E945908FE01E35AFF4F9D
:102FC00080E090E0A0E2B1E480839183A283B383A8
:102FD0008E01075A1F4FFE01E35AFF4F6081718136
:102FE000828193812BEA3AEA4AEA50E40E941F0266
:102FF000DC01CB01F80180839183A283B383FE01BE
:10300000E75AFF4F608171818281938120E030E037
:1030100040E85FE30E942504882334F4FE01E85A67
:10302000FF4F81E08083E0C0FE01E75AFF4F6081DF
:1030300071818281938120E030E04FE753E40E9468
:10304000C50318160CF0C0C0FE01E35AFF4F6081A3
:1030500071818281938120E030E04AE754E40E944C
:103060001903DC01CB01FE01EC5AFF4F80839183F1
:10307000A283B3838E01005B1F4FFE01EC5AFF4F0A
:10308000608171818281938120E030E04AE755E4DC
:103090000E941F02DC01CB01F80180839183A2838F
:1030A000B383FE01E05BFF4F608171818281938178
:1030B00020E030E040E85FE30E942504882344F4E8
:1030C000FE01E25BFF4F81E090E09183808364C06A
:1030D000FE01E05BFF4F608171818281938120E07E
:1030E0003FEF4FE757E40E94C50318160CF043C0AA
:1030F000FE01EC5AFF4F608171818281938120E053
:1031000030E040E251E40E941F02DC01CB018E015D
:10311000025B1F4FBC01CD010E944900DC01CB01C5
:10312000F801918380831FC0FE01E45BFF4F80E9BB
:1031300091E091838083FE01E45BFF4F8081918168
:103140000197F1F7FE01E45BFF4F91838083DE017D
:10315000A25BBF4FFE01E25BFF4F8081918101972F
:1031600011969C938E93FE01E25BFF4F80819181CB
:103170000097D1F64BC08E01025B1F4FFE01E05B52
:10318000FF4F60817181828193810E944900DC013F
:10319000CB01F80191838083DE01A65BBF4FFE0166
:1031A000E25BFF4F8081918111969C938E93FE018B
:1031B000E65BFF4F808191810197F1F7FE01E65BAD
:1031C000FF4F9183808322C08E01085A1F4FFE015A
:1031D000E75AFF4F60817181828193810E9449008B
:1031E000DC01CB01F8018083DE01A75BBF4FFE014C
:1031F000E85AFF4F80818C93FE01E75BFF4F80818F
:103200008A95F1F7FE01E75BFF4F80838FEE0E9406
:10321000DD07FE01EB5BFF4F80E090E0A0E2B1E450
:1032200080839183A283B3838E010F5B1F4FFE01C6
:10323000EB5BFF4F60817181828193812BEA3AEAD7
:103240004AEA50E40E941F02DC01CB01F8018083AE
:103250009183A283B383FE01EF5BFF4F6081718195
:103260008281938120E030E040E85FE30E94250402
:10327000882334F481E0FE01E05CFF4F80839DC031
:10328000FE01EF5BFF4F608171818281938120E0BD
:1032900030E04FE753E40E94C50318160CF07EC0DF
:1032A000FE01EB5BFF4F608171818281938120E0A1
:1032B00030E04AE754E40E941903DC01CB018CAFF3
:1032C0009DAFAEAFBFAF6CAD7DAD8EAD9FAD20E01D
:1032D00030E04AE755E40E941F02DC01CB0188AFD1
:1032E00099AFAAAFBBAF68AD79AD8AAD9BAD20E019
:1032F00030E040E85FE30E94250488232CF481E05D
:1033000090E09FAB8EAB3FC068AD79AD8AAD9BAD11
:1033100020E03FEF4FE757E40E94C50318164CF535
:103320006CAD7DAD8EAD9FAD20E030E040E251E46C
:103330000E941F02DC01CB01BC01CD010E944900AB
:10334000DC01CB019FAB8EAB0FC080E991E09DAB60
:103350008CAB8CA99DA90197F1F79DAB8CAB8EA985
:103360009FA901979FAB8EAB8EA99FA9009769F784
:103370002DC068AD79AD8AAD9BAD0E944900DC01DE
:10338000CB019FAB8EAB8EA99FA99BAB8AAB8AA9C1
:103390009BA90197F1F79BAB8AAB18C0FE01EF5BCD
:1033A000FF4F60817181828193810E944900DC011D
:1033B000CB01FE01E05CFF4F8083FE01E05CFF4F2C
:1033C000808189AB89A98A95F1F789ABFE01E7581D
:1033D000FF4F008111810E948308282FCE0183585E
:1033E0009F4FFC01E00FF11F208380E090E0A0E2FE
:1033F000B1E48DA79EA7AFA7B8AB6DA57EA58FA59D
:1034000098A92BEA3AEA4AEA50E40E941F02DC013A
:10341000CB0189A79AA7ABA7BCA769A57AA58BA55D
:103420009CA520E030E040E85FE30E94250488236B
:103430001CF481E088A791C069A57AA58BA59CA5FD
:1034400020E030E04FE753E40E94C50318160CF06B
:103450007BC06DA57EA58FA598A920E030E04AE746
:1034600054E40E941903DC01CB018CA39DA3AEA3FD
:10347000BFA36CA17DA18EA19FA120E030E04AE70F
:1034800055E40E941F02DC01CB0188A399A3AAA3E3
:10349000BBA368A179A18AA19BA120E030E040E80C
:1034A0005FE30E94250488232CF481E090E09F8F45
:1034B0008E8F3FC068A179A18AA19BA120E03FEF38
:1034C0004FE757E40E94C50318164CF56CA17DA187
:1034D0008EA19FA120E030E040E251E40E941F0253
:1034E000DC01CB01BC01CD010E944900DC01CB0114
:1034F0009F8F8E8F0FC080E991E09D8F8C8F8C8D78
:103500009D8D0197F1F79D8F8C8F8E8D9F8D0197EB
:103510009F8F8E8F8E8D9F8D009769F724C068A135
:1035200079A18AA19BA10E944900DC01CB019F8F58
:103530008E8F8E8D9F8D9B8F8A8F8A8D9B8D01970D
:10354000F1F79B8F8A8F0FC069A57AA58BA59CA5E3
:103550000E944900DC01CB0188A788A5898F898D4D
:103560008A95F1F7898F0E944E0880E090E0A0E2F2
:10357000B1E48D8B9E8BAF8BB88F6D897E898F89DF
:10358000988D2BEA3AEA4AEA50E40E941F02DC01D5
:10359000CB01898B9A8BAB8BBC8B69897A898B89A0
:1035A0009C8920E030E040E85FE30E942504882306
:1035B0001CF481E0888B91C069897A898B899C8908
:1035C00020E030E04FE753E40E94C50318160CF0EA
:1035D0007BC06D897E898F89988D20E030E04AE735
:1035E00054E40E941903DC01CB018C879D87AE87D0
:1035F000BF876C857D858E859F8520E030E04AE71A
:1036000055E40E941F02DC01CB0188879987AA87B5
:10361000BB87688579858A859B8520E030E040E816
:103620005FE30E94250488232CF481E090E09F83CF
:103630008E833FC0688579858A859B8520E03FEF32
:103640004FE757E40E94C50318164CF56C857D853D
:103650008E859F8520E030E040E251E40E941F0209
:10366000DC01CB01BC01CD010E944900DC01CB0192
:103670009F838E830FC080E991E09D838C838C8132
:103680009D810197F1F79D838C838E819F810197A6
:103690009F838E838E819F81009769F724C0688500
:1036A00079858A859B850E944900DC01CB019F8337
:1036B0008E838E819F819B838A838A819B810197E0
:1036C000F1F79B838A830FC069897A898B899C89EA
:1036D0000E944900DC01CB01888B8889898389811C
:1036E0008A95F1F78983DE01A758BF4FFE01E7589D
:1036F000FF4F80819181019611969C938E93FE01DC
:10370000E758FF4F80819181863191050CF41ECBE3
:10371000FE01E358FF4F8081882F90E0382F222749
:10372000FE01E358FF4F8181882F90E0822B932B7D
:103730009093950180939401FE01E358FF4F82819D
:10374000882F90E0382F2227FE01E358FF4F838116
:10375000882F90E0822B932B909397018093960172
:10376000FE01E358FF4F8481882F90E0382F2227F5
:10377000FE01E358FF4F8581882F90E0822B932B29
:103780009093990180939801FE01E358FF4F868141
:10379000882F90E0382F2227FE01E358FF4F8781C2
:1037A000882F90E0822B932B9093A5018093A40106
:1037B000FE01E358FF4F8085882F90E0382F2227A5
:1037C000FE01E358FF4F8185882F90E0822B932BD9
:1037D0009093A7018093A601FE01E358FF4F8285D5
:1037E000882F90E0382F2227FE01E358FF4F838572
:1037F000882F90E0822B932B9093A9018093A801AE
:10380000FE01E358FF4F8485882F90E0382F222750
:10381000FE01E358FF4F8585882F90E0822B932B84
:1038200090939B0180939A01FE01E358FF4F868598
:10383000882F90E0382F2227FE01E358FF4F87851D
:10384000882F90E0822B932B90939D0180939C0175
:10385000FE01E358FF4F8089882F90E0382F222700
:10386000FE01E358FF4F8189882F90E0822B932B34
:1038700090939F0180939E01FE01E358FF4F828940
:10388000882F90E0382F2227FE01E358FF4F8389CD
:10389000882F90E0822B932B9093A1018093A0011D
:1038A000FE01E358FF4F8489882F90E0382F2227AC
:1038B000FE01E358FF4F8589882F90E0822B932BE0
:1038C0009093A3018093A201CE56DF4F0FB6F894D8
:1038D000DEBF0FBECDBFCF91DF911F910F91089535
:1038E000DF93CF93CDB7DEB766970FB6F894DEBF00
:1038F0000FBECDBF84E38B8B83E0FE017496DF01A6
:10390000982F1D929A95E9F71F86188A198A1A8AA4
:103910008EEE0E94A0070E940E2484EF0E94590898
:103920000E940E248B890E9459080E940E240E9436
:103930004E0880E090E0A0EAB0E48B879C87AD87DA
:10394000BE876B857C858D859E8520E030E04AE7CB
:1039500055E40E941F02DC01CB018F839887A98761
:10396000BA876F81788589859A8520E030E040E8C4
:103970005FE30E94250488232CF481E090E09E837D
:103980008D833FC06F81788589859A8520E03FEFE0
:103990004FE757E40E94C50318164CF56B857C85EC
:1039A0008D859E8520E030E040E251E40E941F02B8
:1039B000DC01CB01BC01CD010E944900DC01CB013F
:1039C0009E838D830FC080E991E09C838B838B81E4
:1039D0009C810197F1F79C838B838D819E81019758
:1039E0009E838D838D819E81009769F714C06F81BE
:1039F000788589859A850E944900DC01CB019E83E8
:103A00008D838D819E819A83898389819A81019793
:103A1000F1F79A8389838EEE0E941A080E940E2481
:103A200086EF0E9459080E940E248FEE0E94DD0747
:103A30000E940E240E9483088C8B0E940E240E94F8
:103A40004E080E940E248EEE0E941A080E940E2438
:103A500087EF0E9459080E940E248FEE0E94DD0716
:103A60000E940E240E9483088D8B0E940E240E94C7
:103A70004E080E940E248EEE0E941A080E940E2408
:103A800088EF0E9459080E940E248FEE0E94DD07E5
:103A90000E940E240E9483088E8B0E940E240E9496
:103AA0004E088C89882F90E0A0E0B0E0AC0133276D
:103AB00022278F859889A989BA89822B932BA42BD9
:103AC000B52B8F87988BA98BBA8B8D89882F90E027
:103AD000A0E0B0E02227382F492F5A2F8F859889F0
:103AE000A989BA89822B932BA42BB52B8F87988B0E
:103AF000A98BBA8B8E89282F30E040E050E08F856B
:103B00009889A989BA89822B932BA42BB52B8F87EF
:103B1000988BA98BBA8B8F859889A989BA89892FA7
:103B20009A2FAB2FBB278F87988BA98BBA8B8F854A
:103B30009889A989BA89BC01CD0166960FB6F89417
:103B4000DEBF0FBECDBFCF91DF910895DF93CF933E
:103B5000CDB7DEB765970FB6F894DEBF0FBECDBF09
:103B6000188A198A1A8A1B8A8EE28F871D8A1C8AF4
:103B70008EEE0E94A0070E940E2484EF0E94590836
:103B80000E940E248F850E9459080E940E240E94D4
:103B90004E0880E090E0A0EAB0E48B879C87AD8778
:103BA000BE876B857C858D859E8520E030E04AE769
:103BB00055E40E941F02DC01CB018F839887A987FF
:103BC000BA876F81788589859A8520E030E040E862
:103BD0005FE30E94250488232CF481E090E09E831B
:103BE0008D833FC06F81788589859A8520E03FEF7E
:103BF0004FE757E40E94C50318164CF56B857C858A
:103C00008D859E8520E030E040E251E40E941F0255
:103C1000DC01CB01BC01CD010E944900DC01CB01DC
:103C20009E838D830FC080E991E09C838B838B8181
:103C30009C810197F1F79C838B838D819E810197F5
:103C40009E838D838D819E81009769F714C06F815B
:103C5000788589859A850E944900DC01CB019E8385
:103C60008D838D819E819A83898389819A81019731
:103C7000F1F79A8389838EEE0E941A080E940E241F
:103C800086EF0E9459080E940E248FEE0E94DD07E5
:103C90000E940E240E9483088C8B0E940E240E9496
:103CA0004E080E940E248EEE0E941A080E940E24D6
:103CB00087EF0E9459080E940E248FEE0E94DD07B4
:103CC0000E940E240E9483088D8B0E940E240E9465
:103CD0004E088C89882F90E0A0E0B0E02227382F92
:103CE000492F5A2F88899989AA89BB89822B932BBE
:103CF000A42BB52B888B998BAA8BBB8B8D89282FF6
:103D000030E040E050E088899989AA89BB89822BFC
:103D1000932BA42BB52B888B998BAA8BBB8B888973
:103D20009989AA89BB89BC01CD0165960FB6F89423
:103D3000DEBF0FBECDBFCF91DF910895EF92FF920E
:103D40000F931F93DF93CF9300D000D0CDB7DEB792
:103D500080E090E0A0E0B0E089839A83AB83BC83ED
:103D60000E94A61DDC01CB018093B6019093B701A0
:103D7000A093B801B093B9012091B6013091B70179
:103D80004091B8015091B9018091A8019091A90189
:103D9000CC01A0E0B0E079018A01E81AF90A0A0B27
:103DA0001B0BD801C701BC01CD010E9455047B014A
:103DB0008C018091A6019091A701CC01A0E0B0E018
:103DC000BC01CD010E940705DC01CB01BC01CD0186
:103DD00020E030E040E057E40E941903DC01CB0111
:103DE0009C01AD01C801B7010E941F02DC01CB019B
:103DF000BC01CD010E94B304DC01CB018093AA0178
:103E00009093AB01A093AC01B093AD018091A00160
:103E10009091A101AA2797FDA095BA2FBC01CD01D1
:103E20000E945504DC01CB01BC01CD0120E030E053
:103E300040E055E40E941F02DC01CB017C018D01B2
:103E40008091A2019091A3019C01442737FD4095E8
:103E5000542F8091AA019091AB01A091AC01B09137
:103E6000AD01820F931FA41FB51FBC01CD010E949D
:103E700055049B01AC01C801B7010E941903DC0184
:103E8000CB01BC01CD010E94B304DC01CB018093C6
:103E9000AE019093AF01A093B001B093B101209116
:103EA000AA013091AB014091AC015091AD018091DC
:103EB000AE019091AF01A091B001B091B101820F1C
:103EC000931FA41FB51F8093B2019093B301A093D9
:103ED000B401B093B5018091B2019091B301A0916A
:103EE000B401B091B5010896A11DB11DBC01CD0171
:103EF0000E945504DC01CB01BC01CD0120E030E083
:103F000040E851E40E941903DC01CB0189839A83C4
:103F1000AB83BC8369817A818B819C8120E030E016
:103F200040E251E40E941903DC01CB01BC01CD0148
:103F30000E94B304DC01CB01BC01CD010F900F90B6
:103F40000F900F90CF91DF911F910F91FF90EF9005
:103F50000895EF92FF920F931F93DF93CF93CDB706
:103F6000DEB70E94701CDC01CB018093CA019093E4
:103F7000CB01A093CC01B093CD012091B60130913B
:103F8000B7014091B8015091B9018091A801909179
:103F9000A901CC01A0E0B0E079018A01E81AF90A90
:103FA0000A0B1B0BD801C701BC01CD010E945504AF
:103FB0007B018C018091A6019091A701CC01A0E02A
:103FC000B0E0BC01CD010E940705DC01CB01BC01C2
:103FD000CD0120E030E040E057E40E941903DC010D
:103FE000CB019C01AD01C801B7010E941F02DC0199
:103FF000CB01BC01CD010E94B304DC01CB01809355
:10400000AA019093AB01A093AC01B093AD01809154
:10401000A0019091A101AA2797FDA095BA2FBC01FC
:10402000CD010E945504DC01CB01BC01CD0120E093
:1040300030E040E055E40E941F02DC01CB017C012E
:104040008D018091A2019091A3019C01442737FD2D
:104050004095542F8091AA019091AB01A091AC01A1
:10406000B091AD01820F931FA41FB51FBC01CD01FC
:104070000E9455049B01AC01C801B7010E941903BD
:10408000DC01CB01BC01CD010E94B304DC01CB01FA
:104090008093AE019093AF01A093B001B093B101B2
:1040A0002091AA013091AB014091AC015091AD013A
:1040B0008091AE019091AF01A091B001B091B1019A
:1040C000820F931FA41FB51F8093B2019093B30179
:1040D000A093B401B093B5018091B2019091B30166
:1040E000A091B401B091B501805A9F40A040B0406A
:1040F0008093C2019093C301A093C401B093C50102
:1041000080919C0190919D01AA2797FDA095BA2FBF
:10411000BC01CD010E9455047B018C018091C2013C
:104120009091C301A091C401B091C5012091C20139
:104130003091C3014091C4015091C501BC01CD0132
:104140000E94DF24DC01CB01BC01CD010E9455049B
:10415000DC01CB01BC01CD0120E030E040E855E4BA
:104160000E941903DC01CB019C01AD01C801B7011C
:104170000E941F02DC01CB01BC01CD0120E030E038
:1041800040E055E40E941903DC01CB01BC01CD01E4
:104190000E94B304DC01CB018093AA019093AB0190
:1041A000A093AC01B093AD018091960190919701DD
:1041B000AA2797FDA095BA2F2091C2013091C30183
:1041C0004091C4015091C501BC01CD010E94DF2482
:1041D000DC01CB01BC01CD010E945504DC01CB0107
:1041E000BC01CD0120E030E040E055E40E9419031D
:1041F000DC01CB01BC01CD010E94B304DC01CB0189
:104200008093AE019093AF01A093B001B093B10140
:104210002091AA013091AB014091AC015091AD01C8
:104220008091AE019091AF01A091B001B091B10128
:10423000820F931FA41FB51F8093BA019093BB01F7
:10424000A093BC01B093BD01809194019091950120
:10425000880F991F880F991F9C01442737FD4095AF
:10426000542F8091BA019091BB01A091BC01B091F3
:10427000BD01820F931FA41FB51F0296A11DB11D82
:1042800024E030E040E050E0BC01CD010E94202558
:10429000DA01C9018093BE019093BF01A093C001D0
:1042A000B093C1018091980190919901AA2797FD3F
:1042B000A095BA2F2091C2013091C3014091C40151
:1042C0005091C501BC01CD010E94DF24DC01CB016E
:1042D000BC01CD010E945504DC01CB01BC01CD0124
:1042E00020E030E040E056E40E941903DC01CB01FD
:1042F000BC01CD010E94B304DC01CB018093AA0173
:104300009093AB01A093AC01B093AD0180919A0161
:1043100090919B01AA2797FDA095BA2FBC01CD01D2
:104320000E9455047B018C018091C2019091C301D0
:10433000A091C401B091C5012091C2013091C30187
:104340004091C4015091C501BC01CD010E94DF2400
:10435000DC01CB01BC01CD010E945504DC01CB0185
:10436000BC01CD0120E030E040E855E40E94190393
:10437000DC01CB019C01AD01C801B7010E941F0205
:10438000DC01CB01BC01CD0120E030E040E857E486
:104390000E941903DC01CB01BC01CD010E94B304D2
:1043A000DC01CB018093AE019093AF01A093B001EB
:1043B000B093B1012091AA013091AB014091AC01C1
:1043C0005091AD018091AE019091AF01A091B001EB
:1043D000B091B101820F931FA41FB51F0296A11DBA
:1043E000B11DBC01CD010E945504DC01CB01BC0113
:1043F000CD0120E030E040E850E40E941903DC01E8
:10440000CB01BC01CD010E94B304DC01CB01809340
:10441000BA019093BB01A093BC01B093BD01809100
:10442000A4019091A5017C0100E010E08091BA0107
:104430009091BB01A091BC01B091BD01805090480A
:10444000AF4FBF4F9C01AD01C801B7010E94DF24EF
:10445000DC01CB01BC01CD010E940705DC01CB01D1
:10446000BC01CD0120E030E040E057E40E94190398
:10447000DC01CB01BC01CD010E944900DC01CB0174
:104480008093CE019093CF01A093D001B093D1013E
:104490008091CA019091CB01A091CC01B091CD0146
:1044A0009C01AD018091BE019091BF01A091C0011E
:1044B000B091C10179018A01E81AF90A0A0B1B0BB4
:1044C000D801C70120E533EC40E050E0BC01CD014C
:1044D0000E94DF24DC01CB018093D2019093D301B1
:1044E000A093D401B093D5018091D2019091D301D2
:1044F000A091D401B091D501BB231CF18091D201D0
:104500009091D301A091D401B091D501880F991F4A
:10451000AA1FBB1F2091CE013091CF014091D00145
:104520005091D101BC01CD010E94FE24DA01C901E4
:104530008093C6019093C701A093C801B093C901AD
:1045400022C08091D2019091D301A091D401B09169
:10455000D5012091CE013091CF014091D0015091F1
:10456000D101BC01CD010E94FE24DA01C901880FEE
:10457000991FAA1FBB1F8093C6019093C701A093E8
:10458000C801B093C9018091C6019091C701A09163
:10459000C801B091C901BC01CD010E945504DC01E4
:1045A000CB01BC01CD0120E030E040E853E40E94A3
:1045B0001903DC01CB017C018D018091C601909132
:1045C000C701A091C801B091C901BC01CD010E94F1
:1045D0005504DC01CB01BC01CD0120E030E040E816
:1045E00053E40E941903DC01CB019C01AD01C80119
:1045F000B7010E941F02DC01CB01BC01CD010E946A
:10460000B304DC01CB018093AA019093AB01A0938A
:10461000AC01B093AD018091AA019091AB01A09142
:10462000AC01B091AD012EED3BE040E050E0BC01AB
:10463000CD010E94DF24DC01CB01BC01CD010E9431
:104640005504DC01CB01BC01CD0120E030E040E8A5
:1046500057E40E941903DC01CB01BC01CD010E948B
:10466000B304DC01CB018093AA019093AB01A0932A
:10467000AC01B093AD018091C6019091C701A091AA
:10468000C801B091C90123E433EE4FEF5FEFBC01E5
:10469000CD010E94DF24DC01CB01BC01CD010E94D1
:1046A0005504DC01CB01BC01CD0120E030E040E845
:1046B00057E40E941903DC01CB01BC01CD010E942B
:1046C000B304DC01CB018093AE019093AF01A093C2
:1046D000B001B093B1018091C6019091C701A09142
:1046E000C801B091C901BC01CD010E9455047B01F4
:1046F0008C012091AA013091AB014091AC01509105
:10470000AD018091AE019091AF01A091B001B09147
:10471000B101820F931FA41FB51F8153914FAF4F5B
:10472000BF4FBC01CD010E945504DC01CB01BC018F
:10473000CD0120E030E040E851E40E941903DC01A3
:10474000CB019C01AD01C801B7010E94F201DC015F
:10475000CB01BC01CD010E94B304DC01CB018093ED
:10476000C6019093C701A093C801B093C90180917D
:10477000C6019091C701A091C801B091C90124E67A
:1047800030E040E050E0BC01CD010E942025DA017C
:10479000C9018093C6019093C701A093C801B0934B
:1047A000C9018091C6019091C701A091C801B09143
:1047B000C901BC01CD01CF91DF911F910F91FF90F5
:1047C000EF900895DF93CF9300D0CDB7DEB79A83F3
:1047D00089830E949E1EDC01CB01E981FA818083DE
:1047E0009183A283B3830E94A91FDC01CB01E981DD
:1047F000FA8184839583A683B783E981FA81108641
:104800000F900F90CF91DF910895DF93CF93CDB7A5
:10481000DEB70E948216CF91DF910895DF93CF9388
:10482000CDB7DEB768970FB6F894DEBF0FBECDBF29
:1048300080E090E0A0E2B1E48D8B9E8BAF8BB88FCF
:104840006D897E898F89988D2BEA3AEA4AEA50E48D
:104850000E941F02DC01CB01898B9A8BAB8BBC8B36
:1048600069897A898B899C8920E030E040E85FE3A0
:104870000E94250488231CF481E0888B91C06989FB
:104880007A898B899C8920E030E04FE753E40E94CD
:10489000C50318160CF07BC06D897E898F89988DB1
:1048A00020E030E04AE754E40E941903DC01CB0128
:1048B0008C879D87AE87BF876C857D858E859F851C
:1048C00020E030E04AE755E40E941F02DC01CB0102
:1048D00088879987AA87BB87688579858A859B851C
:1048E00020E030E040E85FE30E94250488232CF4B8
:1048F00081E090E09F838E833FC0688579858A85BB
:104900009B8520E03FEF4FE757E40E94C503181650
:104910004CF56C857D858E859F8520E030E040E2FA
:1049200051E40E941F02DC01CB01BC01CD010E94B9
:104930004900DC01CB019F838E830FC080E991E0A9
:104940009D838C838C819D810197F1F79D838C835E
:104950008E819F8101979F838E838E819F81009797
:1049600069F724C0688579858A859B850E944900FE
:10497000DC01CB019F838E838E819F819B838A8301
:104980008A819B810197F1F79B838A830FC0698994
:104990007A898B899C890E944900DC01CB01888B34
:1049A0008889898389818A95F1F7898368960FB60A
:1049B000F894DEBF0FBECDBFCF91DF910895629F07
:1049C000D001739FF001829FE00DF11D649FE00D07
:1049D000F11D929FF00D839FF00D749FF00D659F68
:1049E000F00D9927729FB00DE11DF91F639FB00D67
:1049F000E11DF91FBD01CF0111240895A1E21A2E76
:104A0000AA1BBB1BFD010DC0AA1FBB1FEE1FFF1F72
:104A1000A217B307E407F50720F0A21BB30BE40BC2
:104A2000F50B661F771F881F991F1A9469F7609509
:104A30007095809590959B01AC01BD01CF010895C3
:104A400097FB092E05260ED057FD04D0D7DF0AD0DC
:104A5000001C38F450954095309521953F4F4F4FAD
:104A60005F4F0895F6F790958095709561957F4F0B
:104A70008F4F9F4F08952F923F924F925F926F9268
:104A80007F928F929F92AF92BF92CF92DF92EF92DE
:104A9000FF920F931F93CF93DF93CDB7DEB7CA1B5F
:104AA000DB0B0FB6F894DEBF0FBECDBF09942A888A
:104AB000398848885F846E847D848C849B84AA8432
:104AC000B984C884DF80EE80FD800C811B81AA81BF
:104AD000B981CE0FD11D0FB6F894DEBF0FBECDBF8A
:084AE000ED010895F894FFCFE9
:104AE80000000000000000000001020203030303AD
:104AF8000404040404040404050505050505050566
:104B08000505050505050505060606060606060645
:104B1800060606060606060606060606060606062D
:104B28000606060606060606070707070707070715
:104B380007070707070707070707070707070707FD
:104B480007070707070707070707070707070707ED
:104B580007070707070707070707070707070707DD
:104B680007070707070707070808080808080808C5
:104B780008080808080808080808080808080808AD
:104B8800080808080808080808080808080808089D
:104B9800080808080808080808080808080808088D
:104BA800080808080808080808080808080808087D
:104BB800080808080808080808080808080808086D
:104BC800080808080808080808080808080808085D
:104BD800080808080808080808080808080808084D
:104BE8000808080808080808000000000000054C2C
:024BF8001000AB
:00000001FF
