:100000000C942A000C9447000C9447000C94470071
:100010000C94A4090C9471090C9447000C943E09AB
:100020000C9447000C940B090C94D8080C94A50868
:100030000C9447000C9447000C9447000C94470024
:100040000C9447000C9447000C9447000C94470014
:100050000C94470011241FBECFE5D8E0DEBFCDBF12
:1000600011E0A8E6B1E001C01D92AD3BB107E1F798
:1000700011E0A0E6B0E0E4E5FFE302C005900D92D8
:10008000A836B107D9F70E942F100C94A81F0C9422
:100090000000EF92FF920F931F937B018C0120E0F1
:1000A00030E040E05FE40E94F50388238CF0C80153
:1000B000B70120E030E040E05FE40E94C1010E940F
:1000C000B3049B01AC01205030404040504806C072
:1000D000C801B7010E94B3049B01AC01B901CA0178
:1000E0001F910F91FF90EF900895A0E0B0E0EBE733
:1000F000F0E00C94711FDC012B01FA019C9192300D
:1001000008F439C1EB018881823008F433C194309E
:1001100069F4843009F02FC111969C91119789815F
:10012000981709F428C1A0E6B0E025C1843009F48D
:1001300021C18230A9F4923009F01DC19A01AD01AC
:1001400088E0EA010990AE01E90109929E0181501F
:10015000C1F7E201898111969C918923818308C1AD
:10016000923009F407C112962D903C901397EB0141
:100170008A819B811496AD90BD90CD90DC901797AD
:10018000EC80FD800E811F819101281B390BB90184
:1001900037FF04C066277727621B730B6032710537
:1001A0000CF061C0121613066CF537014801062EDB
:1001B00004C096948794779467940A94D2F721E0C8
:1001C00030E040E050E004C0220F331F441F551FB1
:1001D0006A95D2F721503040404050402E213F21B7
:1001E00040235123211531054105510521F021E01E
:1001F00030E040E050E079018A01E628F72808293C
:1002000019293CC0232BD1F1260E371E350146019A
:10021000062E04C096948794779467940A94D2F734
:1002200021E030E040E050E004C0220F331F441FC3
:10023000551F6A95D2F721503040404050402A2146
:100240003B214C215D21211531054105510521F04E
:1002500021E030E040E050E059016A01A628B728CB
:10026000C828D9280BC0821593052CF01C01AA249C
:10027000BB24650103C0EE24FF24870111969C91E5
:10028000D20111968C91981709F445C0992339F041
:10029000A80197012A193B094C095D0906C0A6016E
:1002A00095012E193F09400B510B57FD08C01182D3
:1002B0003382228224833583468357831DC081E0A5
:1002C00081833382228288279927DC01821B930B4A
:1002D000A40BB50B84839583A683B7830DC0220F2F
:1002E000331F441F551F24833583468357838281E0
:1002F000938101979383828324813581468157813D
:10030000DA01C9010197A109B1098F5F9F4FAF4F72
:10031000BF4328F30BC0918333822282EA0CFB1C7B
:100320000C1D1D1DE482F5820683178383E0808304
:10033000248135814681578157FF1AC0C901AA27F8
:1003400097FDA095BA2F81709070A070B0705695EF
:10035000479537952795822B932BA42BB52B848318
:100360009583A683B7838281938101969383828349
:10037000DF0101C0D201CD01CDB7DEB7E2E10C94BF
:100380008D1FA0E2B0E0E7ECF1E00C947D1F6983E3
:100390007A838B839C832D833E834F835887E9E048
:1003A000EE2EF12CEC0EFD1ECE010196B7010E943F
:1003B000A4068E010F5E1F4FCE010596B8010E9464
:1003C000A4068A8991E089278A8BC701B801AE010A
:1003D000475E5F4F0E9475000E94CF05A096E6E041
:1003E0000C94991FA0E2B0E0E8EFF1E00C947D1FBF
:1003F00069837A838B839C832D833E834F835887C5
:10040000F9E0EF2EF12CEC0EFD1ECE010196B701A6
:100410000E94A4068E010F5E1F4FCE010596B80103
:100420000E94A406C701B801AE01475E5F4F0E945B
:1004300075000E94CF05A096E6E00C94991FA0E2FB
:10044000B0E0E5E2F2E00C94711F69837A838B835C
:100450009C832D833E834F835887CE010196BE0136
:10046000675F7F4F0E94A406CE010596BE016F5EB6
:100470007F4F0E94A4069985923088F08989823046
:10048000C8F0943019F4823051F404C0843029F457
:10049000923081F480E690E0C6C0923049F420E0CA
:1004A0009A858A89981321E02A87CE010996BBC0D4
:1004B000823049F420E09A858A89981321E02A8BBA
:1004C000CE014196B0C02D843E844F8458886D88FB
:1004D0007E888F88988CEE24FF248701AA24BB2471
:1004E000650140E050E060E070E0E0E0F0E0C10174
:1004F00081709070892BE9F0E60CF71C081D191D1E
:100500009A01AB012A0D3B1D4C1D5D1D80E090E062
:10051000A0E0B0E0E614F7040805190520F481E036
:1005200090E0A0E0B0E0BA01A901480F591F6A1F8E
:100530007B1FAA0CBB1CCC1CDD1C97FE08C081E0F5
:1005400090E0A0E0B0E0A82AB92ACA2ADB2A3196B6
:10055000E032F10549F0660C771C881C991C569412
:10056000479437942794C3CFFA85EA892B893C892D
:100570008B859C85280F391F2E5F3F4F17C0CA01FE
:1005800081709070892B61F016950795F794E79428
:1005900080E090E0A0E0B0E8E82AF92A0A2B1B2BC3
:1005A00076956795579547952F5F3F4F77FDE7CF36
:1005B0000CC0440F551F661F771F17FD4160EE0CDE
:1005C000FF1C001F111F21503040403090E05907A0
:1005D00090E0690790E4790760F32B8F3C8FDB0193
:1005E000CA018F779070A070B07080349105A1051A
:1005F000B10561F447FD0AC0E114F10401051105DC
:1006000029F0405C5F4F6F4F7F4F40781A8EFE1786
:1006100011F081E08A8F4D8F5E8F6F8F78A383E01A
:10062000898FCE0149960E94CF05A096E2E10C94F5
:100630008D1FA8E1B0E0EFE1F3E00C94791F69832E
:100640007A838B839C832D833E834F835887B9E0C5
:10065000EB2EF12CEC0EFD1ECE010196B7010E948F
:10066000A4068E010F5E1F4FCE010596B8010E94B1
:10067000A4062985223008F47EC03989323010F46E
:10068000B8017CC08A859A8989278A87243011F02D
:10069000223031F4231709F06EC060E670E06EC0BE
:1006A000343039F41D861E861F86188A1C861B86E8
:1006B00004C0323021F484E08987B7015FC02B8504
:1006C0003C858B899C89281B390B3C872B87ED84C3
:1006D000FE840F851889AD88BE88CF88D88CEA142F
:1006E000FB040C051D0540F4EE0CFF1C001F111F40
:1006F000215030403C872B8720E030E040E050E044
:1007000080E090E0A0E0B0E460E070E0EA14FB0478
:100710000C051D0540F0282B392B4A2B5B2BEA18C2
:10072000FB080C091D09B695A79597958795EE0CC2
:10073000FF1C001F111F6F5F7F4F6F31710531F775
:10074000DA01C9018F779070A070B0708034910584
:10075000A105B10561F427FD0AC0E114F10401050A
:10076000110529F0205C3F4F4F4F5F4F20782D87B8
:100770003E874F87588BBE01675F7F4FCB010E943A
:10078000CF056896EAE00C94951FA8E1B0E0EBEC89
:10079000F3E00C947D1F69837A838B839C832D8384
:1007A0003E834F83588789E0E82EF12CEC0EFD1E26
:1007B000CE010196B7010E94A4068E010F5E1F4F65
:1007C000CE010596B8010E94A4068985823040F0CA
:1007D0008989823028F0C701B8010E941C0701C036
:1007E0008FEF6896E6E00C94991FA8E1B0E0EBEF7C
:1007F000F3E00C947D1F69837A838B839C832D8324
:100800003E834F83588789E0E82EF12CEC0EFD1EC5
:10081000CE010196B7010E94A4068E010F5E1F4F04
:10082000CE010596B8010E94A4068985823040F069
:100830008989823028F0C701B8010E941C0701C0D5
:100840008FEF6896E6E00C94991FA8E1B0E0EBE228
:10085000F4E00C947D1F69837A838B839C832D83C2
:100860003E834F83588789E0E82EF12CEC0EFD1E65
:10087000CE010196B7010E94A4068E010F5E1F4FA4
:10088000CE010596B8010E94A4068985823040F009
:100890008989823028F0C701B8010E941C0701C075
:1008A00081E06896E6E00C94991FA8E0B0E0EBE5E3
:1008B000F4E00C947A1F9B01AC0183E08983DA0198
:1008C000C9018827B7FD83959927AA27BB27B82E8A
:1008D000211531054105510519F482E089833AC09B
:1008E0008823A9F0203080E0380780E0480780E8BE
:1008F000580729F460E070E080E09FEC30C0EE24FF
:10090000FF248701E21AF30A040B150B02C07901D8
:100910008A018EE1C82ED12CDC82CB82ED82FE8250
:100920000F831887C801B7010E9480050197181628
:10093000190684F4082E04C0EE0CFF1C001F111FC2
:100940000A94D2F7ED82FE820F831887C81AD90A5B
:10095000DC82CB82BA82CE0101960E94CF05289616
:10096000E9E00C94961FACE0B0E0E9EBF4E00C9405
:10097000811F69837A838B839C83CE010196BE019C
:100980006B5F7F4F0E94A4068D81823061F18230BF
:1009900050F1843021F48E81882351F12EC02F81B3
:1009A000388537FD20C06E812F3131051CF066235C
:1009B000F9F023C08EE190E0821B930B29853A85E4
:1009C0004B855C8504C056954795379527958A9544
:1009D000D2F76623B1F050954095309521953F4F61
:1009E0004F4F5F4F0EC020E030E040E050E009C0C4
:1009F0002FEF3FEF4FEF5FE704C020E030E040E033
:100A000050E8B901CA012C96E2E00C949D1FA8E0C1
:100A1000B0E0EDE0F5E00C94791F7B018C016115ED
:100A200071058105910519F482E0898360C083E036
:100A300089838EE1C82ED12CDC82CB82ED82FE82AE
:100A40000F831887C801B7010E948005FC01319708
:100A5000F7FF3BC0222733272E1B3F0B57016801AE
:100A6000022E04C0D694C794B794A7940A94D2F7E0
:100A700040E050E060E070E081E090E0A0E0B0E0B5
:100A800004C0880F991FAA1FBB1F2A95D2F7019790
:100A9000A109B1098E219F21A023B1230097A105AF
:100AA000B10521F041E050E060E070E04A295B29A7
:100AB0006C297D294D835E836F8378878EE190E07A
:100AC0008E1B9F0B9C838B8312C0309781F00E2E60
:100AD00004C0EE0CFF1C001F111F0A94D2F7ED8218
:100AE000FE820F831887CE1ADF0ADC82CB821A823D
:100AF000CE0101960E94CF052896EAE00C94951F3E
:100B0000EF92FF920F931F937B018C0180E0E81618
:100B100080E0F80681E0080780E0180788F48FEF8E
:100B2000E816F1040105110531F028F088E090E0A5
:100B3000A0E0B0E017C080E090E0A0E0B0E012C01C
:100B400080E0E81680E0F80680E0080781E01807FA
:100B500028F088E190E0A0E0B0E004C080E190E0FF
:100B6000A0E0B0E020E230E040E050E0281B390B8C
:100B70004A0B5B0B04C016950795F794E7948A958A
:100B8000D2F7F701E859FF4F8081281B310941094D
:100B90005109C9011F910F91FF90EF900895DF92C5
:100BA000EF92FF920F931F93FC01E480F580068182
:100BB0001781D1808081823048F480E090E0A0E10C
:100BC000B0E0E82AF92A0A2B1B2BA5C0843009F4CF
:100BD0009FC0823021F4EE24FF24870105C0E11478
:100BE000F1040105110519F4E0E0F0E096C062811E
:100BF00073819FEF623879070CF05BC022E83FEF0A
:100C0000261B370B2A3131052CF020E030E040E084
:100C100050E02AC0B801A701022E04C0769567955E
:100C2000579547950A94D2F781E090E0A0E0B0E0B4
:100C300004C0880F991FAA1FBB1F2A95D2F70197DE
:100C4000A109B1098E219F21A023B1230097A105FD
:100C5000B10521F081E090E0A0E0B0E09A01AB01A5
:100C6000282B392B4A2B5B2BDA01C9018F77907027
:100C7000A070B07080349105A105B10539F427FF4B
:100C800009C0205C3F4F4F4F5F4F04C0215C3F4F76
:100C90004F4F5F4FE0E0F0E02030A0E03A07A0E0E7
:100CA0004A07A0E45A0710F0E1E0F0E079018A0178
:100CB00027C06038710564F5FB01E158FF4FD8018A
:100CC000C7018F779070A070B07080349105A10536
:100CD000B10539F4E7FE0DC080E490E0A0E0B0E09B
:100CE00004C08FE390E0A0E0B0E0E80EF91E0A1F18
:100CF0001B1F17FF05C016950795F794E7943196CB
:100D000087E016950795F794E7948A95D1F705C083
:100D1000EE24FF248701EFEFF0E06E2F6795662742
:100D20006795902F9F77D794DD24D7948E2F869543
:100D3000492F462B582F5D29B701CA011F910F91EA
:100D4000FF90EF90DF900895FC01DB01408151811D
:100D50002281622F6F7770E0221F2227221F93814A
:100D6000892F880F822B282F30E0991F9927991FF0
:100D700011969C93119721153105A9F5411551053F
:100D80006105710511F482E037C082E89FEF139688
:100D90009C938E9312979A01AB0167E0220F331F49
:100DA000441F551F6A95D1F783E08C930DC0220F25
:100DB000331F441F551F12968D919C9113970197D5
:100DC00013969C938E931297203080E0380780E032
:100DD000480780E4580758F314962D933D934D939C
:100DE0005C93179708952F3F310579F4411551050C
:100DF0006105710519F484E08C93089564FF03C0C4
:100E000081E08C9312C01C9210C02F573040139673
:100E10003C932E93129783E08C9387E0440F551FE9
:100E2000661F771F8A95D1F7706414964D935D9372
:100E30006D937C93179708951F93DC01FB019C91A0
:100E4000923008F447C08081823008F443C0943067
:100E500051F411961C91843099F58181682F70E0CE
:100E6000611B71093FC0843021F0923031F482302F
:100E7000B9F18181882389F12DC011961C911197B8
:100E80008230F1F081811817D9F412962D913C919E
:100E90001397828193818217930794F0281739075B
:100EA000BCF014968D919D910D90BC91A02D248144
:100EB000358146815781281739074A075B0718F49F
:100EC000112341F00AC082179307A407B50740F425
:100ED000112319F061E070E005C06FEF7FEF02C0F1
:100EE00060E070E0CB011F910895DF93CF93CDB701
:100EF000DEB7E0E2F0E088E48083A1E2B0E0E1E286
:100F0000F0E080818D7F8C93A1E2B0E0E1E2F0E03F
:100F100080818E7F8C93E2E2F0E086E08083A2E223
:100F2000B0E0E2E2F0E080818E7F8C93A6E5B0E055
:100F3000E6E5F0E0808184608C93CF91DF910895A5
:100F4000DF93CF9300D00F92CDB7DEB78A83E6E56B
:100F5000F0E084EA8083E6E5F0E080818823DCF736
:100F60000E94960889838981883011F01B821EC0F7
:100F7000E3E2F0E08A818083E6E5F0E084E88083C4
:100F8000E6E5F0E080818823DCF70E9496088983FB
:100F90008981883119F481E08B8308C0898180328E
:100FA00019F482E08B8302C083E08B838B810F90E6
:100FB0000F900F90CF91DF910895DF93CF9300D0E2
:100FC0000F92CDB7DEB78A83E6E5F0E084EA80834E
:100FD000E6E5F0E080818823DCF70E9496088983AB
:100FE0008981803111F01B821EC0E3E2F0E08A812A
:100FF0008083E6E5F0E084E88083E6E5F0E0808148
:101000008823DCF70E94960889838981803419F44B
:1010100081E08B8308C08981803219F482E08B8360
:1010200002C083E08B838B810F900F900F90CF9144
:10103000DF910895DF93CF9300D0CDB7DEB78A83D9
:10104000E6E5F0E084EA8083E6E5F0E0808188234D
:10105000DCF7E1E2F0E08081887F89838981883054
:1010600079F7E3E2F0E08A818083E6E5F0E084E866
:101070008083E6E5F0E080818823DCF7E1E2F0E0C0
:101080008081887F89838981883119F00E944E0888
:10109000D7CF0F900F90CF91DF910895DF93CF932B
:1010A000CDB7DEB7E6E5F0E084E98083CF91DF914C
:1010B0000895DF93CF930F92CDB7DEB78983E3E234
:1010C000F0E089818083E6E5F0E084E88083E6E56E
:1010D000F0E080818823DCF70F90CF91DF910895B5
:1010E000DF93CF93CDB7DEB7E6E5F0E084EC808305
:1010F000E6E5F0E080818823DCF7E3E2F0E0808140
:10110000CF91DF910895DF93CF93CDB7DEB7E6E5BA
:10111000F0E084E88083E6E5F0E080818823DCF776
:10112000E3E2F0E08081CF91DF910895DF93CF93E8
:101130000F92CDB7DEB7E1E2F0E08081887F89834E
:1011400089810F90CF91DF9108951F920F920FB672
:101150000F9211242F933F934F935F936F937F933D
:101160008F939F93AF93BF93EF93FF93DF93CF93AF
:10117000CDB7DEB78091680190916901009729F0A1
:10118000E0916801F09169010995CF91DF91FF919C
:10119000EF91BF91AF919F918F917F916F915F91EF
:1011A0004F913F912F910F900FBE0F901F90189568
:1011B0001F920F920FB60F9211242F933F934F93CC
:1011C0005F936F937F938F939F93AF93BF93EF93AF
:1011D000FF93DF93CF93CDB7DEB7809168019091F5
:1011E0006901009729F0E0916801F0916901099582
:1011F000CF91DF91FF91EF91BF91AF919F918F912F
:101200007F916F915F914F913F912F910F900FBE02
:101210000F901F9018951F920F920FB60F921124E6
:101220002F933F934F935F936F937F938F939F93EE
:10123000AF93BF93EF93FF93DF93CF93CDB7DEB719
:1012400080916A0190916B01009729F0E0916A0109
:10125000F0916B010995CF91DF91FF91EF91BF91D3
:10126000AF919F918F917F916F915F914F913F913E
:101270002F910F900FBE0F901F9018951F920F92F5
:101280000FB60F9211242F933F934F935F936F9359
:101290007F938F939F93AF93BF93EF93FF93DF93CE
:1012A000CF93CDB7DEB780916A0190916B01009723
:1012B00029F0E0916A01F0916B010995CF91DF91DE
:1012C000FF91EF91BF91AF919F918F917F916F911E
:1012D0005F914F913F912F910F900FBE0F901F90F4
:1012E00018951F920F920FB60F9211242F933F93D0
:1012F0004F935F936F937F938F939F93AF93BF931E
:10130000EF93FF93DF93CF93CDB7DEB780916C015E
:1013100090916D01009729F0E0916C01F0916D01C1
:101320000995CF91DF91FF91EF91BF91AF919F917F
:101330008F917F916F915F914F913F912F910F907E
:101340000FBE0F901F9018951F920F920FB60F921D
:1013500011242F933F934F935F936F937F938F93BA
:101360009F93AF93BF93EF93FF93DF93CF93CDB74B
:10137000DEB780916C0190916D01009729F0E091AA
:101380006C01F0916D010995CF91DF91FF91EF9183
:10139000BF91AF919F918F917F916F915F914F918D
:1013A0003F912F910F900FBE0F901F901895DF93D4
:1013B000CF9300D0CDB7DEB79A838983E981FA81D4
:1013C0008081882309F060C0A2E5B0E0E981FA815C
:1013D000828193818C93E3E5F0E01082A3E5B0E095
:1013E000E3E5F0E09081E981FA818681892B8C9395
:1013F000E981FA8181818823B1F4A3E5B0E0E3E5D6
:10140000F0E0808180688C93A9E5B0E0E9E5F0E048
:10141000808181608C93A8E5B0E0E8E5F0E0808110
:1014200081608C9328C0E981FA818181813019F52E
:10143000A3E5B0E0E3E5F0E0808180688C93A3E56C
:10144000B0E0E3E5F0E0808188608C93ACE5B0E04B
:10145000E981FA81848195818C93A9E5B0E0E9E581
:10146000F0E0808182608C93A8E5B0E0E8E5F0E0F0
:10147000808182608C93E981FA8187819085909345
:10148000690180936801C4C0E981FA81808181305B
:1014900009F060C0EFE4F0E01082AFE4B0E0EFE408
:1014A000F0E0808188608C93AFE4B0E0EFE4F0E09E
:1014B000808184608C93AEE4B0E0E981FA8186811A
:1014C0008C93ACE4B0E0E981FA818281938111963A
:1014D0009C938E93E981FA818181882379F4A9E52F
:1014E000B0E0E9E5F0E0808184608C93A8E5B0E0AD
:1014F000E8E5F0E0808184608C9323C0E981FA8183
:1015000081818130F1F4AEE4B0E0EEE4F0E080817E
:1015100088608C93AAE4B0E0E981FA8184819581A6
:1015200011969C938E93A9E5B0E0E9E5F0E0808107
:1015300080618C93A8E5B0E0E8E5F0E0808180610F
:101540008C93E981FA818781908590936B018093D8
:101550006A015EC0E981FA818081823009F058C059
:10156000A5E4B0E0E5E4F0E0808180688C93A4E439
:10157000B0E0E981FA81828193818C93E5E4F0E027
:101580001082A5E4B0E0E5E4F0E09081E981FA8121
:101590008681892B8C93E981FA818181882379F472
:1015A000A9E5B0E0E9E5F0E0808180648C93A8E5EE
:1015B000B0E0E8E5F0E0808180648C9321C0E981AF
:1015C000FA8181818130E1F4A3E5B0E0E3E5F0E068
:1015D000808188608C93A3E4B0E0E981FA81848102
:1015E00095818C93A9E5B0E0E9E5F0E08081806821
:1015F0008C93A8E5B0E0E8E5F0E0808180688C930A
:10160000E981FA818781908590936D0180936C01C7
:101610000F900F90CF91DF910895DF93CF930F92AA
:10162000CDB7DEB7898389818823E1F4E3E5F0E073
:101630001082E2E5F0E01082ECE5F0E01082A9E52E
:10164000B0E0E9E5F0E080818D7F8C93A9E5B0E022
:10165000E9E5F0E080818E7F8C9310926901109211
:10166000680142C08981813009F5EFE4F0E0108221
:10167000EEE4F0E01082ECE4F0E011821082A9E5E3
:10168000B0E0E9E5F0E080818B7F8C93EAE4F0E064
:1016900011821082A9E5B0E0E9E5F0E080818F7E5B
:1016A0008C9310926B0110926A011EC08981823066
:1016B000D9F4E5E4F0E01082E4E4F0E01082E3E441
:1016C000F0E01082A9E5B0E0E9E5F0E080818F77F5
:1016D0008C93A9E5B0E0E9E5F0E080818F7B8C9305
:1016E00010926D0110926C010F90CF91DF910895CF
:1016F000DF93CF9300D000D00F92CDB7DEB78983B0
:101700006A834B838A81883008F0D5C08981843010
:1017100008F0D1C08981282F30E03D832C838C8153
:101720009D818130910509F443C02C813D81223097
:1017300031052CF48C819D81009771F0BCC02C8107
:101740003D812230310509F45FC08C819D81833059
:10175000910509F485C0AFC08B818130A1F4AAE363
:10176000B0E0EAE3F0E08081482F8A81282F30E062
:1017700081E090E0022E02C0880F991F0A94E2F7E0
:10178000842B8C9398C0AAE3B0E0EAE3F0E0808178
:10179000482F8A81282F30E081E090E0022E02C09D
:1017A000880F991F0A94E2F7809584238C9383C055
:1017B0008B818130A1F4A7E3B0E0E7E3F0E0808122
:1017C000482F8A81282F30E081E090E0022E02C06D
:1017D000880F991F0A94E2F7842B8C936CC0A7E3BF
:1017E000B0E0E7E3F0E08081482F8A81282F30E0E5
:1017F00081E090E0022E02C0880F991F0A94E2F760
:10180000809584238C9357C08B818130A1F4A4E30D
:10181000B0E0E4E3F0E08081482F8A81282F30E0B7
:1018200081E090E0022E02C0880F991F0A94E2F72F
:10183000842B8C9340C0A4E3B0E0E4E3F0E080812B
:10184000482F8A81282F30E081E090E0022E02C0EC
:10185000880F991F0A94E2F7809584238C932BC0FC
:101860008B818130A1F4A1E3B0E0E1E3F0E080817D
:10187000482F8A81282F30E081E090E0022E02C0BC
:10188000880F991F0A94E2F7842B8C9314C0A1E36C
:10189000B0E0E1E3F0E08081482F8A81282F30E03A
:1018A00081E090E0022E02C0880F991F0A94E2F7AF
:1018B000809584238C930F900F900F900F900F9032
:1018C000CF91DF910895DF93CF9300D000D00F9296
:1018D000CDB7DEB789836A834B838A81883008F06D
:1018E000D5C08981843008F0D1C08981282F30E0AB
:1018F0003D832C838C819D818130910509F443C007
:101900002C813D81223031052CF48C819D81009702
:1019100071F0BCC02C813D812230310509F45FC0DB
:101920008C819D818330910509F485C0AFC08B8186
:101930008130A1F4ABE3B0E0EBE3F0E08081482F2D
:101940008A81282F30E081E090E0022E02C0880FCB
:10195000991F0A94E2F7842B8C9398C0ABE3B0E014
:10196000EBE3F0E08081482F8A81282F30E081E08E
:1019700090E0022E02C0880F991F0A94E2F780952A
:1019800084238C9383C08B818130A1F4A8E3B0E0E1
:10199000E8E3F0E08081482F8A81282F30E081E061
:1019A00090E0022E02C0880F991F0A94E2F7842B60
:1019B0008C936CC0A8E3B0E0E8E3F0E08081482FAE
:1019C0008A81282F30E081E090E0022E02C0880F4B
:1019D000991F0A94E2F7809584238C9357C08B81DA
:1019E0008130A1F4A5E3B0E0E5E3F0E08081482F89
:1019F0008A81282F30E081E090E0022E02C0880F1B
:101A0000991F0A94E2F7842B8C9340C0A5E3B0E0C1
:101A1000E5E3F0E08081482F8A81282F30E081E0E3
:101A200090E0022E02C0880F991F0A94E2F7809579
:101A300084238C932BC08B818130A1F4A2E3B0E08E
:101A4000E2E3F0E08081482F8A81282F30E081E0B6
:101A500090E0022E02C0880F991F0A94E2F7842BAF
:101A60008C9314C0A2E3B0E0E2E3F0E08081482F61
:101A70008A81282F30E081E090E0022E02C0880F9A
:101A8000991F0A94E2F7809584238C930F900F900E
:101A90000F900F900F90CF91DF910895DF93CF9328
:101AA00000D000D00F92CDB7DEB78A836B83198246
:101AB0008B81883008F084C08A81843008F080C02F
:101AC0008A81282F30E03D832C834C815D81413019
:101AD000510579F18C819D818230910534F42C81FE
:101AE0003D812115310569F06BC04C815D8142302B
:101AF0005105B9F18C819D818330910509F449C06C
:101B00005FC0E9E3F0E08081282F30E08B81882FEF
:101B100090E0A90102C0559547958A95E2F7CA0160
:101B200081709070882319F081E0898349C01982FF
:101B300047C0E6E3F0E08081282F30E08B81882FDA
:101B400090E0A90102C0559547958A95E2F7CA0130
:101B500081709070882319F081E0898331C01982E7
:101B60002FC0E3E3F0E08081282F30E08B81882FC5
:101B700090E0A90102C0559547958A95E2F7CA0100
:101B800081709070882319F081E0898319C01982CF
:101B900017C0E0E3F0E08081282F30E08B81882FB0
:101BA00090E0A90102C0559547958A95E2F7CA01D0
:101BB00081709070882319F081E0898301C01982B7
:101BC00089810F900F900F900F900F90CF91DF9120
:101BD0000895DF93CF9300D000D0CDB7DEB78983CF
:101BE0006A838981843090F58981282F30E03C8395
:101BF0002B838B819C8181309105D1F02B813C819D
:101C0000223031052CF48B819C81009761F01EC03D
:101C10002B813C812230310581F08B819C81833086
:101C2000910581F013C0EAE3F0E08A8180830EC061
:101C3000E7E3F0E08A81808309C0E4E3F0E08A8191
:101C4000808304C0E1E3F0E08A8180830F900F90ED
:101C50000F900F90CF91DF910895DF93CF9300D035
:101C600000D0CDB7DEB789836A838981843090F54F
:101C70008981282F30E03C832B838B819C818130AC
:101C80009105D1F02B813C81223031052CF48B81E0
:101C90009C81009761F01EC02B813C812230310570
:101CA00081F08B819C818330910581F013C0EBE33F
:101CB000F0E08A8180830EC0E8E3F0E08A818083CF
:101CC00009C0E5E3F0E08A81808304C0E2E3F0E04C
:101CD0008A8180830F900F900F900F90CF91DF91AA
:101CE0000895DF93CF9300D000D0CDB7DEB78A83BD
:101CF00019828A81843090F58A81282F30E03C83D4
:101D00002B838B819C8181309105D1F02B813C818B
:101D1000223031052CF48B819C81009761F01EC02C
:101D20002B813C812230310581F08B819C81833075
:101D3000910581F013C0E9E3F0E0808189830EC052
:101D4000E6E3F0E08081898309C0E3E3F0E080818D
:101D5000898304C0E0E3F0E08081898389810F906A
:101D60000F900F900F90CF91DF910895DF93CF9355
:101D7000CDB7DEB780916E0190916F01A091700197
:101D8000B09171018D329105A105B10524F082E079
:101D900080937A0137C080916E0190916F01A0917C
:101DA0007001B091710183329105A105B1058CF0EC
:101DB00080916E0190916F01A0917001B0917101BD
:101DC0008D329105A105B10524F481E080937A015B
:101DD00019C080916E0190916F01A0917001B09136
:101DE0007101BB237CF080916E0190916F01A091F5
:101DF0007001B091710183329105A105B10514F410
:101E000010927A01CF91DF910895DF93CF93CDB7F0
:101E1000DEB78091720190917301A0917401B0912D
:101E20007501803A26E8920721E0A20720E0B20778
:101E300024F082E08093790146C0809172019091F4
:101E40007301A0917401B0917501803127E292076E
:101E500020E0A20720E0B207A4F0809172019091E7
:101E60007301A0917401B0917501803A26E8920740
:101E700021E0A20720E0B20724F481E080937901F9
:101E800022C08091720190917301A0917401B09170
:101E900075018C3221E0920720E0A20720E0B20712
:101EA00094F08091720190917301A0917401B091AE
:101EB0007501803127E2920720E0A20720E0B207F7
:101EC00014F410927901CF91DF910895DF93CF93AD
:101ED000CDB7DEB72E970FB6F894DEBF0FBECDBFDD
:101EE0000E94A01080917A01823021F080917A01C5
:101EF000813019F40E94771002C00E94831081E0A3
:101F000067E041E00E94630C80E090E0A0EAB0E46A
:101F10008B879C87AD87BE876B857C858D859E85ED
:101F200020E030E04AE755E40E941F02DC01CB01CB
:101F30008F839887A987BA876F81788589859A85E5
:101F400020E030E040E85FE30E94250488232CF481
:101F500081E090E09E838D833FC06F817885898585
:101F60009A8520E03FEF4FE757E40E94C50318161B
:101F70004CF56B857C858D859E8520E030E040E2C8
:101F800051E40E941F02DC01CB01BC01CD010E9483
:101F90004900DC01CB019E838D830FC080E991E075
:101FA0009C838B838B819C810197F1F79C838B832E
:101FB0008D819E8101979E838D838D819E81009767
:101FC00069F714C06F81788589859A850E944900D8
:101FD000DC01CB019E838D838D819E819A838983D1
:101FE00089819A810197F1F79A83898381E067E07B
:101FF00040E00E94630C2E960FB6F894DEBF0FBE31
:10200000CDBFCF91DF910895DF93CF93CDB7DEB7EA
:102010000E94A01080917A01823021F080917A0193
:10202000813019F40E94771002C00E94831081E071
:1020300067E040E00E94630CCF91DF910895DF9349
:10204000CF93CDB7DEB70E94AC100E94831081E021
:1020500067E040E00E94630CCF91DF910895DF9329
:10206000CF93CDB7DEB70E9475070E943B1E81E07B
:1020700067E041E00E94780B0E94B60E0E94050FB7
:1020800080917901823021F080917A01823019F4B7
:102090000E94660FF1CF80917901813021F080910B
:1020A0007A01813019F40E940410E6CF8091790101
:1020B000882321F080917A01882319F40E941F104F
:1020C000DBCF0E94AC100E948310D6CFDF93CF935A
:1020D000CDB7DEB780E060E041E00E94780B80E0A1
:1020E00060E040E00E94630CCF91DF910895DF93A0
:1020F000CF93CDB7DEB780E060E041E00E94630C93
:10210000CF91DF910895DF93CF93CDB7DEB780E015
:1021100060E040E00E94630CCF91DF910895DF936F
:10212000CF93CDB7DEB782E066E041E00E94780B46
:1021300082E066E040E00E94630CCF91DF91089559
:10214000DF93CF93CDB7DEB782E066E041E00E9437
:10215000630CCF91DF910895DF93CF93CDB7DEB7B6
:1021600082E066E040E00E94630CCF91DF91089529
:102170000F931F93DF93CF93CDB7DEB7C259D040F3
:102180000FB6F894DEBF0FBECDBFCE0183589F4F70
:1021900026E1FC01DF01822F1D928A95E9F7FE01FD
:1021A000E558FF4F8AEA90E091838083FE01E7586B
:1021B000FF4F11821082D9C48EEE0E941A08FE01D0
:1021C000EB58FF4F80E090E0A0E2B1E48083918380
:1021D000A283B3838E010F581F4FFE01EB58FF4FB0
:1021E00060817181828193812BEA3AEA4AEA50E464
:1021F0000E941F02DC01CB01F80180839183A2833E
:10220000B383FE01EF58FF4F60817181828193811A
:1022100020E030E040E85FE30E942504882334F4A6
:10222000FE01E059FF4F81E08083E0C0FE01EF58DE
:10223000FF4F608171818281938120E030E04FE720
:1022400053E40E94C50318160CF0C0C0FE01EB5801
:10225000FF4F608171818281938120E030E04AE705
:1022600054E40E941903DC01CB01FE01E459FF4F45
:1022700080839183A283B3838E0108591F4FFE018F
:10228000E459FF4F608171818281938120E030E0C9
:102290004AE755E40E941F02DC01CB01F80180836C
:1022A0009183A283B383FE01E859FF4F608171815E
:1022B0008281938120E030E040E85FE30E942504C2
:1022C000882344F4FE01EA59FF4F81E090E09183B6
:1022D000808364C0FE01E859FF4F60817181828173
:1022E000938120E03FEF4FE757E40E94C5031816A3
:1022F0000CF043C0FE01E459FF4F6081718182817F
:10230000938120E030E040E251E40E941F02DC01B2
:10231000CB018E010A591F4FBC01CD010E9449001B
:10232000DC01CB01F801918380831FC0FE01EC59D1
:10233000FF4F80E991E091838083FE01EC59FF4FCC
:10234000808191810197F1F7FE01EC59FF4F918354
:102350008083DE01AA59BF4FFE01EA59FF4F8081F9
:102360009181019711969C938E93FE01EA59FF4F3C
:10237000808191810097D1F64BC08E010A591F4F81
:10238000FE01E859FF4F60817181828193810E9433
:102390004900DC01CB01F80191838083DE01AE5955
:1023A000BF4FFE01EA59FF4F8081918111969C93A6
:1023B0008E93FE01EE59FF4F808191810197F1F7D5
:1023C000FE01EE59FF4F9183808322C08E01005998
:1023D0001F4FFE01EF58FF4F608171818281938111
:1023E0000E944900DC01CB01F8018083DE01AF5976
:1023F000BF4FFE01E059FF4F80818C93FE01EF59E2
:10240000FF4F80818A95F1F7FE01EF59FF4F8083DE
:10241000FE01E558FF4F9081FE01E758FF4F808194
:10242000890F0E945908FE01E35AFF4F80E090E0B7
:10243000A0E2B1E480839183A283B3838E01075A23
:102440001F4FFE01E35AFF4F6081718182819381AA
:102450002BEA3AEA4AEA50E40E941F02DC01CB016F
:10246000F80180839183A283B383FE01E75AFF4F73
:10247000608171818281938120E030E040E85FE3F8
:102480000E942504882334F4FE01E85AFF4F81E0BE
:102490008083E0C0FE01E75AFF4F60817181828135
:1024A000938120E030E04FE753E40E94C503181603
:1024B0000CF0C0C0FE01E35AFF4F60817181828140
:1024C000938120E030E04AE754E40E941903DC01E4
:1024D000CB01FE01EC5AFF4F80839183A283B3832B
:1024E0008E01005B1F4FFE01EC5AFF4F608171812E
:1024F0008281938120E030E04AE755E40E941F0288
:10250000DC01CB01F80180839183A283B383FE01B8
:10251000E05BFF4F608171818281938120E030E038
:1025200040E85FE30E942504882344F4FE01E25B57
:10253000FF4F81E090E09183808364C0FE01E05B07
:10254000FF4F608171818281938120E03FEF4FE7EF
:1025500057E40E94C50318160CF043C0FE01EC5A64
:10256000FF4F608171818281938120E030E040E201
:1025700051E40E941F02DC01CB018E01025B1F4F60
:10258000BC01CD010E944900DC01CB01F80191831F
:1025900080831FC0FE01E45BFF4F80E991E09183DF
:1025A0008083FE01E45BFF4F808191810197F1F709
:1025B000FE01E45BFF4F91838083DE01A25BBF4F8E
:1025C000FE01E25BFF4F80819181019711969C9300
:1025D0008E93FE01E25BFF4F808191810097D1F6DF
:1025E0004BC08E01025B1F4FFE01E05BFF4F60811D
:1025F0007181828193810E944900DC01CB01F80145
:1026000091838083DE01A65BBF4FFE01E25BFF4F3B
:102610008081918111969C938E93FE01E65BFF4F22
:10262000808191810197F1F7FE01E65BFF4F918375
:10263000808322C08E01085A1F4FFE01E75AFF4FC8
:1026400060817181828193810E944900DC01CB010C
:10265000F8018083DE01A75BBF4FFE01E85AFF4F00
:1026600080818C93FE01E75BFF4F80818A95F1F7B3
:10267000FE01E75BFF4F80838FEE0E94DD07FE01C6
:10268000EB5BFF4F80E090E0A0E2B1E480839183B8
:10269000A283B3838E010F5B1F4FFE01EB5BFF4FE5
:1026A00060817181828193812BEA3AEA4AEA50E49F
:1026B0000E941F02DC01CB01F80180839183A28379
:1026C000B383FE01EF5BFF4F608171818281938153
:1026D00020E030E040E85FE30E942504882334F4E2
:1026E00081E0FE01E05CFF4F80839DC0FE01EF5B57
:1026F000FF4F608171818281938120E030E04FE75C
:1027000053E40E94C50318160CF07EC0FE01EB5B7B
:10271000FF4F608171818281938120E030E04AE740
:1027200054E40E941903DC01CB018CAF9DAFAEAF26
:10273000BFAF6CAD7DAD8EAD9FAD20E030E04AE720
:1027400055E40E941F02DC01CB0188AF99AFAAAF0C
:10275000BBAF68AD79AD8AAD9BAD20E030E040E81D
:102760005FE30E94250488232CF481E090E09FAB76
:102770008EAB3FC068AD79AD8AAD9BAD20E03FEF39
:102780004FE757E40E94C50318164CF56CAD7DADBC
:102790008EAD9FAD20E030E040E251E40E941F0288
:1027A000DC01CB01BC01CD010E944900DC01CB0161
:1027B0009FAB8EAB0FC080E991E09DAB8CAB8CA939
:1027C0009DA90197F1F79DAB8CAB8EA99FA90197AD
:1027D0009FAB8EAB8EA99FA9009769F72DC068ADFE
:1027E00079AD8AAD9BAD0E944900DC01CB019FAB66
:1027F0008EAB8EA99FA99BAB8AAB8AA99BA9019797
:10280000F1F79BAB8AAB18C0FE01EF5BFF4F608115
:102810007181828193810E944900DC01CB01FE011C
:10282000E05CFF4F8083FE01E05CFF4F808189AB5D
:1028300089A98A95F1F789ABFE01E758FF4F00811E
:1028400011810E948308282FCE0183589F4FFC01DD
:10285000E00FF11F208380E090E0A0E2B1E48DA7BB
:102860009EA7AFA7B8AB6DA57EA58FA598A92BEAAB
:102870003AEA4AEA50E40E941F02DC01CB0189A730
:102880009AA7ABA7BCA769A57AA58BA59CA520E0B4
:1028900030E040E85FE30E94250488231CF481E0D7
:1028A00088A791C069A57AA58BA59CA520E030E0FA
:1028B0004FE753E40E94C50318160CF07BC06DA5CA
:1028C0007EA58FA598A920E030E04AE754E40E9455
:1028D0001903DC01CB018CA39DA3AEA3BFA36CA104
:1028E0007DA18EA19FA120E030E04AE755E40E943F
:1028F0001F02DC01CB0188A399A3AAA3BBA368A1F3
:1029000079A18AA19BA120E030E040E85FE30E942A
:10291000250488232CF481E090E09F8F8E8F3FC0A8
:1029200068A179A18AA19BA120E03FEF4FE757E47E
:102930000E94C50318164CF56CA17DA18EA19FA124
:1029400020E030E040E251E40E941F02DC01CB01B4
:10295000BC01CD010E944900DC01CB019F8F8E8F0D
:102960000FC080E991E09D8F8C8F8C8D9D8D01979C
:10297000F1F79D8F8C8F8E8D9F8D01979F8F8E8FFE
:102980008E8D9F8D009769F724C068A179A18AA1D7
:102990009BA10E944900DC01CB019F8F8E8F8E8D01
:1029A0009F8D9B8F8A8F8A8D9B8D0197F1F79B8FCF
:1029B0008A8F0FC069A57AA58BA59CA50E944900A6
:1029C000DC01CB0188A788A5898F898D8A95F1F7CD
:1029D000898F0E944E0880E090E0A0E2B1E48D8BE8
:1029E0009E8BAF8BB88F6D897E898F89988D2BEAEE
:1029F0003AEA4AEA50E40E941F02DC01CB01898BCB
:102A00009A8BAB8BBC8B69897A898B899C8920E0F6
:102A100030E040E85FE30E94250488231CF481E055
:102A2000888B91C069897A898B899C8920E030E004
:102A30004FE753E40E94C50318160CF07BC06D8964
:102A40007E898F89988D20E030E04AE754E40E9427
:102A50001903DC01CB018C879D87AE87BF876C850E
:102A60007D858E859F8520E030E04AE755E40E9411
:102A70001F02DC01CB0188879987AA87BB876885FD
:102A800079858A859B8520E030E040E85FE30E94FD
:102A9000250488232CF481E090E09F838E833FC03F
:102AA000688579858A859B8520E03FEF4FE757E46D
:102AB0000E94C50318164CF56C857D858E859F8513
:102AC00020E030E040E251E40E941F02DC01CB0133
:102AD000BC01CD010E944900DC01CB019F838E83A4
:102AE0000FC080E991E09D838C838C819D8101974B
:102AF000F1F79D838C838E819F8101979F838E83C5
:102B00008E819F81009769F724C0688579858A85C1
:102B10009B850E944900DC01CB019F838E838E81BF
:102B20009F819B838A838A819B810197F1F79B8395
:102B30008A830FC069897A898B899C890E944900A0
:102B4000DC01CB01888B8889898389818A95F1F79B
:102B50008983DE01A758BF4FFE01E758FF4F8081F0
:102B60009181019611969C938E93FE01E758FF4F39
:102B700080819181863191050CF41ECBFE01E358D2
:102B8000FF4F8081882F90E0382F2227FE01E358E5
:102B9000FF4F8181882F90E0822B932B90937C01B3
:102BA00080937B01FE01E358FF4F8281882F90E0E4
:102BB000382F2227FE01E358FF4F8381882F90E0B2
:102BC000822B932B90937E0180937D01FE01E3582D
:102BD000FF4F8481882F90E0382F2227FE01E35891
:102BE000FF4F8581882F90E0822B932B909380015B
:102BF00080937F01FE01E358FF4F8681882F90E08C
:102C0000382F2227FE01E358FF4F8781882F90E05D
:102C1000822B932B90938C0180938B01FE01E358C0
:102C2000FF4F8085882F90E0382F2227FE01E35840
:102C3000FF4F8185882F90E0822B932B90938E01FC
:102C400080938D01FE01E358FF4F8285882F90E02D
:102C5000382F2227FE01E358FF4F8385882F90E00D
:102C6000822B932B9093900180938F01FE01E35868
:102C7000FF4F8485882F90E0382F2227FE01E358EC
:102C8000FF4F8585882F90E0822B932B90938201B4
:102C900080938101FE01E358FF4F8685882F90E0E5
:102CA000382F2227FE01E358FF4F8785882F90E0B9
:102CB000822B932B9093840180938301FE01E35830
:102CC000FF4F8089882F90E0382F2227FE01E3589C
:102CD000FF4F8189882F90E0822B932B9093860160
:102CE00080938501FE01E358FF4F8289882F90E091
:102CF000382F2227FE01E358FF4F8389882F90E069
:102D0000822B932B9093880180938701FE01E358D7
:102D1000FF4F8489882F90E0382F2227FE01E35847
:102D2000FF4F8589882F90E0822B932B90938A0107
:102D300080938901CE56DF4F0FB6F894DEBF0FBEE9
:102D4000CDBFCF91DF911F910F910895DF93CF9366
:102D5000CDB7DEB766970FB6F894DEBF0FBECDBF16
:102D600084E38B8B83E0FE017496DF01982F1D9224
:102D70009A95E9F71F86188A198A1A8A8EEE0E9498
:102D8000A0070E94441E84EF0E9459080E94441E1E
:102D90008B890E9459080E94441E0E944E0880E0C0
:102DA00090E0A0EAB0E48B879C87AD87BE876B85F7
:102DB0007C858D859E8520E030E04AE755E40E94C1
:102DC0001F02DC01CB018F839887A987BA876F81A7
:102DD000788589859A8520E030E040E85FE30E94AD
:102DE000250488232CF481E090E09E838D833FC0EE
:102DF0006F81788589859A8520E03FEF4FE757E41A
:102E00000E94C50318164CF56B857C858D859E85C3
:102E100020E030E040E251E40E941F02DC01CB01DF
:102E2000BC01CD010E944900DC01CB019E838D8352
:102E30000FC080E991E09C838B838B819C810197FB
:102E4000F1F79C838B838D819E8101979E838D8377
:102E50008D819E81009769F714C06F81788589857F
:102E60009A850E944900DC01CB019E838D838D8170
:102E70009E819A83898389819A810197F1F79A8348
:102E800089838EEE0E941A080E94441E86EF0E94DB
:102E900059080E94441E8FEE0E94DD070E94441EC6
:102EA0000E9483088C8B0E94441E0E944E080E9440
:102EB000441E8EEE0E941A080E94441E87EF0E9454
:102EC00059080E94441E8FEE0E94DD070E94441E96
:102ED0000E9483088D8B0E94441E0E944E080E940F
:102EE000441E8EEE0E941A080E94441E88EF0E9423
:102EF00059080E94441E8FEE0E94DD070E94441E66
:102F00000E9483088E8B0E94441E0E944E088C896A
:102F1000882F90E0A0E0B0E0AC01332722278F8516
:102F20009889A989BA89822B932BA42BB52B8F87DB
:102F3000988BA98BBA8B8D89882F90E0A0E0B0E0A8
:102F40002227382F492F5A2F8F859889A989BA8926
:102F5000822B932BA42BB52B8F87988BA98BBA8BA5
:102F60008E89282F30E040E050E08F859889A9892C
:102F7000BA89822B932BA42BB52B8F87988BA98B87
:102F8000BA8B8F859889A989BA89892F9A2FAB2FF7
:102F9000BB278F87988BA98BBA8B8F859889A98936
:102FA000BA89BC01CD0166960FB6F894DEBF0FBE9C
:102FB000CDBFCF91DF910895DF93CF93CDB7DEB72B
:102FC00065970FB6F894DEBF0FBECDBF188A198A79
:102FD0001A8A1B8A8EE28F871D8A1C8A8EEE0E94B7
:102FE000A0070E94441E84EF0E9459080E94441EBC
:102FF0008F850E9459080E94441E0E944E0880E05E
:1030000090E0A0EAB0E48B879C87AD87BE876B8594
:103010007C858D859E8520E030E04AE755E40E945E
:103020001F02DC01CB018F839887A987BA876F8144
:10303000788589859A8520E030E040E85FE30E944A
:10304000250488232CF481E090E09E838D833FC08B
:103050006F81788589859A8520E03FEF4FE757E4B7
:103060000E94C50318164CF56B857C858D859E8561
:1030700020E030E040E251E40E941F02DC01CB017D
:10308000BC01CD010E944900DC01CB019E838D83F0
:103090000FC080E991E09C838B838B819C81019799
:1030A000F1F79C838B838D819E8101979E838D8315
:1030B0008D819E81009769F714C06F81788589851D
:1030C0009A850E944900DC01CB019E838D838D810E
:1030D0009E819A83898389819A810197F1F79A83E6
:1030E00089838EEE0E941A080E94441E86EF0E9479
:1030F00059080E94441E8FEE0E94DD070E94441E64
:103100000E9483088C8B0E94441E0E944E080E94DD
:10311000441E8EEE0E941A080E94441E87EF0E94F1
:1031200059080E94441E8FEE0E94DD070E94441E33
:103130000E9483088D8B0E94441E0E944E088C8939
:10314000882F90E0A0E0B0E02227382F492F5A2F97
:1031500088899989AA89BB89822B932BA42BB52BAB
:10316000888B998BAA8BBB8B8D89282F30E040E010
:1031700050E088899989AA89BB89822B932BA42B3B
:10318000B52B888B998BAA8BBB8B88899989AA8947
:10319000BB89BC01CD0165960FB6F894DEBF0FBEAA
:1031A000CDBFCF91DF910895EF92FF920F931F93C0
:1031B000DF93CF9300D000D0CDB7DEB780E090E0B2
:1031C000A0E0B0E089839A83AB83BC830E94DC17C4
:1031D000DC01CB0180939D0190939E01A0939F0100
:1031E000B093A00120919D0130919E0140919F01DB
:1031F0005091A00180918F0190919001CC01A0E0AD
:10320000B0E079018A01E81AF90A0A0B1B0BD80110
:10321000C701BC01CD010E9455047B018C01809146
:103220008D0190918E01CC01A0E0B0E0BC01CD01F8
:103230000E940705DC01CB01BC01CD0120E030E09C
:1032400040E057E40E941903DC01CB019C01AD0171
:10325000C801B7010E941F02DC01CB01BC01CD01F6
:103260000E94B304DC01CB01809391019093920101
:10327000A0939301B093940180918701909188016C
:10328000AA2797FDA095BA2FBC01CD010E94550435
:10329000DC01CB01BC01CD0120E030E040E055E491
:1032A0000E941F02DC01CB017C018D01809189010C
:1032B00090918A019C01442737FD4095542F8091BD
:1032C000910190919201A0919301B0919401820F8C
:1032D000931FA41FB51FBC01CD010E9455049B0183
:1032E000AC01C801B7010E941903DC01CB01BC018C
:1032F000CD010E94B304DC01CB0180939501909332
:103300009601A0939701B09398012091910130917B
:103310009201409193015091940180919501909177
:103320009601A0919701B0919801820F931FA41F5D
:10333000B51F8093990190939A01A0939B01B0933C
:103340009C018091990190919A01A0919B01B0916B
:103350009C010896A11DB11DBC01CD010E94550420
:10336000DC01CB01BC01CD0120E030E040E851E4BC
:103370000E941903DC01CB0189839A83AB83BC8350
:1033800069817A818B819C8120E030E040E251E4C8
:103390000E941903DC01CB01BC01CD010E94B304E2
:1033A000DC01CB01BC01CD010F900F900F900F906D
:1033B000CF91DF911F910F91FF90EF900895EF92C1
:1033C000FF920F931F93DF93CF93CDB7DEB70E9489
:1033D000A616DC01CB018093B1019093B201A093BA
:1033E000B301B093B40120919D0130919E014091B1
:1033F0009F015091A00180918F0190919001CC018B
:10340000A0E0B0E079018A01E81AF90A0A0B1B0B67
:10341000D801C701BC01CD010E9455047B018C017C
:1034200080918D0190918E01CC01A0E0B0E0BC01B3
:10343000CD010E940705DC01CB01BC01CD0120E0DC
:1034400030E040E057E40E941903DC01CB019C010D
:10345000AD01C801B7010E941F02DC01CB01BC0114
:10346000CD010E94B304DC01CB01809391019093C4
:103470009201A0939301B093940180918701909160
:103480008801AA2797FDA095BA2FBC01CD010E9403
:103490005504DC01CB01BC01CD0120E030E040E06F
:1034A00055E40E941F02DC01CB017C018D0180915B
:1034B000890190918A019C01442737FD4095542F42
:1034C0008091910190919201A0919301B09194010A
:1034D000820F931FA41FB51FBC01CD010E9455048C
:1034E0009B01AC01C801B7010E941903DC01CB01AB
:1034F000BC01CD010E94B304DC01CB018093950196
:1035000090939601A0939701B09398012091910117
:1035100030919201409193015091940180919501D5
:1035200090919601A0919701B0919801820F931FFD
:10353000A41FB51F8093990190939A01A0939B01BA
:10354000B0939C018091990190919A01A0919B0167
:10355000B0919C01805A9F40A040B0408093A90147
:103560009093AA01A093AB01B093AC018091830129
:1035700090918401AA2797FDA095BA2FBC01CD0197
:103580000E9455047B018C018091A9019091AA01B0
:10359000A091AB01B091AC012091A9013091AA0199
:1035A0004091AB015091AC01BC01CD010E94151FAF
:1035B000DC01CB01BC01CD010E945504DC01CB0133
:1035C000BC01CD0120E030E040E855E40E94190341
:1035D000DC01CB019C01AD01C801B7010E941F02B3
:1035E000DC01CB01BC01CD0120E030E040E055E43E
:1035F0000E941903DC01CB01BC01CD010E94B30480
:10360000DC01CB018093910190939201A0939301EF
:10361000B093940180917D0190917E01AA2797FD3E
:10362000A095BA2F2091A9013091AA014091AB0138
:103630005091AC01BC01CD010E94151FDC01CB01F2
:10364000BC01CD010E945504DC01CB01BC01CD01C0
:1036500020E030E040E055E40E941903DC01CB019A
:10366000BC01CD010E94B304DC01CB018093950124
:1036700090939601A0939701B093980120919101A6
:103680003091920140919301509194018091950164
:1036900090919601A0919701B0919801820F931F8C
:1036A000A41FB51F8093A1019093A201A093A30131
:1036B000B093A40180917B0190917C01880F991FA8
:1036C000880F991F9C01442737FD4095542F809106
:1036D000A1019091A201A091A301B091A401820F38
:1036E000931FA41FB51F0296A11DB11D24E030E059
:1036F00040E050E0BC01CD010E94561FDA01C90133
:103700008093A5019093A601A093A701B093A8016F
:1037100080917F0190918001AA2797FDA095BA2FF3
:103720002091A9013091AA014091AB015091AC01C7
:10373000BC01CD010E94151FDC01CB01BC01CD01F4
:103740000E945504DC01CB01BC01CD0120E030E03A
:1037500040E056E40E941903DC01CB01BC01CD011D
:103760000E94B304DC01CB018093910190939201FC
:10377000A0939301B0939401809181019091820173
:10378000AA2797FDA095BA2FBC01CD010E94550430
:103790007B018C018091A9019091AA01A091AB01BC
:1037A000B091AC012091A9013091AA014091AB01E7
:1037B0005091AC01BC01CD010E94151FDC01CB0171
:1037C000BC01CD010E945504DC01CB01BC01CD013F
:1037D00020E030E040E855E40E941903DC01CB0111
:1037E0009C01AD01C801B7010E941F02DC01CB01A1
:1037F000BC01CD0120E030E040E857E40E9419030D
:10380000DC01CB01BC01CD010E94B304DC01CB0182
:103810008093950190939601A0939701B09398019E
:103820002091910130919201409193015091940126
:103830008091950190919601A0919701B091980186
:10384000820F931FA41FB51F0296A11DB11DBC01BD
:10385000CD010E945504DC01CB01BC01CD0120E06B
:1038600030E040E850E40E941903DC01CB01BC01C8
:10387000CD010E94B304DC01CB018093A1019093A0
:10388000A201A093A301B093A40180918B01909118
:103890008C017C0100E010E08091A1019091A201D7
:1038A000A091A301B091A40180509048AF4FBF4FA9
:1038B0009C01AD01C801B7010E94151FDC01CB01BD
:1038C000BC01CD010E940705DC01CB01BC01CD018B
:1038D00020E030E040E057E40E941903DC01CB0116
:1038E000BC01CD010E944900DC01CB018093B501F0
:1038F0009093B601A093B701B093B8018091B10144
:103900009091B201A091B301B091B4019C01AD01BD
:103910008091A5019091A601A091A701B091A80165
:1039200079018A01E81AF90A0A0B1B0BD801C701B1
:1039300020E533EC40E050E0BC01CD010E94151FB2
:10394000DC01CB018093B9019093BA01A093BB0134
:10395000B093BC018091B9019091BA01A091BB01D3
:10396000B091BC01BB231CF18091B9019091BA01C7
:10397000A091BB01B091BC01880F991FAA1FBB1F6A
:103980002091B5013091B6014091B7015091B80135
:10399000BC01CD010E94341FDA01C9018093AD0141
:1039A0009093AE01A093AF01B093B00122C080917B
:1039B000B9019091BA01A091BB01B091BC012091D5
:1039C000B5013091B6014091B7015091B801BC01E9
:1039D000CD010E94341FDA01C901880F991FAA1F67
:1039E000BB1F8093AD019093AE01A093AF01B09344
:1039F000B0018091AD019091AE01A091AF01B09165
:103A0000B001BC01CD010E945504DC01CB01BC0119
:103A1000CD0120E030E040E853E40E941903DC01CE
:103A2000CB017C018D018091AD019091AE01A091FF
:103A3000AF01B091B001BC01CD010E945504DC0181
:103A4000CB01BC01CD0120E030E040E853E40E940E
:103A50001903DC01CB019C01AD01C801B7010E9433
:103A60001F02DC01CB01BC01CD010E94B304DC01CB
:103A7000CB018093910190939201A0939301B09315
:103A800094018091910190919201A0919301B09144
:103A900094012EED3BE040E050E0BC01CD010E94DE
:103AA000151FDC01CB01BC01CD010E945504DC01D6
:103AB000CB01BC01CD0120E030E040E857E40E949A
:103AC0001903DC01CB01BC01CD010E94B304DC0170
:103AD000CB018093910190939201A0939301B093B5
:103AE00094018091AD019091AE01A091AF01B09190
:103AF000B00123E433EE4FEF5FEFBC01CD010E9434
:103B0000151FDC01CB01BC01CD010E945504DC0175
:103B1000CB01BC01CD0120E030E040E857E40E9439
:103B20001903DC01CB01BC01CD010E94B304DC010F
:103B3000CB018093950190939601A0939701B09348
:103B400098018091AD019091AE01A091AF01B0912B
:103B5000B001BC01CD010E9455047B018C01209174
:103B60009101309192014091930150919401809183
:103B7000950190919601A0919701B0919801820FC3
:103B8000931FA41FB51F8153914FAF4FBF4FBC016F
:103B9000CD010E945504DC01CB01BC01CD0120E028
:103BA00030E040E851E40E941903DC01CB019C01A4
:103BB000AD01C801B7010E94F201DC01CB01BC01DB
:103BC000CD010E94B304DC01CB018093AD01909341
:103BD000AE01A093AF01B093B0018091AD0190917F
:103BE000AE01A091AF01B091B00124E630E040E019
:103BF00050E0BC01CD010E94561FDA01C90180933B
:103C0000AD019093AE01A093AF01B093B00180914C
:103C1000AD019091AE01A091AF01B091B001BC0196
:103C2000CD01CF91DF911F910F91FF90EF900895FB
:103C3000DF93CF9300D0CDB7DEB79A8389830E94FC
:103C4000D418DC01CB01E981FA8180839183A283BE
:103C5000B3830E94DF19DC01CB01E981FA818483FF
:103C60009583A683B783E981FA8110860F900F9020
:103C7000CF91DF910895DF93CF93CDB7DEB70E9448
:103C8000B810CF91DF910895DF93CF93CDB7DEB712
:103C900068970FB6F894DEBF0FBECDBF80E090E00E
:103CA000A0E2B1E48D8B9E8BAF8BB88F6D897E893E
:103CB0008F89988D2BEA3AEA4AEA50E40E941F0263
:103CC000DC01CB01898B9A8BAB8BBC8B69897A89A0
:103CD0008B899C8920E030E040E85FE30E94250466
:103CE00088231CF481E0888B91C069897A898B894B
:103CF0009C8920E030E04FE753E40E94C50318168A
:103D00000CF07BC06D897E898F89988D20E030E032
:103D10004AE754E40E941903DC01CB018C879D879C
:103D2000AE87BF876C857D858E859F8520E030E0DE
:103D30004AE755E40E941F02DC01CB01888799877E
:103D4000AA87BB87688579858A859B8520E030E0D6
:103D500040E85FE30E94250488232CF481E090E092
:103D60009F838E833FC0688579858A859B8520E007
:103D70003FEF4FE757E40E94C50318164CF56C85DA
:103D80007D858E859F8520E030E040E251E40E94F1
:103D90001F02DC01CB01BC01CD010E944900DC0106
:103DA000CB019F838E830FC080E991E09D838C833C
:103DB0008C819D810197F1F79D838C838E819F81FA
:103DC00001979F838E838E819F81009769F724C01E
:103DD000688579858A859B850E944900DC01CB0135
:103DE0009F838E838E819F819B838A838A819B811F
:103DF0000197F1F79B838A830FC069897A898B8940
:103E00009C890E944900DC01CB01888B88898983C9
:103E100089818A95F1F7898368960FB6F894DEBF99
:103E20000FBECDBFCF91DF910895629FD001739FE8
:103E3000F001829FE00DF11D649FE00DF11D929F46
:103E4000F00D839FF00D749FF00D659FF00D992785
:103E5000729FB00DE11DF91F639FB00DE11DF91FA9
:103E6000BD01CF0111240895A1E21A2EAA1BBB1B8C
:103E7000FD010DC0AA1FBB1FEE1FFF1FA217B30736
:103E8000E407F50720F0A21BB30BE40BF50B661F4C
:103E9000771F881F991F1A9469F760957095809510
:103EA00090959B01AC01BD01CF01089597FB092EB0
:103EB00005260ED057FD04D0D7DF0AD0001C38F4F9
:103EC00050954095309521953F4F4F4F5F4F089546
:103ED000F6F790958095709561957F4F8F4F9F4F26
:103EE00008952F923F924F925F926F927F928F929E
:103EF0009F92AF92BF92CF92DF92EF92FF920F9379
:103F00001F93CF93DF93CDB7DEB7CA1BDB0B0FB682
:103F1000F894DEBF0FBECDBF09942A88398848883F
:103F20005F846E847D848C849B84AA84B984C884D5
:103F3000DF80EE80FD800C811B81AA81B981CE0FCC
:103F4000D11D0FB6F894DEBF0FBECDBFED010895B1
:043F5000F894FFCF13
:103F5400000000000000000000010202030303034C
:103F64000404040404040404050505050505050505
:103F740005050505050505050606060606060606E5
:103F840006060606060606060606060606060606CD
:103F940006060606060606060707070707070707B5
:103FA400070707070707070707070707070707079D
:103FB400070707070707070707070707070707078D
:103FC400070707070707070707070707070707077D
:103FD4000707070707070707080808080808080865
:103FE400080808080808080808080808080808084D
:103FF400080808080808080808080808080808083D
:10400400080808080808080808080808080808082C
:10401400080808080808080808080808080808081C
:10402400080808080808080808080808080808080C
:1040340008080808080808080808080808080808FC
:1040440008080808080808080808080808080808EC
:08405400080808080808080824
:00000001FF
