:100000000C942A000C943C000C943C000C943C0092
:100010000C94A1020C946C020C943C000C943702DA
:100020000C943C000C9402020C94CD010C949801A9
:100030000C943C000C943C000C943C000C943C0050
:100040000C943C000C943C000C943C000C943C0040
:100050000C943C0011241FBECFE5D8E0DEBFCDBF1D
:1000600020E0A0E6B0E001C01D92A43BB207E1F79A
:100070000E94AF080C94931C0C940000CF93DF9364
:10008000CDB7DEB780E290E028E4FC01208381E276
:1000900090E0FC01208181E290E02D7FFC01208333
:1000A00081E290E0FC01208181E290E02E7FFC0162
:1000B000208382E290E026E0FC01208382E290E04F
:1000C000FC01208182E290E02E7FFC01208386E506
:1000D00090E0FC01208186E590E02460FC01208313
:1000E0000000DF91CF910895CF93DF9300D0CDB77B
:1000F000DEB78A8386E590E024EAFC0120830000D5
:1001000086E590E0FC0180818823D4F70E94880175
:1001100089838981883011F080E01FC083E290E0FC
:100120002A81FC01208386E590E024E8FC012083FD
:10013000000086E590E0FC0180818823D4F70E94CE
:10014000880189838981883111F481E006C0898121
:10015000803211F482E001C083E00F900F90DF91B4
:10016000CF910895CF93DF9300D0CDB7DEB78A83C8
:1001700086E590E024EAFC012083000086E590E01B
:10018000FC0180818823D4F70E94880189838981BA
:10019000803111F080E01FC083E290E02A81FC01F1
:1001A000208386E590E024E8FC012083000086E5BA
:1001B00090E0FC0180818823D4F70E948801898324
:1001C0008981803411F481E006C08981803211F484
:1001D00082E001C083E00F900F90DF91CF910895EE
:1001E000CF93DF9300D0CDB7DEB78A8386E590E06A
:1001F00024EAFC012083000086E590E0FC01808178
:100200008823D4F781E290E0FC018081887F898394
:1002100089818830E9F483E290E02A81FC0120831F
:1002200086E590E024E8FC012083000086E590E06C
:10023000FC0180818823D4F781E290E0FC01808179
:10024000887F89838981883129F00E94310101C02A
:100250000000CCCF000000000F900F90DF91CF91F5
:100260000895CF93DF93CDB7DEB786E590E024E91C
:10027000FC0120830000DF91CF910895CF93DF939D
:100280001F92CDB7DEB7898383E290E02981FC011C
:10029000208386E590E024E8FC012083000086E5C9
:1002A00090E0FC0180818823D4F700000F90DF915B
:1002B000CF910895CF93DF93CDB7DEB786E590E079
:1002C00024ECFC012083000086E590E0FC018081A5
:1002D0008823D4F783E290E0FC018081DF91CF9105
:1002E0000895CF93DF93CDB7DEB786E590E024E89D
:1002F000FC012083000086E590E0FC0180818823DA
:10030000D4F783E290E0FC018081DF91CF910895E2
:10031000CF93DF931F92CDB7DEB781E290E0FC016F
:100320008081887F898389810F90DF91CF910895A3
:100330001F920F920FB60F9211242F933F934F935A
:100340005F936F937F938F939F93AF93BF93EF933D
:10035000FF93CF93DF93CDB7DEB78091600090918C
:100360006100892B31F08091600090916100FC0167
:1003700009950000DF91CF91FF91EF91BF91AF916F
:100380009F918F917F916F915F914F913F912F91AD
:100390000F900FBE0F901F9018951F920F920FB6DF
:1003A0000F9211242F933F934F935F936F937F93FB
:1003B0008F939F93AF93BF93EF93FF93CF93DF936D
:1003C000CDB7DEB78091600090916100892B31F04C
:1003D0008091600090916100FC0109950000DF911F
:1003E000CF91FF91EF91BF91AF919F918F917F91AD
:1003F0006F915F914F913F912F910F900FBE0F9092
:100400001F9018951F920F920FB60F9211242F93E1
:100410003F934F935F936F937F938F939F93AF938C
:10042000BF93EF93FF93CF93DF93CDB7DEB7809168
:10043000620090916300892B31F08091620090916D
:100440006300FC0109950000DF91CF91FF91EF91CE
:10045000BF91AF919F918F917F916F915F914F91DC
:100460003F912F910F900FBE0F901F9018951F92E4
:100470000F920FB60F9211242F933F934F935F93D8
:100480006F937F938F939F93AF93BF93EF93FF935C
:10049000CF93DF93CDB7DEB7809162009091630078
:1004A000892B31F08091620090916300FC010995E5
:1004B0000000DF91CF91FF91EF91BF91AF919F919C
:1004C0008F917F916F915F914F913F912F910F90FD
:1004D0000FBE0F901F9018951F920F920FB60F929C
:1004E00011242F933F934F935F936F937F938F9339
:1004F0009F93AF93BF93EF93FF93CF93DF93CDB7CA
:10050000DEB78091640090916500892B31F0809175
:10051000640090916500FC0109950000DF91CF9186
:10052000FF91EF91BF91AF919F918F917F916F91CB
:100530005F914F913F912F910F900FBE0F901F90A1
:1005400018951F920F920FB60F9211242F933F937D
:100550004F935F936F937F938F939F93AF93BF93CB
:10056000EF93FF93CF93DF93CDB7DEB78091640015
:1005700090916500892B31F0809164009091650025
:10058000FC0109950000DF91CF91FF91EF91BF91A0
:10059000AF919F918F917F916F915F914F913F911B
:1005A0002F910F900FBE0F901F901895CF93DF9350
:1005B00000D0CDB7DEB79A83898389819A81FC0107
:1005C0008081882309F079C089819A81FC01228188
:1005D000338182E590E0FC01208383E590E0FC011B
:1005E000108283E590E0FC01308189819A81FC01D1
:1005F000268183E590E0232BFC01208389819A8169
:10060000FC0181818823E1F483E590E0FC012081F5
:1006100083E590E02068FC01208389E590E0FC01FF
:10062000208189E590E02160FC01208388E590E04D
:10063000FC01208188E590E02160FC01208333C02B
:1006400089819A81FC018181813069F583E590E09F
:10065000FC01208183E590E02068FC01208383E594
:1006600090E0FC01208183E590E02860FC0120837C
:1006700089819A81FC01248135818CE590E0FC011F
:10068000208389E590E0FC01208189E590E02260EB
:10069000FC01208388E590E0FC01208188E590E062
:1006A0002260FC01208389819A81FC0187819085E9
:1006B0009093610080936000F3C089819A81FC016E
:1006C0008081813009F076C08FE490E0FC011082D7
:1006D0008FE490E0FC0120818FE490E02860FC0131
:1006E00020838FE490E0FC0120818FE490E024607F
:1006F000FC0120838EE490E029813A81F901268172
:10070000FC0120838CE490E029813A81F901228167
:100710003381FC013183208389819A81FC018181AD
:10072000882399F489E590E0FC01208189E590E037
:100730002460FC01208388E590E0FC01208188E5AD
:1007400090E02460FC0120832BC089819A81FC0108
:100750008181813029F58EE490E0FC0120818EE4D6
:1007600090E02860FC0120838AE490E029813A81AE
:10077000F90124813581FC013183208389E590E0F2
:10078000FC01208189E590E02061FC01208388E55F
:1007900090E0FC01208188E590E02061FC0120834D
:1007A00089819A81FC018781908590936300809371
:1007B000620076C089819A81FC018081823009F0D3
:1007C0006FC085E490E0FC01208185E490E0206822
:1007D000FC01208389819A81FC012281338184E498
:1007E00090E0FC01208385E490E0FC01108285E428
:1007F00090E0FC01308189819A81FC01268185E4A9
:1008000090E0232BFC01208389819A81FC01818166
:10081000882399F489E590E0FC01208189E590E046
:100820002064FC01208388E590E0FC01208188E5BC
:1008300090E02064FC0120832AC089819A81FC0118
:100840008181813021F583E590E0FC01208183E501
:1008500090E02860FC01208389819A81FC01248139
:10086000358183E490E0FC01208389E590E0FC0180
:10087000208189E590E02068FC01208388E590E0F4
:10088000FC01208188E590E02068FC0120838981BB
:100890009A81FC0187819085909365008093640024
:1008A00000000F900F90DF91CF910895CF93DF93C9
:1008B0001F92CDB7DEB789838981882319F583E537
:1008C00090E0FC01108282E590E0FC0110828CE552
:1008D00090E0FC01108289E590E0FC01208189E52F
:1008E00090E02D7FFC01208389E590E0FC012081D0
:1008F00089E590E02E7FFC01208310926100109228
:10090000600051C08981813049F58FE490E0FC019D
:1009100010828EE490E0FC0110828CE490E0FC01F7
:100920001182108289E590E0FC01208189E590E048
:100930002B7FFC0120838AE490E0FC01118210826D
:1009400089E590E0FC01208189E590E02F7EFC01A3
:100950002083109263001092620025C0898182304A
:1009600011F585E490E0FC01108284E490E0FC0144
:10097000108283E490E0FC01108289E590E0FC01A4
:10098000208189E590E02F77FC01208389E590E0C4
:10099000FC01208189E590E02F7BFC0120831092EF
:1009A00065001092640000000F90DF91CF910895D0
:1009B000CF93DF9300D01F92CDB7DEB789836A83D0
:1009C0004B838A81883008F0D9C08981843008F04F
:1009D000D5C08981882F90E08130910509F43EC00F
:1009E000823091051CF4892B49F0C8C082309105F2
:1009F00009F464C0039709F491C0C0C08B818130B1
:100A0000B1F48AE390E0FC018081482F8A81282F8D
:100A100030E081E090E002C0880F991F2A95E2F74C
:100A2000242F282B8AE390E0FC012083A7C08AE3CF
:100A300090E0FC018081482F8A81282F30E081E0FE
:100A400090E002C0880F991F2A95E2F78095242F25
:100A500028238AE390E0FC01208390C08B818130C1
:100A6000B1F487E390E0FC018081482F8A81282F30
:100A700030E081E090E002C0880F991F2A95E2F7EC
:100A8000242F282B87E390E0FC01208377C087E3A5
:100A900090E0FC018081482F8A81282F30E081E09E
:100AA00090E002C0880F991F2A95E2F78095242FC5
:100AB000282387E390E0FC01208360C08B81813094
:100AC000B1F484E390E0FC018081482F8A81282FD3
:100AD00030E081E090E002C0880F991F2A95E2F78C
:100AE000242F282B84E390E0FC01208347C084E37B
:100AF00090E0FC018081482F8A81282F30E081E03E
:100B000090E002C0880F991F2A95E2F78095242F64
:100B1000282384E390E0FC01208330C08B81813066
:100B2000B1F481E390E0FC018081482F8A81282F75
:100B300030E081E090E002C0880F991F2A95E2F72B
:100B4000242F282B81E390E0FC01208316C081E351
:100B500090E0FC018081482F8A81282F30E081E0DD
:100B600090E002C0880F991F2A95E2F78095242F04
:100B7000282381E390E0FC012083000000000F9017
:100B80000F900F90DF91CF910895CF93DF9300D016
:100B90001F92CDB7DEB789836A834B838A81883001
:100BA00008F0D9C08981843008F0D5C08981882FA8
:100BB00090E08130910509F43EC0823091051CF42B
:100BC000892B49F0C8C08230910509F464C00397AD
:100BD00009F491C0C0C08B818130B1F48BE390E007
:100BE000FC018081482F8A81282F30E081E090E04D
:100BF00002C0880F991F2A95E2F7242F282B8BE338
:100C000090E0FC012083A7C08BE390E0FC01808191
:100C1000482F8A81282F30E081E090E002C0880FC1
:100C2000991F2A95E2F78095242F28238BE390E0E3
:100C3000FC01208390C08B818130B1F488E390E087
:100C4000FC018081482F8A81282F30E081E090E0EC
:100C500002C0880F991F2A95E2F7242F282B88E3DA
:100C600090E0FC01208377C088E390E0FC01808164
:100C7000482F8A81282F30E081E090E002C0880F61
:100C8000991F2A95E2F78095242F282388E390E086
:100C9000FC01208360C08B818130B1F485E390E05A
:100CA000FC018081482F8A81282F30E081E090E08C
:100CB00002C0880F991F2A95E2F7242F282B85E37D
:100CC00090E0FC01208347C085E390E0FC01808137
:100CD000482F8A81282F30E081E090E002C0880F01
:100CE000991F2A95E2F78095242F282385E390E029
:100CF000FC01208330C08B818130B1F482E390E02D
:100D0000FC018081482F8A81282F30E081E090E02B
:100D100002C0880F991F2A95E2F7242F282B82E31F
:100D200090E0FC01208316C082E390E0FC0180810A
:100D3000482F8A81282F30E081E090E002C0880FA0
:100D4000991F2A95E2F78095242F282382E390E0CB
:100D5000FC012083000000000F900F900F90DF91A6
:100D6000CF910895CF93DF9300D01F92CDB7DEB718
:100D70008A836B8319828B81883008F073C08A81E3
:100D8000843008F06FC08A81882F90E0813091050F
:100D900021F1823091051CF4892B41F063C082302F
:100DA000910591F1039709F446C05CC089E390E096
:100DB000FC018081882F90E02B81222F30E002C03F
:100DC000959587952A95E2F781709927892B19F0D7
:100DD00081E0898347C0198245C086E390E0FC0129
:100DE0008081882F90E02B81222F30E002C09595E2
:100DF00087952A95E2F781709927892B19F081E070
:100E0000898330C019822EC083E390E0FC01808189
:100E1000882F90E02B81222F30E002C09595879596
:100E20002A95E2F781709927892B19F081E089834F
:100E300019C0198217C080E390E0FC018081882FDF
:100E400090E02B81222F30E002C0959587952A955E
:100E5000E2F781709927892B19F081E0898301C01D
:100E60001982000089810F900F900F90DF91CF9130
:100E70000895CF93DF9300D0CDB7DEB789836A831F
:100E80008981843050F58981882F90E081309105E7
:100E900091F0823091051CF4892B39F01EC082300C
:100EA000910579F0039799F018C08AE390E02A81C0
:100EB000FC01208312C087E390E02A81FC0120839B
:100EC0000CC084E390E02A81FC01208306C081E30A
:100ED00090E02A81FC012083000000000F900F9019
:100EE000DF91CF910895CF93DF9300D0CDB7DEB7D8
:100EF00089836A838981843050F58981882F90E0C5
:100F00008130910591F0823091051CF4892B39F0E4
:100F10001EC08230910579F0039799F018C08BE3D9
:100F200090E02A81FC01208312C088E390E02A81AE
:100F3000FC0120830CC085E390E02A81FC01208322
:100F400006C082E390E02A81FC01208300000000BB
:100F50000F900F90DF91CF910895CF93DF9300D042
:100F6000CDB7DEB78A8319828A81843050F58A81B1
:100F7000882F90E08130910591F0823091051CF42A
:100F8000892B39F01EC08230910579F0039799F0D2
:100F900018C089E390E0FC018081898312C086E358
:100FA00090E0FC01808189830CC083E390E0FC0128
:100FB0008081898306C080E390E0FC018081898381
:100FC000000089810F900F90DF91CF910895CF930A
:100FD000DF93CDB7DEB78091660090916700A09156
:100FE0006800B09169008D97A105B10520F082E0FD
:100FF000809371002AC08091660090916700A09153
:101000006800B09169008097A105B10580F08091DA
:10101000660090916700A0916800B09169008D977B
:10102000A105B10520F481E0809371000EC080918C
:10103000660090916700A0916800B0916900809768
:10104000A105B10510F4109271000000DF91CF915D
:101050000895CF93DF93CDB7DEB780916A0090916A
:101060006B00A0916C00B0916D00803A9648A14051
:10107000B10520F082E0809370003AC080916A0050
:1010800090916B00A0916C00B0916D0080319742FF
:10109000A105B10588F080916A0090916B00A09144
:1010A0006C00B0916D00803A9648A140B10520F4E3
:1010B00081E0809370001CC080916A0090916B0069
:1010C000A0916C00B0916D008C329140A105B105EA
:1010D00078F080916A0090916B00A0916C00B091C3
:1010E0006D0080319742A105B10510F41092700097
:1010F0000000DF91CF910895CF93DF93CDB7DEB796
:101100000E9444090E94180941E067E081E00E94C2
:10111000C5050000DF91CF910895CF93DF93CDB740
:10112000DEB70E9444090E94180940E067E081E0B0
:101130000E94C5050000DF91CF910895CF93DF9302
:10114000CDB7DEB70E9451090E94250940E067E053
:1011500081E00E94C5050000DF91CF910895CF93F3
:10116000DF93CDB7DEB70E943E000E94D5180E94E3
:1011700032090E9406098FE590E0FC0120818FE58D
:1011800090E02068FC01208341E067E081E00E945C
:10119000D8040E949913DC01CB01809366009093E0
:1011A0006700A0936800B09369000E94A514DC0159
:1011B000CB0180936A0090936B00A0936C00B09376
:1011C0006D000E94E7070E9429088091700082301C
:1011D00021F080917100823019F40E947C0815C0C2
:1011E00080917000813021F080917100813019F47C
:1011F0000E948D080AC080917000882321F08091A0
:101200007100882331F60E949E08C3CFCF93DF93ED
:10121000CDB7DEB741E060E080E00E94D80440E056
:1012200060E080E00E94C5050000DF91CF91089545
:10123000CF93DF93CDB7DEB741E060E080E00E945E
:10124000C5050000DF91CF910895CF93DF93CDB70F
:10125000DEB740E060E080E00E94C5050000DF915D
:10126000CF910895CF93DF93CDB7DEB741E066E02D
:1012700082E00E94D80440E066E082E00E94C5055A
:101280000000DF91CF910895CF93DF93CDB7DEB704
:1012900041E066E082E00E94C5050000DF91CF9149
:1012A0000895CF93DF93CDB7DEB740E066E082E0EC
:1012B0000E94C5050000DF91CF9108950F931F9301
:1012C000CF93DF93CDB7DEB7CA5BD1090FB6F894E1
:1012D000DEBF0FBECDBFCE018B559F4F26E1FC0177
:1012E000322F11923A95E9F78AEA90E09C838B833A
:1012F0001A821982EBC68EEE0E94F0009E012B57D7
:101300003F4F80E090E0A0E2B1E4F9018083918357
:10131000A283B3838E0107571F4FCE018B579F4F78
:101320002BEA3AEA4AEA50E4FC0160817181828149
:1013300093810E94261CDC01CB01F80180839183FC
:10134000A283B3838E0103571F4FCE018B579F4F4C
:1013500020E030E040E850E4FC016081718182814E
:1013600093810E94261CDC01CB01F80180839183CC
:10137000A283B383CE0187579F4F20E030E040E83F
:101380005FE3FC0160817181828193810E94C21AB6
:1013900088233CF4CE018F569F4F21E0FC0120832F
:1013A00030C1CE0183579F4F20E03FEF4FE757E416
:1013B000FC0160817181828193810E94211C181639
:1013C0000CF0D1C0CE018B579F4F20E030E04AE7B0
:1013D00054E4FC0160817181828193810E94C71A6B
:1013E000DC01CB019E012E563F4FF9018083918392
:1013F000A283B3838E010A561F4FCE018E569F4F94
:1014000020E030E04AE755E4FC016081718182818F
:1014100093810E94261CDC01CB01F801808391831B
:10142000A283B383CE018A569F4F20E030E040E88C
:101430005FE3FC0160817181828193810E94C21A05
:1014400088234CF4CE0186569F4F21E030E0FC010A
:10145000318320836DC0CE018A569F4F20E03FEF3D
:101460004FE757E4FC0160817181828193810E9482
:10147000211C18160CF04AC0CE018E569F4F20E05A
:1014800030E040E251E4FC0160817181828193810E
:101490000E94261CDC01CB018E0106561F4FBC01A9
:1014A000CD010E94401BDC01CB01F80191838083B8
:1014B00024C0CE0184569F4F20E931E0FC013183E6
:1014C0002083CE0184569F4FFC018081918101973A
:1014D000F1F79E0124563F4FF90191838083CE019D
:1014E00086569F4F9E0126563F4FF901208131813C
:1014F00021503109FC0131832083CE0186569F4F54
:10150000FC0180819181892BA1F67BC08E0106565A
:101510001F4FCE018A569F4FFC01608171818281ED
:1015200093810E94401BDC01CB01F80191838083F1
:10153000CE0182569F4F9E0126563F4FF9012081D2
:101540003181FC0131832083CE0182569F4FFC0103
:10155000808191810197F1F79E0122563F4FF90159
:10156000918380834EC0CE0187579F4F20E030E0AB
:101570004FE753E4FC0160817181828193810E9475
:10158000211C18166CF58E0100561F4FCE01835793
:101590009F4FFC0160817181828193810E94401B79
:1015A000DC01CB01F80191838083CE018E559F4FE2
:1015B0009E0120563F4FF90120813181FC0131838A
:1015C0002083CE018E559F4FFC0180819181019730
:1015D000F1F79E012E553F4FF9019183808328C07A
:1015E0008E010F561F4FCE0187579F4FFC01608120
:1015F0007181828193810E94401BDC01CB01F80143
:101600008083CE018C559F4F9E012F563F4FF9018D
:101610002081FC012083CE018C559F4FFC018081ED
:10162000282F2A95F1F7CE018C559F4FFC0120837E
:101630009B818981890F0E943E019E012B593F4F5A
:1016400080E090E0A0E2B1E4F90180839183A2837D
:10165000B3838E0107591F4FCE018B599F4F2BEA41
:101660003AEA4AEA50E4FC01608171818281938107
:101670000E94261CDC01CB01F80180839183A283A8
:10168000B3838E0103591F4FCE018B599F4F20E02A
:1016900030E040E850E4FC016081718182819381F7
:1016A0000E94261CDC01CB01F80180839183A28378
:1016B000B383CE0187599F4F20E030E040E85FE3DD
:1016C000FC0160817181828193810E94C21A88230A
:1016D0003CF4CE018F589F4F21E0FC01208330C1A4
:1016E000CE0183599F4F20E03FEF4FE757E4FC01C5
:1016F00060817181828193810E94211C18160CF0F7
:10170000D1C0CE018B599F4F20E030E04AE754E42E
:10171000FC0160817181828193810E94C71ADC0182
:10172000CB019E012E583F4FF90180839183A28304
:10173000B3838E010A581F4FCE018E589F4F20E071
:1017400030E04AE755E4FC01608171818281938138
:101750000E94261CDC01CB01F80180839183A283C7
:10176000B383CE018A589F4F20E030E040E85FE32A
:10177000FC0160817181828193810E94C21A882359
:101780004CF4CE0186589F4F21E030E0FC013183BC
:1017900020836DC0CE018A589F4F20E03FEF4FE776
:1017A00057E4FC0160817181828193810E94211C38
:1017B00018160CF04AC0CE018E589F4F20E030E042
:1017C00040E251E4FC0160817181828193810E9439
:1017D000261CDC01CB018E0106581F4FBC01CD0138
:1017E0000E94401BDC01CB01F8019183808324C05F
:1017F000CE0184589F4F20E931E0FC0131832083E2
:10180000CE0184589F4FFC01808191810197F1F7AF
:101810009E0124583F4FF90191838083CE01865861
:101820009F4F9E0126583F4FF90120813181215061
:101830003109FC0131832083CE0186589F4FFC0182
:1018400080819181892BA1F67BC08E0106581F4FA4
:10185000CE018A589F4FFC01608171818281938102
:101860000E94401BDC01CB01F80191838083CE01F3
:1018700082589F4F9E0126583F4FF90120813181A8
:10188000FC0131832083CE0182589F4FFC0180816F
:1018900091810197F1F79E0122583F4FF901918301
:1018A00080834EC0CE0187599F4F20E030E04FE744
:1018B00053E4FC0160817181828193810E94211C2B
:1018C00018166CF58E0100581F4FCE0183599F4F9B
:1018D000FC0160817181828193810E94401BDC0147
:1018E000CB01F80191838083CE018E579F4F9E01DB
:1018F00020583F4FF90120813181FC013183208341
:10190000CE018E579F4FFC01808191810197F1F7A5
:101910009E012E573F4FF9019183808328C08E018D
:101920000F581F4FCE0187599F4FFC016081718175
:10193000828193810E94401BDC01CB01F8018083EE
:10194000CE018C579F4F9E012F583F4FF9012081A8
:10195000FC012083CE018C579F4FFC018081282FF2
:101960002A95F1F7CE018C579F4FFC0120838FEE13
:101970000E94B2009E012B5B3F4F80E090E0A0E20E
:10198000B1E4F90180839183A283B3838E01075B65
:101990001F4FCE018B5B9F4F2BEA3AEA4AEA50E495
:1019A000FC0160817181828193810E94261CDC018F
:1019B000CB01F80180839183A283B3838E01035B03
:1019C0001F4FCE018B5B9F4F20E030E040E850E49A
:1019D000FC0160817181828193810E94261CDC015F
:1019E000CB01F80180839183A283B383CE01875B0F
:1019F0009F4F20E030E040E85FE3FC0160817181AF
:101A0000828193810E94C21A88233CF4CE018F5AAE
:101A10009F4F21E0FC01208330C1CE01835B9F4FAB
:101A200020E03FEF4FE757E4FC0160817181828144
:101A300093810E94211C18160CF0D1C0CE018B5B43
:101A40009F4F20E030E04AE754E4FC01608171815F
:101A5000828193810E94C71ADC01CB019E012E5A1C
:101A60003F4FF90180839183A283B3838E010A5A89
:101A70001F4FCE018E5A9F4F20E030E04AE755E4D9
:101A8000FC0160817181828193810E94261CDC01AE
:101A9000CB01F80180839183A283B383CE018A5A5C
:101AA0009F4F20E030E040E85FE3FC0160817181FE
:101AB000828193810E94C21A88234CF4CE01865AF7
:101AC0009F4F21E030E0FC01318320836DC0CE01C7
:101AD0008A5A9F4F20E03FEF4FE757E4FC016081B7
:101AE0007181828193810E94211C18160CF04AC0DA
:101AF000CE018E5A9F4F20E030E040E251E4FC01DD
:101B000060817181828193810E94261CDC01CB015E
:101B10008E01065A1F4FBC01CD010E94401BDC0103
:101B2000CB01F8019183808324C0CE01845A9F4F5A
:101B300020E931E0FC0131832083CE01845A9F4F9C
:101B4000FC01808191810197F1F79E01245A3F4F5A
:101B5000F90191838083CE01865A9F4F9E01265AB8
:101B60003F4FF9012081318121503109FC0131833E
:101B70002083CE01865A9F4FFC0180819181892B61
:101B8000A1F67BC08E01065A1F4FCE018A5A9F4F85
:101B9000FC0160817181828193810E94401BDC0184
:101BA000CB01F80191838083CE01825A9F4F9E0121
:101BB000265A3F4FF90120813181FC013183208376
:101BC000CE01825A9F4FFC01808191810197F1F7EC
:101BD0009E01225A3F4FF901918380834EC0CE016E
:101BE000875B9F4F20E030E04FE753E4FC016081CA
:101BF0007181828193810E94211C18166CF58E01DF
:101C0000005A1F4FCE01835B9F4FFC0160817181A1
:101C1000828193810E94401BDC01CB01F8019183FA
:101C20008083CE018E599F4F9E01205A3F4FF9016C
:101C300020813181FC0131832083CE018E599F4F59
:101C4000FC01808191810197F1F79E012E593F4F50
:101C5000F9019183808328C08E010F5A1F4FCE0156
:101C6000875B9F4FFC0160817181828193810E941B
:101C7000401BDC01CB01F8018083CE018C599F4FC2
:101C80009E012F5A3F4FF9012081FC012083CE0194
:101C90008C599F4FFC018081282F2A95F1F7CE01A6
:101CA0008C599F4FFC0120830E947101482F9E0197
:101CB0002B553F4F89819A81820F931FFC014083EE
:101CC00080E090E0A0E2B1E48DA39EA3AFA3B8A70B
:101CD0002BEA3AEA4AEA50E46DA17EA18FA198A5C9
:101CE0000E94261CDC01CB0189A79AA7ABA7BCA741
:101CF00020E030E040E850E46DA17EA18FA198A5DE
:101D00000E94261CDC01CB018DA79EA7AFA7B8AB14
:101D100020E030E040E85FE369A57AA58BA59CA5AB
:101D20000E94C21A88231CF481E089ABC6C020E05F
:101D30003FEF4FE757E46DA57EA58FA598A90E94B8
:101D4000211C18160CF07BC020E030E04AE754E478
:101D50006DA17EA18FA198A50E94C71ADC01CB01BD
:101D60008AAB9BABACABBDAB20E030E04AE755E4BF
:101D70006AA97BA98CA99DA90E94261CDC01CB0124
:101D80008EAB9FABA8AFB9AF20E030E040E85FE397
:101D90006EA97FA988AD99AD0E94C21A88232CF440
:101DA00081E090E09BAF8AAF3FC020E03FEF4FE77C
:101DB00057E46EA97FA988AD99AD0E94211C181621
:101DC0004CF520E030E040E251E46AA97BA98CA9FF
:101DD0009DA90E94261CDC01CB01BC01CD010E9403
:101DE000401BDC01CB019BAF8AAF0FC080E991E0C3
:101DF0009DAF8CAF8CAD9DAD0197F1F79DAF8CAFD2
:101E00008AAD9BAD01979BAF8AAF8AAD9BAD892B05
:101E100069F753C06EA97FA988AD99AD0E94401B98
:101E2000DC01CB019BAF8AAF8AAD9BAD9FAF8EAF7C
:101E30008EAD9FAD0197F1F79FAF8EAF3EC020E012
:101E400030E04FE753E469A57AA58BA59CA50E94D5
:101E5000211C18164CF58E01005C1F4F6DA57EA548
:101E60008FA598A90E94401BDC01CB01F80191834A
:101E70008083CE018E5B9F4F9E01205C3F4FF90116
:101E800020813181FC0131832083CE018E5B9F4F05
:101E9000FC01808191810197F1F79E012E5B3F4FFC
:101EA000F901918380831CC069A57AA58BA59CA5A7
:101EB0000E94401BDC01CB0189ABCE018C5B9F4FA4
:101EC00029A9FC012083CE018C5B9F4FFC018081FE
:101ED000282F2A95F1F7CE018C5B9F4FFC012083C0
:101EE0000E94310180E090E0A0E2B1E48D839E8306
:101EF000AF83B8872BEA3AEA4AEA50E46D817E81E3
:101F00008F8198850E94261CDC01CB0189879A87E6
:101F1000AB87BC8720E030E040E850E46D817E81F3
:101F20008F8198850E94261CDC01CB018D879E87BE
:101F3000AF87B88B20E030E040E85FE369857A85C1
:101F40008B859C850E94C21A88231CF481E0898BB2
:101F5000B2C020E03FEF4FE757E46D857E858F8567
:101F600098890E94211C18160CF07BC020E030E0FC
:101F70004AE754E46D817E818F8198850E94C71A5B
:101F8000DC01CB018A8B9B8BAC8BBD8B20E030E0DE
:101F90004AE755E46A897B898C899D890E94261CC1
:101FA000DC01CB018E8B9F8BA88FB98F20E030E0B6
:101FB00040E85FE36E897F89888D998D0E94C21AFF
:101FC00088232CF481E090E09B8F8A8F3FC020E033
:101FD0003FEF4FE757E46E897F89888D998D0E9486
:101FE000211C18164CF520E030E040E251E46A89EB
:101FF0007B898C899D890E94261CDC01CB01BC0158
:10200000CD010E94401BDC01CB019B8F8A8F0FC04A
:1020100080E991E09D8F8C8F8C8D9D8D0197F1F7DC
:102020009D8F8C8F8A8D9B8D01979B8F8A8F8A8D38
:102030009B8D892B69F73FC06E897F89888D998D2B
:102040000E94401BDC01CB019B8F8A8F8A8D9B8D68
:102050009F8F8E8F8E8D9F8D0197F1F79F8F8E8F23
:102060002AC020E030E04FE753E469857A858B850C
:102070009C850E94211C1816ACF46D857E858F8589
:1020800098890E94401BDC01CB0199A388A388A1F9
:1020900099A19BA38AA38AA19BA10197F1F79BA376
:1020A0008AA30FC069857A858B859C850E94401B19
:1020B000DC01CB01898B89898CA38CA18A95F1F7EE
:1020C0008CA389819A8101969A83898389819A81D7
:1020D00046970CF410C9CE018B559F4FFC018081AF
:1020E000882F90E0382F2227CE018B559F4FFC017F
:1020F0008181882F90E0822B932B909373008093A3
:102100007200CE018B559F4FFC018281882F90E099
:10211000382F2227CE018B559F4FFC018381882FBA
:1021200090E0822B932B9093750080937400CE01E6
:102130008B559F4FFC018481882F90E0382F2227F8
:10214000CE018B559F4FFC018581882F90E0822B1B
:10215000932B9093770080937600CE018B559F4F01
:10216000FC018681882F90E0382F2227CE018B55E5
:102170009F4FFC018781882F90E0822B932B9093B7
:10218000830080938200CE018B559F4FFC01808598
:10219000882F90E0382F2227CE018B559F4FFC01CE
:1021A0008185882F90E0822B932B909385008093DC
:1021B0008400CE018B559F4FFC018285882F90E0D3
:1021C000382F2227CE018B559F4FFC018385882F06
:1021D00090E0822B932B9093870080938600CE0112
:1021E0008B559F4FFC018485882F90E0382F222744
:1021F000CE018B559F4FFC018585882F90E0822B67
:10220000932B9093790080937800CE018B559F4F4C
:10221000FC018685882F90E0382F2227CE018B5530
:102220009F4FFC018785882F90E0822B932B909302
:102230007B0080937A00CE018B559F4FFC018089F3
:10224000882F90E0382F2227CE018B559F4FFC011D
:102250008189882F90E0822B932B90937D0080932F
:102260007C00CE018B559F4FFC018289882F90E026
:10227000382F2227CE018B559F4FFC018389882F51
:1022800090E0822B932B90937F0080937E00CE0171
:102290008B559F4FFC018489882F90E0382F22278F
:1022A000CE018B559F4FFC018589882F90E0822BB2
:1022B000932B90938100809380000000C654DF4FE1
:1022C0000FB6F894DEBF0FBECDBFDF91CF911F9147
:1022D0000F910895CF93DF93CDB7DEB766970FB612
:1022E000F894DEBF0FBECDBF84E389831C8A1D8AAC
:1022F0001E8A1A821B821C821D828EEE0E9474002E
:102300000E94DF1884EF0E943E010E94DF1889813D
:102310000E943E010E94DF180E94310180E090E09F
:10232000A0EAB0E48E839F83A887B98720E030E0DD
:102330004AE755E46E817F81888599850E94261C35
:10234000DC01CB018A879B87AC87BD8720E030E02A
:1023500040E85FE36A857B858C859D850E94C21A73
:1023600088232CF481E090E09F878E873FC020E097
:102370003FEF4FE757E46A857B858C859D850E94FA
:10238000211C18164CF520E030E040E251E46E814B
:102390007F81888599850E94261CDC01CB01BC01C8
:1023A000CD010E94401BDC01CB019F878E870FC0AF
:1023B00080E991E0998B888B888999890197F1F759
:1023C000998B888B8E859F8501979F878E878E85B9
:1023D0009F85892B69F714C06A857B858C859D85CF
:1023E0000E94401BDC01CB019F878E878E859F85D5
:1023F0009B8B8A8B8A899B890197F1F79B8B8A8BB0
:102400008EEE0E94F0000E94DF1886EF0E943E01CF
:102410000E94DF188FEE0E94B2000E94DF180E9417
:1024200071018C8B0E94DF180E9431010E94DF181D
:102430008EEE0E94F0000E94DF1887EF0E943E019E
:102440000E94DF188FEE0E94B2000E94DF180E94E7
:1024500071018D8B0E94DF180E9431010E94DF18EC
:102460008EEE0E94F0000E94DF1888EF0E943E016D
:102470000E94DF188FEE0E94B2000E94DF180E94B7
:1024800071018E8B0E94DF180E9431018C89882F88
:1024900090E020E130E002C0880F991F2A95E2F712
:1024A000092E000CAA0BBB0B2A813B814C815D815C
:1024B000822B932BA42BB52B8A839B83AC83BD8368
:1024C0008D89882F90E0982F8827092E000CAA0B61
:1024D000BB0B2A813B814C815D81822B932BA42BEA
:1024E000B52B8A839B83AC83BD838E89882F90E034
:1024F000A0E0B0E02A813B814C815D81822B932B4F
:10250000A42BB52B8A839B83AC83BD838A819B815B
:10251000AC81BD81892F9A2FAB2FBB278A839B83E8
:10252000AC83BD838A819B81AC81BD81BC01CD011F
:1025300066960FB6F894DEBF0FBECDBFDF91CF9188
:102540000895CF93DF93CDB7DEB765970FB6F894B4
:10255000DEBF0FBECDBF19821A821B821C828EE2A3
:102560008D831D8A1C8A8EEE0E9474000E94DF18E3
:1025700084EF0E943E010E94DF188D810E943E017F
:102580000E94DF180E94310180E090E0A0EAB0E4F0
:102590008E839F83A887B98720E030E04AE755E41F
:1025A0006E817F81888599850E94261CDC01CB0184
:1025B0008A879B87AC87BD8720E030E040E85FE3F7
:1025C0006A857B858C859D850E94C21A88232CF4A0
:1025D00081E090E09F878E873FC020E03FEF4FE78C
:1025E00057E46A857B858C859D850E94211C181681
:1025F0004CF520E030E040E251E46E817F81888537
:1026000099850E94261CDC01CB01BC01CD010E94F2
:10261000401BDC01CB019F878E870FC080E991E0D2
:10262000998B888B888999890197F1F7998B888B89
:102630008E859F8501979F878E878E859F85892BA5
:1026400069F714C06A857B858C859D850E94401B37
:10265000DC01CB019F878E878E859F859B8B8A8B24
:102660008A899B890197F1F79B8B8A8B8EEE0E945A
:10267000F0000E94DF1886EF0E943E010E94DF18E2
:102680008FEE0E94B2000E94DF180E9471018C8BB5
:102690000E94DF180E9431010E94DF188EEE0E9416
:1026A000F0000E94DF1887EF0E943E010E94DF18B1
:1026B0008FEE0E94B2000E94DF180E9471018D8B84
:1026C0000E94DF180E9431018C89882F90E0982F9A
:1026D0008827092E000CAA0BBB0B29813A814B815C
:1026E0005C81822B932BA42BB52B89839A83AB839C
:1026F000BC838D89882F90E0A0E0B0E029813A81E9
:102700004B815C81822B932BA42BB52B89839A83DD
:10271000AB83BC8389819A81AB81BC81BC01CD0133
:1027200065960FB6F894DEBF0FBECDBFDF91CF9197
:102730000895CF92DF92EF92FF920F931F93CF9362
:10274000DF9300D000D0CDB7DEB719821A821B828A
:102750001C820E94A112DC01CB0180939400909313
:102760009500A0939600B09397002091940030912B
:10277000950040919600509197008091860090912D
:102780008700CC01A0E0B0E079018A01E81AF90ADB
:102790000A0B1B0BD801C701BC01CD010E94711BA4
:1027A0006B017C018091840090918500CC01A0E0B8
:1027B000B0E0BC01CD010E946F1BDC01CB0120E029
:1027C00030E040E057E4BC01CD010E94C71ADC01B3
:1027D000CB019C01AD01C701B6010E94261CDC01A2
:1027E000CB01BC01CD010E94391BDC01CB018093E0
:1027F000880090938900A0938A00B0938B00809109
:102800007E0090917F00092E000CAA0BBB0BBC012F
:10281000CD010E94711BDC01CB0120E030E040E0E3
:1028200055E4BC01CD010E94261CDC01CB016C01EA
:102830007D0180918000909181009C01990F440B53
:10284000550B8091880090918900A0918A00B091E9
:102850008B00820F931FA41FB51FBC01CD010E94E6
:10286000711BDC01CB019C01AD01C701B6010E94C7
:10287000C71ADC01CB01BC01CD010E94391BDC0170
:10288000CB0180938C0090938D00A0938E00B09329
:102890008F00209188003091890040918A005091EA
:1028A0008B0080918C0090918D00A0918E00B09152
:1028B0008F00820F931FA41FB51F809390009093E9
:1028C0009100A0939200B09393008091900090911A
:1028D0009100A0919200B09193000896A11DB11DA6
:1028E000BC01CD010E94711BDC01CB0120E030E076
:1028F00040E851E4BC01CD010E94C71ADC01CB01C4
:1029000089839A83AB83BC8320E030E040E251E4CA
:1029100069817A818B819C810E94C71ADC01CB017D
:10292000BC01CD010E94391BDC01CB01BC01CD01F2
:102930000F900F900F900F90DF91CF911F910F91FB
:10294000FF90EF90DF90CF900895CF92DF92EF92BB
:10295000FF920F931F93CF93DF93CDB7DEB70E9403
:102960006A11DC01CB018093A8009093A900A09389
:10297000AA00B093AB002091940030919500409153
:102980009600509197008091860090918700CC012D
:10299000A0E0B0E079018A01E81AF90A0A0B1B0BE2
:1029A000D801C701BC01CD010E94711B6B017C01E4
:1029B0008091840090918500CC01A0E0B0E0BC0142
:1029C000CD010E946F1BDC01CB0120E030E040E034
:1029D00057E4BC01CD010E94C71ADC01CB019C0168
:1029E000AD01C701B6010E94261CDC01CB01BC0170
:1029F000CD010E94391BDC01CB01809388009093AC
:102A00008900A0938A00B0938B0080917E00909102
:102A10007F00092E000CAA0BBB0BBC01CD010E944C
:102A2000711BDC01CB0120E030E040E055E4BC014B
:102A3000CD010E94261CDC01CB016C017D0180913F
:102A40008000909181009C01990F440B550B80915F
:102A5000880090918900A0918A00B0918B00820F2C
:102A6000931FA41FB51FBC01CD010E94711BDC0187
:102A7000CB019C01AD01C701B6010E94C71ADC0160
:102A8000CB01BC01CD010E94391BDC01CB0180933D
:102A90008C0090938D00A0938E00B0938F002091B6
:102AA00088003091890040918A0050918B0080917C
:102AB0008C0090918D00A0918E00B0918F00820FBC
:102AC000931FA41FB51F8093900090939100A09333
:102AD0009200B09393008091900090919100A0910A
:102AE0009200B0919300805A9F40A109B109809350
:102AF000A0009093A100A093A200B093A3008091A6
:102B00007A0090917B00092E000CAA0BBB0BBC0134
:102B1000CD010E94711B6B017C012091A0003091BE
:102B2000A1004091A2005091A3008091A00090913B
:102B3000A100A091A200B091A300BC01CD010E9410
:102B4000E219DC01CB01BC01CD010E94711BDC014B
:102B5000CB0120E030E040E855E4BC01CD010E940B
:102B6000C71ADC01CB019C01AD01C701B6010E946F
:102B7000261CDC01CB0120E030E040E055E4BC0144
:102B8000CD010E94C71ADC01CB01BC01CD010E941E
:102B9000391BDC01CB018093880090938900A093BE
:102BA0008A00B0938B0080917400909175009C0115
:102BB000990F440B550B8091A0009091A100A0911A
:102BC000A200B091A300BC01CD010E94E219DC017A
:102BD000CB01BC01CD010E94711BDC01CB0120E0C7
:102BE00030E040E055E4BC01CD010E94C71ADC0191
:102BF000CB01BC01CD010E94391BDC01CB018093CC
:102C00008C0090938D00A0938E00B0938F00209144
:102C100088003091890040918A0050918B0080910A
:102C20008C0090918D00A0918E00B0918F00820F4A
:102C3000931FA41FB51F8093980090939900A093B1
:102C40009A00B0939B008091720090917300880F5E
:102C5000991F880F991F9C01990F440B550B809168
:102C6000980090919900A0919A00B0919B00820FDA
:102C7000931FA41FB51F0296A11DB11DBB231CF4F9
:102C80000396A11DB11DB595A79597958795B59507
:102C9000A7959795879580939C0090939D00A0930E
:102CA0009E00B0939F0080917600909177009C01E8
:102CB000990F440B550B8091A0009091A100A09119
:102CC000A200B091A300BC01CD010E94E219DC0179
:102CD000CB01BC01CD010E94711BDC01CB0120E0C6
:102CE00030E040E056E4BC01CD010E94C71ADC018F
:102CF000CB01BC01CD010E94391BDC01CB018093CB
:102D0000880090938900A0938A00B0938B008091F3
:102D1000780090917900092E000CAA0BBB0BBC0126
:102D2000CD010E94711B6B017C012091A0003091AC
:102D3000A1004091A2005091A3008091A000909129
:102D4000A100A091A200B091A300BC01CD010E94FE
:102D5000E219DC01CB01BC01CD010E94711BDC0139
:102D6000CB0120E030E040E855E4BC01CD010E94F9
:102D7000C71ADC01CB019C01AD01C701B6010E945D
:102D8000261CDC01CB0120E030E040E857E4BC0128
:102D9000CD010E94C71ADC01CB01BC01CD010E940C
:102DA000391BDC01CB0180938C0090938D00A093A4
:102DB0008E00B0938F00209188003091890040915F
:102DC0008A0050918B0080918C0090918D00A09191
:102DD0008E00B0918F00820F931FA41FB51F029623
:102DE000A11DB11DBC01CD010E94711BDC01CB01F5
:102DF00020E030E040E850E4BC01CD010E94C71A59
:102E0000DC01CB01BC01CD010E94391BDC01CB01EF
:102E10008093980090939900A0939A00B0939B00A0
:102E200080918200909183009C0140E050E080916D
:102E3000980090919900A0919A00B0919B009058B1
:102E4000AF4FBF4FBC01CD010E94E219DC01CB01A5
:102E5000BC01CD010E946F1BDC01CB0120E030E002
:102E600040E057E4BC01CD010E94C71ADC01CB0150
:102E7000BC01CD010E94401BDC01CB018093AC0062
:102E80009093AD00A093AE00B093AF008091A800E6
:102E90009091A900A091AA00B091AB009C01AD0156
:102EA00080919C0090919D00A0919E00B0919F0008
:102EB000281B390B4A0B5B0B80E593ECDC010E946D
:102EC000331ADC01CB018093B0009093B100A09342
:102ED000B200B093B3008091B0009091B100A09186
:102EE000B200B091B300BB231CF18091B00090916F
:102EF000B100A091B200B091B300880F991FAA1F32
:102F0000BB1F2091AC003091AD004091AE005091BC
:102F1000AF00BC01CD010E94F219DA01C901809312
:102F2000A4009093A500A093A600B093A70022C090
:102F30008091B0009091B100A091B200B091B30027
:102F40002091AC003091AD004091AE005091AF00A7
:102F5000BC01CD010E94F219DA01C901880F991F45
:102F6000AA1FBB1F8093A4009093A500A093A60066
:102F7000B093A7008091A4009091A500A091A60015
:102F8000B091A700BC01CD010E94711BDC01CB01F7
:102F900020E030E040E853E4BC01CD010E94C71AB4
:102FA000DC01CB016C017D018091A4009091A50012
:102FB000A091A600B091A700BC01CD010E94711B99
:102FC000DC01CB0120E030E040E853E4BC01CD015E
:102FD0000E94C71ADC01CB019C01AD01C701B601FB
:102FE0000E94261CDC01CB01BC01CD010E94391BD3
:102FF000DC01CB018093880090938900A0938A0024
:10300000B0938B00209188003091890040918A0014
:1030100050918B008EED9BE0DC010E94331ADC01A5
:10302000CB01BC01CD010E94711BDC01CB0120E072
:1030300030E040E857E4BC01CD010E94C71ADC0132
:10304000CB01BC01CD010E94391BDC01CB01809377
:10305000880090938900A0938A00B0938B00209100
:10306000A4003091A5004091A6005091A70083E4F0
:1030700093EEDC010E94411ADC01CB01BC01CD01C1
:103080000E94711BDC01CB0120E030E040E857E4F6
:10309000BC01CD010E94C71ADC01CB01BC01CD01EE
:1030A0000E94391BDC01CB0180938C0090938D0032
:1030B000A0938E00B0938F008091A4009091A50002
:1030C000A091A600B091A700BC01CD010E94711B88
:1030D0006B017C01209188003091890040918A0029
:1030E00050918B0080918C0090918D00A0918E006A
:1030F000B0918F00820F931FA41FB51F8153914F72
:10310000AF4FBF4FBC01CD010E94711BDC01CB0151
:1031100020E030E040E851E4BC01CD010E94C71A34
:10312000DC01CB019C01AD01C701B6010E94561A1A
:10313000DC01CB01BC01CD010E94391BDC01CB01BC
:103140008093A4009093A500A093A600B093A7003D
:103150008091A4009091A500A091A600B091A70035
:1031600024E630E040E050E0BC01CD010E94141A9A
:10317000DA01C9018093A4009093A500A093A60052
:10318000B093A7008091A4009091A500A091A60003
:10319000B091A700BC01CD01DF91CF911F910F919C
:1031A000FF90EF90DF90CF900895CF93DF93CDB74E
:1031B000DEB70E945E090000DF91CF910895CF93A2
:1031C000DF93CDB7DEB7A0970FB6F894DEBF0FBE82
:1031D000CDBF80E090E0A0E2B1E489839A83AB8325
:1031E000BC832BEA3AEA4AEA50E469817A818B810E
:1031F0009C810E94261CDC01CB018D839E83AF83C2
:10320000B88720E030E040E850E469817A818B8122
:103210009C810E94261CDC01CB0189879A87AB87A1
:10322000BC8720E030E040E85FE36D817E818F81E4
:1032300098850E94C21A88231CF481E08D87B2C051
:1032400020E03FEF4FE757E469857A858B859C85C1
:103250000E94211C18160CF07BC020E030E04AE7E9
:1032600054E469817A818B819C810E94C71ADC01B8
:10327000CB018E879F87A88BB98B20E030E04AE78F
:1032800055E46E857F85888999890E94261CDC011A
:10329000CB018A8B9B8BAC8BBD8B20E030E040E870
:1032A0005FE36A897B898C899D890E94C21A882381
:1032B0002CF481E090E09F8B8E8B3FC020E03FEFAD
:1032C0004FE757E46A897B898C899D890E94211C7C
:1032D00018164CF520E030E040E251E46E857F8521
:1032E000888999890E94261CDC01CB01BC01CD0193
:1032F0000E94401BDC01CB019F8B8E8B0FC080E9AD
:1033000091E0998F888F888D998D0197F1F7998F2A
:10331000888F8E899F8901979F8B8E8B8E899F893D
:10332000892B69F73FC06A897B898C899D890E94B6
:10333000401BDC01CB019F8B8E8B8E899F899B8FDD
:103340008A8F8A8D9B8D0197F1F79B8F8A8F2AC078
:1033500020E030E04FE753E46D817E818F819885D6
:103360000E94211C1816ACF469857A858B859C8592
:103370000E94401BDC01CB019D8F8C8F8C8D9D8D1D
:103380009F8F8E8F8E8D9F8D0197F1F79F8F8E8FE0
:103390000FC06D817E818F8198850E94401BDC016A
:1033A000CB018D878D8588A388A18A95F1F788A3A5
:1033B0000000A0960FB6F894DEBF0FBECDBFDF9120
:1033C000CF910895DB018F939F930E94331ABF9191
:1033D000AF91A29F800D911DA39F900DB29F900D64
:1033E00011240895A1E21A2EAA1BBB1BFD010DC0DA
:1033F000AA1FBB1FEE1FFF1FA217B307E407F507A5
:1034000020F0A21BB30BE40BF50B661F771F881F80
:10341000991F1A9469F760957095809590959B0116
:10342000AC01BD01CF010895052E97FB1EF4009459
:103430000E942B1A57FD07D00E94F21907FC03D0F7
:103440004EF40C942B1A50954095309521953F4F92
:103450004F4F5F4F089590958095709561957F4F80
:103460008F4F9F4F08950E94461AA59F900DB49FBD
:10347000900DA49F800D911D11240895B7FF0C9409
:10348000331A0E94331A821B930B0895A29FB00136
:10349000B39FC001A39F700D811D1124911DB29F88
:1034A000700D811D1124911D08955058BB27AA2726
:1034B0000E946D1A0C94E71B0E94D91B38F00E94E1
:1034C000E01B20F039F49F3F19F426F40C94D61B2E
:1034D0000EF4E095E7FB0C94D01BE92F0E94F81B3B
:1034E00058F3BA17620773078407950720F079F439
:1034F000A6F50C941A1C0EF4E0950B2EBA2FA02DF5
:103500000B01B90190010C01CA01A0011124FF2790
:10351000591B99F0593F50F4503E68F11A16F0408B
:10352000A22F232F342F4427585FF3CF469537958A
:103530002795A795F0405395C9F77EF41F16BA0B4F
:10354000620B730B840BBAF09150A1F0FF0FBB1FFD
:10355000661F771F881FC2F70EC0BA0F621F731F46
:10356000841F48F4879577956795B795F7959E3FA3
:1035700008F0B0CF9395880F08F09927EE0F979534
:10358000879508950E94AC1B08F481E008950E947D
:10359000DB1A0C94E71B0E94E01B58F00E94D91B19
:1035A00040F029F45F3F29F00C94D01B51110C948A
:1035B0001B1C0C94D61B0E94F81B68F39923B1F3D3
:1035C000552391F3951B550BBB27AA276217730749
:1035D000840738F09F5F5F4F220F331F441FAA1FDD
:1035E000A9F335D00E2E3AF0E0E832D09150504099
:1035F000E695001CCAF72BD0FE2F29D0660F771F47
:10360000881FBB1F261737074807AB07B0E809F02C
:10361000BB0B802DBF01FF2793585F4F3AF09E3FB1
:10362000510578F00C94D01B0C941B1C5F3FE4F305
:10363000983ED4F3869577956795B795F7959F5FF4
:10364000C9F7880F911D9695879597F90895E1E040
:10365000660F771F881FBB1F621773078407BA079F
:1036600020F0621B730B840BBA0BEE1F88F7E095FA
:1036700008950E94401B6894B1110C941B1C08957E
:103680000E94001C88F09F5798F0B92F9927B751D6
:10369000B0F0E1F0660F771F881F991F1AF0BA95F6
:1036A000C9F714C0B13091F00E941A1CB1E008951E
:1036B0000C941A1C672F782F8827B85F39F0B93F10
:1036C000CCF3869577956795B395D9F73EF49095A9
:1036D0008095709561957F4F8F4F9F4F0895E89427
:1036E00009C097FB3EF490958095709561957F4F4A
:1036F0008F4F9F4F9923A9F0F92F96E9BB279395F8
:10370000F695879577956795B795F111F8CFFAF407
:10371000BB0F11F460FF1BC06F5F7F4F8F4F9F4F38
:1037200016C0882311F096E911C0772321F09EE896
:10373000872F762F05C0662371F096E8862F70E0FC
:1037400060E02AF09A95660F771F881FDAF7880FD6
:103750009695879597F90895990F0008550FAA0B2C
:10376000E0E8FEEF16161706E807F907C0F0121694
:103770001306E407F50798F0621B730B840B950B97
:1037800039F40A2661F0232B242B252B21F40895EC
:103790000A2609F4A140A6958FEF811D811D089589
:1037A00097F99F6780E870E060E008959FEF80ECF4
:1037B000089500240A941616170618060906089597
:1037C00000240A9412161306140605060895092EFD
:1037D0000394000C11F4882352F0BB0F40F4BF2B6C
:1037E00011F460FF04C06F5F7F4F8F4F9F4F0895AC
:1037F00057FD9058440F551F59F05F3F71F04795A2
:10380000880F97FB991F61F09F3F79F08795089586
:10381000121613061406551FF2CF4695F1DF08C0A5
:10382000161617061806991FF1CF869571056105C2
:1038300008940895E894BB2766277727CB0197F96A
:1038400008950E94AC1B08F48FEF08950E94391C64
:103850000C94E71B0E94D91B38F00E94E01B20F05B
:10386000952311F00C94D01B0C94D61B11240C94AE
:103870001B1C0E94F81B70F3959FC1F3950F50E03D
:10388000551F629FF001729FBB27F00DB11D639F12
:10389000AA27F00DB11DAA1F649F6627B00DA11DB8
:1038A000661F829F2227B00DA11D621F739FB00D5E
:1038B000A11D621F839FA00D611D221F749F3327CE
:1038C000A00D611D231F849F600D211D822F762F67
:1038D0006A2F11249F5750409AF0F1F088234AF044
:1038E000EE0FFF1FBB1F661F771F881F91505040B0
:1038F000A9F79E3F510580F00C94D01B0C941B1C23
:103900005F3FE4F3983ED4F3869577956795B79536
:10391000F795E7959F5FC1F7FE2B880F911D969550
:0A392000879597F90895F894FFCFFA
:00000001FF
